{
    "contractName": "DAORegistry",
    "abi": [
        {
            "inputs": [],
            "stateMutability": "nonpayable",
            "type": "constructor"
        },
        {
            "anonymous": false,
            "inputs": [
                {
                    "indexed": false,
                    "internalType": "address",
                    "name": "parent",
                    "type": "address"
                }
            ],
            "name": "DaoRegistered",
            "type": "event"
        },
        {
            "anonymous": false,
            "inputs": [
                {
                    "indexed": true,
                    "internalType": "address",
                    "name": "previousOwner",
                    "type": "address"
                },
                {
                    "indexed": true,
                    "internalType": "address",
                    "name": "newOwner",
                    "type": "address"
                }
            ],
            "name": "OwnershipTransferred",
            "type": "event"
        },
        {
            "inputs": [
                {
                    "internalType": "address",
                    "name": "",
                    "type": "address"
                }
            ],
            "name": "addressToDAO",
            "outputs": [
                {
                    "internalType": "uint256",
                    "name": "",
                    "type": "uint256"
                }
            ],
            "stateMutability": "view",
            "type": "function"
        },
        {
            "inputs": [
                {
                    "internalType": "uint256",
                    "name": "daoID",
                    "type": "uint256"
                },
                {
                    "internalType": "uint256",
                    "name": "roundID",
                    "type": "uint256"
                }
            ],
            "name": "calculateSalaries",
            "outputs": [],
            "stateMutability": "nonpayable",
            "type": "function"
        },
        {
            "inputs": [
                {
                    "internalType": "uint256",
                    "name": "",
                    "type": "uint256"
                }
            ],
            "name": "daoList",
            "outputs": [
                {
                    "internalType": "contract ContributorRegistry",
                    "name": "contributorRegistry",
                    "type": "address"
                },
                {
                    "internalType": "contract RoundManager",
                    "name": "roundManager",
                    "type": "address"
                },
                {
                    "internalType": "contract PaymentStream",
                    "name": "paymentStream",
                    "type": "address"
                },
                {
                    "internalType": "uint256",
                    "name": "salaryPerRound",
                    "type": "uint256"
                }
            ],
            "stateMutability": "view",
            "type": "function"
        },
        {
            "inputs": [
                {
                    "internalType": "uint256",
                    "name": "",
                    "type": "uint256"
                }
            ],
            "name": "daoToAddress",
            "outputs": [
                {
                    "internalType": "address",
                    "name": "",
                    "type": "address"
                }
            ],
            "stateMutability": "view",
            "type": "function"
        },
        {
            "inputs": [],
            "name": "owner",
            "outputs": [
                {
                    "internalType": "address",
                    "name": "",
                    "type": "address"
                }
            ],
            "stateMutability": "view",
            "type": "function"
        },
        {
            "inputs": [
                {
                    "internalType": "uint8",
                    "name": "_requiredConfirmations",
                    "type": "uint8"
                },
                {
                    "internalType": "uint256",
                    "name": "_timePerRound",
                    "type": "uint256"
                },
                {
                    "internalType": "bool",
                    "name": "_timed",
                    "type": "bool"
                },
                {
                    "internalType": "uint256",
                    "name": "_salaryPerRound",
                    "type": "uint256"
                }
            ],
            "name": "register",
            "outputs": [],
            "stateMutability": "nonpayable",
            "type": "function"
        },
        {
            "inputs": [],
            "name": "renounceOwnership",
            "outputs": [],
            "stateMutability": "nonpayable",
            "type": "function"
        },
        {
            "inputs": [
                {
                    "internalType": "address",
                    "name": "newOwner",
                    "type": "address"
                }
            ],
            "name": "transferOwnership",
            "outputs": [],
            "stateMutability": "nonpayable",
            "type": "function"
        }
    ],
    "bytecode": "608060405234801561001057600080fd5b5061001a3361001f565b61006f565b600080546001600160a01b038381166001600160a01b0319831681178455604051919092169283917f8be0079c531659141344cd1fd0a4f28419497f9722a3daafe3b4186f6b6457e09190a35050565b612da58061007e6000396000f3fe608060405234801561001057600080fd5b50600436106100885760003560e01c8063715018a61161005b578063715018a61461015e5780637de5b252146101665780638da5cb5b14610179578063f2fde38b1461018a57600080fd5b80631f0193e81461008d5780632bb5e412146100d357806337dd27f8146101015780633b41814914610149575b600080fd5b6100b661009b36600461076a565b6003602052600090815260409020546001600160a01b031681565b6040516001600160a01b0390911681526020015b60405180910390f35b6100f36100e1366004610798565b60026020526000908152604090205481565b6040519081526020016100ca565b61011461010f36600461076a565b61019d565b6040516100ca94939291906001600160a01b039485168152928416602084015292166040820152606081019190915260800190565b61015c6101573660046107bc565b6101e7565b005b61015c610436565b61015c6101743660046107de565b6104a1565b6000546001600160a01b03166100b6565b61015c610198366004610798565b610628565b600181815481106101ad57600080fd5b600091825260209091206004909102018054600182015460028301546003909301546001600160a01b039283169450908216929091169084565b6000600183815481106101fc576101fc610831565b6000918252602090912060049182020160010154604051639669cdbb60e01b81529182018490526001600160a01b031690639669cdbb9060240160206040518083038186803b15801561024e57600080fd5b505afa158015610262573d6000803e3d6000fd5b505050506040513d601f19601f820116820180604052508101906102869190610847565b905060006001848154811061029d5761029d610831565b600091825260209091206004918202016001015460405163130a010560e21b81529182018590526001600160a01b031690634c2804149060240160006040518083038186803b1580156102ef57600080fd5b505afa158015610303573d6000803e3d6000fd5b505050506040513d6000823e601f3d908101601f1916820160405261032b9190810190610886565b905060005b815181101561042f57600082828151811061034d5761034d610831565b6020026020010151905060006001878154811061036c5761036c610831565b6000918252602090912060049182020160010154604051639a23648f60e01b81529182018890526001600160a01b0384811660248401521690639a23648f9060440160206040518083038186803b1580156103c657600080fd5b505afa1580156103da573d6000803e3d6000fd5b505050506040513d601f19601f820116820180604052508101906103fe9190610847565b9050600061040c8683610961565b610417906064610983565b90505050508080610427906109a2565b915050610330565b5050505050565b6000546001600160a01b031633146104955760405162461bcd60e51b815260206004820181905260248201527f4f776e61626c653a2063616c6c6572206973206e6f7420746865206f776e657260448201526064015b60405180910390fd5b61049f60006106f3565b565b60016040518060800160405280866040516104bb90610743565b60ff9091168152602001604051809103906000f0801580156104e1573d6000803e3d6000fd5b506001600160a01b031681526020013386866040516104ff90610750565b6001600160a01b039093168352602083019190915215156040820152606001604051809103906000f08015801561053a573d6000803e3d6000fd5b506001600160a01b031681526020016040516105559061075d565b604051809103906000f080158015610571573d6000803e3d6000fd5b506001600160a01b0390811682526020918201859052835460018082018655600095865294839020845160049092020180546001600160a01b03199081169284169290921781558484015195810180548316968416969096179095556040808501516002870180549093169316929092179055606090920151600390930192909255513381527f2ca9e488ac78ebfa678652f1302a8a9bb4b862f99edaeed689fb5df2621283c6910160405180910390a150505050565b6000546001600160a01b031633146106825760405162461bcd60e51b815260206004820181905260248201527f4f776e61626c653a2063616c6c6572206973206e6f7420746865206f776e6572604482015260640161048c565b6001600160a01b0381166106e75760405162461bcd60e51b815260206004820152602660248201527f4f776e61626c653a206e6577206f776e657220697320746865207a65726f206160448201526564647265737360d01b606482015260840161048c565b6106f0816106f3565b50565b600080546001600160a01b038381166001600160a01b0319831681178455604051919092169283917f8be0079c531659141344cd1fd0a4f28419497f9722a3daafe3b4186f6b6457e09190a35050565b61136b806109be83390190565b610e7880611d2983390190565b6101cf80612ba183390190565b60006020828403121561077c57600080fd5b5035919050565b6001600160a01b03811681146106f057600080fd5b6000602082840312156107aa57600080fd5b81356107b581610783565b9392505050565b600080604083850312156107cf57600080fd5b50508035926020909101359150565b600080600080608085870312156107f457600080fd5b843560ff8116811461080557600080fd5b9350602085013592506040850135801515811461082157600080fd5b9396929550929360600135925050565b634e487b7160e01b600052603260045260246000fd5b60006020828403121561085957600080fd5b5051919050565b634e487b7160e01b600052604160045260246000fd5b805161088181610783565b919050565b6000602080838503121561089957600080fd5b825167ffffffffffffffff808211156108b157600080fd5b818501915085601f8301126108c557600080fd5b8151818111156108d7576108d7610860565b8060051b604051601f19603f830116810181811085821117156108fc576108fc610860565b60405291825284820192508381018501918883111561091a57600080fd5b938501935b8285101561093f5761093085610876565b8452938501939285019261091f565b98975050505050505050565b634e487b7160e01b600052601160045260246000fd5b60008261097e57634e487b7160e01b600052601260045260246000fd5b500490565b600081600019048311821515161561099d5761099d61094b565b500290565b60006000198214156109b6576109b661094b565b506001019056fe608060405234801561001057600080fd5b5060405161136b38038061136b83398101604081905261002f916100ab565b6100383361005b565b6000805460ff909216600160a01b0260ff60a01b199092169190911790556100d5565b600080546001600160a01b038381166001600160a01b0319831681178455604051919092169283917f8be0079c531659141344cd1fd0a4f28419497f9722a3daafe3b4186f6b6457e09190a35050565b6000602082840312156100bd57600080fd5b815160ff811681146100ce57600080fd5b9392505050565b611287806100e46000396000f3fe608060405234801561001057600080fd5b50600436106100a95760003560e01c806382e717f71161007157806382e717f71461011c5780638da5cb5b14610142578063be75e4d41461015d578063d25b11e014610172578063eb4dd8f214610195578063f2fde38b146101a857600080fd5b80631746e763146100ae5780631f6d4942146100c95780632ec2c246146100ec5780633ffbd47f14610101578063715018a614610114575b600080fd5b6100b66101bb565b6040519081526020015b60405180910390f35b6100dc6100d7366004610e59565b6101cc565b6040516100c09493929190610ef4565b6100ff6100fa366004610e59565b61030c565b005b6100ff61010f366004610ff4565b610485565b6100ff6106f6565b60005461013090600160a01b900460ff1681565b60405160ff90911681526020016100c0565b6000546040516001600160a01b0390911681526020016100c0565b61016561075c565b6040516100c09190611058565b610185610180366004610e59565b610768565b60405190151581526020016100c0565b6100ff6101a3366004610e59565b6107a0565b6100ff6101b6366004610e59565b610a7f565b60006101c76004610b4a565b905090565b6001602052600090815260409020805460028201805460ff80841694610100909404169291906101fb906110a5565b80601f0160208091040260200160405190810160405280929190818152602001828054610227906110a5565b80156102745780601f1061024957610100808354040283529160200191610274565b820191906000526020600020905b81548152906001019060200180831161025757829003601f168201915b505050505090806003018054610289906110a5565b80601f01602080910402602001604051908101604052809291908181526020018280546102b5906110a5565b80156103025780601f106102d757610100808354040283529160200191610302565b820191906000526020600020905b8154815290600101906020018083116102e557829003601f168201915b5050505050905084565b6000546001600160a01b031633146103765760405162461bcd60e51b815260206004820152602260248201527f4f6e6c79206f776e65722063616e2064656c65746520636f6e7472696275746f604482015261727360f01b60648201526084015b60405180910390fd5b6001600160a01b03811660009081526001602052604080822090519091906002906103a490828501906110e0565b908152604051908190036020018120805492151560ff19909316929092179091556000906003906103d890848301906110e0565b9081526040805160209281900383019020805460ff1916931515939093179092556001600160a01b03841660009081526001909152908120805461ffff19168155906104276002830182610d86565b610435600383016000610d86565b506104439050600483610b5a565b506040516001600160a01b03831681527f4803dcd528253b802a22997f7a3b15bcc6be53c1f2ba8f110aa26c25d652a68f906020015b60405180910390a15050565b3360009081526001602052604081205460ff1660028111156104a9576104a9610e82565b146104f65760405162461bcd60e51b815260206004820152601e60248201527f4163636f756e7420686173207265676973746572656420616c72656164790000604482015260640161036d565b600282604051610506919061117c565b9081526040519081900360200190205460ff16156105725760405162461bcd60e51b8152602060048201526024808201527f446973636f72642068616e646c6520697320616c726561647920726567697374604482015263195c995960e21b606482015260840161036d565b600381604051610582919061117c565b9081526040519081900360200190205460ff16156105f05760405162461bcd60e51b815260206004820152602560248201527f47697468756220757365726e616d6520697320616c72656164792072656769736044820152641d195c995960da1b606482015260840161036d565b6105fb600433610b76565b50600160028360405161060e919061117c565b9081526040805160209281900383019020805460ff1916931515939093179092553360009081526001825291909120835161065192600290920191850190610dc0565b506001600382604051610664919061117c565b9081526040805160209281900383019020805460ff191693151593909317909255336000908152600182529190912082516106a792600390920191840190610dc0565b5033600081815260016020819052604091829020805460ff19169091179055517f80788e6e1951532975ceb5ca698dfbf35d3a99bc9c440d8e1bb7301534ab72a2916104799185908590611198565b6000546001600160a01b031633146107505760405162461bcd60e51b815260206004820181905260248201527f4f776e61626c653a2063616c6c6572206973206e6f7420746865206f776e6572604482015260640161036d565b61075a6000610b8b565b565b60606101c76004610bdb565b600060026001600160a01b03831660009081526001602052604090205460ff16600281111561079957610799610e82565b1492915050565b60023360009081526001602052604090205460ff1660028111156107c6576107c6610e82565b14806107dc57506000546001600160a01b031633145b61084e5760405162461bcd60e51b815260206004820152603960248201527f566f7465722068617320746f206265206120636f6e6669726d656420636f6e7460448201527f72696275746f72206f7220636f6e7472616374206f776e657200000000000000606482015260840161036d565b6001600160a01b038116600090815260016020819052604090912090815460ff16600281111561088057610880610e82565b146108e05760405162461bcd60e51b815260206004820152602a60248201527f436f6e7472696275746f72206973206e6f7420696e20636f6e6669726d6174696044820152696f6e2070726f6365737360b01b606482015260840161036d565b33600090815260018201602052604090205460ff16156109535760405162461bcd60e51b815260206004820152602860248201527f566f74657220616c726561647920766f74656420666f72207468697320636f6e6044820152673a3934b13aba37b960c11b606482015260840161036d565b33600090815260018281016020526040909120805460ff1916821790558154610100900460ff16908290610986836111ee565b825461010092830a60ff8181021990921692821602919091179092558354604080516001600160a01b0388168152336020820152929091049092168183015290517fb56c0bae1f9656ed06cdfdd64813839cd5a6e652cce3338329f3c05e2ca953a192509081900360600190a16000548154600160a01b90910460ff90811661010090920416101580610a2357506000546001600160a01b031633145b15610a7b576002815460ff166002811115610a4057610a40610e82565b50506040516001600160a01b03831681527fd283121480f58b0265dcca9e40475738da2f7774691845bb2b65bb88778de69d90602001610479565b5050565b6000546001600160a01b03163314610ad95760405162461bcd60e51b815260206004820181905260248201527f4f776e61626c653a2063616c6c6572206973206e6f7420746865206f776e6572604482015260640161036d565b6001600160a01b038116610b3e5760405162461bcd60e51b815260206004820152602660248201527f4f776e61626c653a206e6577206f776e657220697320746865207a65726f206160448201526564647265737360d01b606482015260840161036d565b610b4781610b8b565b50565b6000610b54825490565b92915050565b6000610b6f836001600160a01b038416610be8565b9392505050565b6000610b6f836001600160a01b038416610cdb565b600080546001600160a01b038381166001600160a01b0319831681178455604051919092169283917f8be0079c531659141344cd1fd0a4f28419497f9722a3daafe3b4186f6b6457e09190a35050565b60606000610b6f83610d2a565b60008181526001830160205260408120548015610cd1576000610c0c60018361120e565b8554909150600090610c209060019061120e565b9050818114610c85576000866000018281548110610c4057610c40611225565b9060005260206000200154905080876000018481548110610c6357610c63611225565b6000918252602080832090910192909255918252600188019052604090208390555b8554869080610c9657610c9661123b565b600190038181906000526020600020016000905590558560010160008681526020019081526020016000206000905560019350505050610b54565b6000915050610b54565b6000818152600183016020526040812054610d2257508154600181810184556000848152602080822090930184905584548482528286019093526040902091909155610b54565b506000610b54565b606081600001805480602002602001604051908101604052809291908181526020018280548015610d7a57602002820191906000526020600020905b815481526020019060010190808311610d66575b50505050509050919050565b508054610d92906110a5565b6000825580601f10610da2575050565b601f016020900490600052602060002090810190610b479190610e44565b828054610dcc906110a5565b90600052602060002090601f016020900481019282610dee5760008555610e34565b82601f10610e0757805160ff1916838001178555610e34565b82800160010185558215610e34579182015b82811115610e34578251825591602001919060010190610e19565b50610e40929150610e44565b5090565b5b80821115610e405760008155600101610e45565b600060208284031215610e6b57600080fd5b81356001600160a01b0381168114610b6f57600080fd5b634e487b7160e01b600052602160045260246000fd5b60005b83811015610eb3578181015183820152602001610e9b565b83811115610ec2576000848401525b50505050565b60008151808452610ee0816020860160208601610e98565b601f01601f19169290920160200192915050565b600060038610610f1457634e487b7160e01b600052602160045260246000fd5b85825260ff8516602083015260806040830152610f346080830185610ec8565b8281036060840152610f468185610ec8565b979650505050505050565b634e487b7160e01b600052604160045260246000fd5b600082601f830112610f7857600080fd5b813567ffffffffffffffff80821115610f9357610f93610f51565b604051601f8301601f19908116603f01168101908282118183101715610fbb57610fbb610f51565b81604052838152866020858801011115610fd457600080fd5b836020870160208301376000602085830101528094505050505092915050565b6000806040838503121561100757600080fd5b823567ffffffffffffffff8082111561101f57600080fd5b61102b86838701610f67565b9350602085013591508082111561104157600080fd5b5061104e85828601610f67565b9150509250929050565b6020808252825182820181905260009190848201906040850190845b818110156110995783516001600160a01b031683529284019291840191600101611074565b50909695505050505050565b600181811c908216806110b957607f821691505b602082108114156110da57634e487b7160e01b600052602260045260246000fd5b50919050565b600080835481600182811c9150808316806110fc57607f831692505b602080841082141561111c57634e487b7160e01b86526022600452602486fd5b81801561113057600181146111415761116e565b60ff1986168952848901965061116e565b60008a81526020902060005b868110156111665781548b82015290850190830161114d565b505084890196505b509498975050505050505050565b6000825161118e818460208701610e98565b9190910192915050565b6001600160a01b03841681526060602082018190526000906111bc90830185610ec8565b82810360408401526111ce8185610ec8565b9695505050505050565b634e487b7160e01b600052601160045260246000fd5b600060ff821660ff811415611205576112056111d8565b60010192915050565b600082821015611220576112206111d8565b500390565b634e487b7160e01b600052603260045260246000fd5b634e487b7160e01b600052603160045260246000fdfea2646970667358221220d929fd948bc4e5180ebb4d5d77311eab33b05bc830158f6419f3ff2a38bb8d6464736f6c63430008090033608060405234801561001057600080fd5b50604051610e78380380610e7883398101604081905261002f916100a0565b600180546001600160a01b039094166001600160a01b03199485161781556002805491820181556000527f405787fa12a823e0f2b7631cc41b3ba8828b3321ca811111fa75cd3aa3bb5ace01805490931633179092556007556008805491151560ff199092169190911790556100f4565b6000806000606084860312156100b557600080fd5b83516001600160a01b03811681146100cc57600080fd5b60208501516040860151919450925080151581146100e957600080fd5b809150509250925092565b610d75806101036000396000f3fe608060405234801561001057600080fd5b50600436106100a95760003560e01c80637b103999116100715780637b103999146101645780638c65c81f146101775780639669cdbb146101995780639a23648f146101ba578063a0b412a6146101e5578063c89c1a89146101f857600080fd5b806310a93d95146100ae57806314bfd6d0146100c357806320b698b3146100f357806343859632146101065780634c28041414610144575b600080fd5b6100c16100bc366004610ae8565b61020b565b005b6100d66100d1366004610b2f565b6103d6565b6040516001600160a01b0390911681526020015b60405180910390f35b6100c1610101366004610b48565b610400565b610134610114366004610b85565b600560209081526000928352604080842090915290825290205460ff1681565b60405190151581526020016100ea565b610157610152366004610b2f565b61073a565b6040516100ea9190610bb1565b6001546100d6906001600160a01b031681565b61018a610185366004610b2f565b6107a6565b6040516100ea93929190610c14565b6101ac6101a7366004610b2f565b6107dd565b6040519081526020016100ea565b6101ac6101c8366004610b85565b600460209081526000928352604080842090915290825290205481565b6100d66101f3366004610c4a565b61080a565b6100c1610206366004610c6c565b610842565b6000828152600560209081526040808320338452909152902054829060ff1615801561024557503360009081526006602052604090205415155b61024e57600080fd5b826000806000838154811061026557610265610ca0565b600091825260209091206003909102015460ff16600281111561028a5761028a610bfe565b146102d05760405162461bcd60e51b81526020600482015260116024820152702937bab7321034b9903737ba1037b832b760791b60448201526064015b60405180910390fd5b60008581526005602090815260408083203384529091528120805460ff191660011790555b845181101561039657336000818152600660209081526040808320548a8452600483528184209484529390915281208054909190610334908490610ccc565b90915550503360009081526006602052604081205481549091908890811061035e5761035e610ca0565b9060005260206000209060030201600201600082825461037e9190610ccc565b9091555081905061038e81610ce4565b9150506102f5565b50604080518681523360208201527ff1003b73c437642c0460aee9cd9628b0b8c447b66e6c7c905531b9c644214a11910160405180910390a15050505050565b600281815481106103e657600080fd5b6000918252602090912001546001600160a01b0316905081565b6000805b81158015610413575060025481105b1561046757336001600160a01b03166002828154811061043557610435610ca0565b6000918252602090912001546001600160a01b0316141561045557600191505b8061045f81610ce4565b915050610404565b508061047257600080fd5b60005415806104c55750600080805461048d90600190610cff565b8154811061049d5761049d610ca0565b600091825260209091206003909102015460ff1660028111156104c2576104c2610bfe565b14155b6104ce57600080fd5b60005b82518110156106005760008382815181106104ee576104ee610ca0565b6020908102919091010151600154604051630692d88f60e51b81526001600160a01b03808416600483015292935091169063d25b11e09060240160206040518083038186803b15801561054057600080fd5b505afa158015610554573d6000803e3d6000fd5b505050506040513d601f19601f820116820180604052508101906105789190610d16565b156105ed57600080546003919061059190600190610cff565b81526020019081526020016000208483815181106105b1576105b1610ca0565b60209081029190910181015182546001810184556000938452919092200180546001600160a01b0319166001600160a01b039092169190911790555b50806105f881610ce4565b9150506104d1565b5060008054600390829061061690600190610cff565b8152602081019190915260400160002054111561070d57604080516060810182526000808252426020830152918101829052815460018082018455928052815160039091027f290decd9548b62a8d60345a988386fc84ba6bc95484008f6362f93160ef3e56301805492939092839160ff199091169083600281111561069e5761069e610bfe565b021790555060208201518160010155604082015181600201555050600060016000805490506106cd9190610cff565b90507ff5d5acf597a5f9d06a24389ebea67f576c74da4d4a73b97a5dfac2452acad6478160405161070091815260200190565b60405180910390a1505050565b6040517ffcbd3487c26964ed5d65d76f8314741d42e1a9339c11b68c074e2aec0eda792e90600090a15050565b60008181526003602090815260409182902080548351818402810184019094528084526060939283018282801561079a57602002820191906000526020600020905b81546001600160a01b0316815260019091019060200180831161077c575b50505050509050919050565b600081815481106107b657600080fd5b600091825260209091206003909102018054600182015460029092015460ff909116925083565b60008082815481106107f1576107f1610ca0565b9060005260206000209060030201600201549050919050565b6003602052816000526040600020818154811061082657600080fd5b6000918252602090912001546001600160a01b03169150829050565b6000805b81158015610855575060025481105b156108a957336001600160a01b03166002828154811061087757610877610ca0565b6000918252602090912001546001600160a01b0316141561089757600191505b806108a181610ce4565b915050610846565b50806108b457600080fd5b60008084815481106108c8576108c8610ca0565b600091825260209091206003909102015460ff1660028111156108ed576108ed610bfe565b1461093a5760405162461bcd60e51b815260206004820152601e60248201527f54686520766f74696e6720626c6f636b206973206e6f7420636c6f736564000060448201526064016102c7565b600082600281111561094e5761094e610bfe565b141561099c5760405162461bcd60e51b815260206004820181905260248201527f43616e206f6e6c7920636c6f7365206f722063616e63656c206120726f756e6460448201526064016102c7565b81600084815481106109b0576109b0610ca0565b60009182526020909120600390910201805460ff191660018360028111156109da576109da610bfe565b0217905550604080518481523360208201527f2a0641ef71e80039cddc7522d6459d2caef71d8dd8651c053a2700f2ac1769009101610700565b634e487b7160e01b600052604160045260246000fd5b80356001600160a01b0381168114610a4157600080fd5b919050565b600082601f830112610a5757600080fd5b8135602067ffffffffffffffff80831115610a7457610a74610a14565b8260051b604051601f19603f83011681018181108482111715610a9957610a99610a14565b604052938452858101830193838101925087851115610ab757600080fd5b83870191505b84821015610add57610ace82610a2a565b83529183019190830190610abd565b979650505050505050565b60008060408385031215610afb57600080fd5b82359150602083013567ffffffffffffffff811115610b1957600080fd5b610b2585828601610a46565b9150509250929050565b600060208284031215610b4157600080fd5b5035919050565b600060208284031215610b5a57600080fd5b813567ffffffffffffffff811115610b7157600080fd5b610b7d84828501610a46565b949350505050565b60008060408385031215610b9857600080fd5b82359150610ba860208401610a2a565b90509250929050565b6020808252825182820181905260009190848201906040850190845b81811015610bf25783516001600160a01b031683529284019291840191600101610bcd565b50909695505050505050565b634e487b7160e01b600052602160045260246000fd5b6060810160038510610c3657634e487b7160e01b600052602160045260246000fd5b938152602081019290925260409091015290565b60008060408385031215610c5d57600080fd5b50508035926020909101359150565b60008060408385031215610c7f57600080fd5b82359150602083013560038110610c9557600080fd5b809150509250929050565b634e487b7160e01b600052603260045260246000fd5b634e487b7160e01b600052601160045260246000fd5b60008219821115610cdf57610cdf610cb6565b500190565b6000600019821415610cf857610cf8610cb6565b5060010190565b600082821015610d1157610d11610cb6565b500390565b600060208284031215610d2857600080fd5b81518015158114610d3857600080fd5b939250505056fea264697066735822122024af752b415f8f24cc550ac11de063d4e87a8d7c37eb9dff1cdeb08875f3068264736f6c63430008090033608060405234801561001057600080fd5b506101af806100206000396000f3fe608060405234801561001057600080fd5b50600436106100365760003560e01c80635b3067551461003b5780636222dfb2146100df575b600080fd5b6100dd61004936600461012d565b604080518082019091526001600160a01b0392831681526020810191825260018054808201825560009190915290517fb10e2d527612073b26eecdfd717e6a320cf44b4afac2b0732d9fcbe2b7fa0cf6600290920291820180546001600160a01b0319169190941617909255517fb10e2d527612073b26eecdfd717e6a320cf44b4afac2b0732d9fcbe2b7fa0cf790910155565b005b6100ff6100ed366004610157565b60006020819052908152604090205481565b60405190815260200160405180910390f35b80356001600160a01b038116811461012857600080fd5b919050565b6000806040838503121561014057600080fd5b61014983610111565b946020939093013593505050565b60006020828403121561016957600080fd5b61017282610111565b939250505056fea2646970667358221220d1516347f6c28aa78e50df5caf58e2eba2f45cfe467cca6aefd1813f6aea952464736f6c63430008090033a2646970667358221220cb7c33de0c9c1be8c7f21889a5b847936fb327feb755f9821dab1eea62441e8f64736f6c63430008090033",
    "sourcePath": "c:/Users/ksilv/Github/Rhada/DApp/contracts/DAORegistry.sol",
    "compiler": {
        "name": "solc",
        "version": "0.8.9+commit.e5eed63a"
    },
    "functionHashes": {
        "addressToDAO(address)": "2bb5e412",
        "calculateSalaries(uint256,uint256)": "3b418149",
        "daoList(uint256)": "37dd27f8",
        "daoToAddress(uint256)": "1f0193e8",
        "owner()": "8da5cb5b",
        "register(uint8,uint256,bool,uint256)": "7de5b252",
        "renounceOwnership()": "715018a6",
        "transferOwnership(address)": "f2fde38b"
    },
    "gasEstimates": {
        "creation": {
            "codeDepositCost": "2337000",
            "executionCost": "28349",
            "totalCost": "2365349"
        },
        "external": {
            "addressToDAO(address)": "2536",
            "calculateSalaries(uint256,uint256)": "infinite",
            "daoList(uint256)": "11123",
            "daoToAddress(uint256)": "2467",
            "owner()": "2364",
            "register(uint8,uint256,bool,uint256)": "infinite",
            "renounceOwnership()": "28114",
            "transferOwnership(address)": "infinite"
        },
        "internal": {
            "_createPaymentStream(address,uint256)": "infinite"
        }
    }
}