{
    "contractName": "DAORegistry",
    "abi": [
        {
            "inputs": [],
            "stateMutability": "nonpayable",
            "type": "constructor"
        },
        {
            "anonymous": false,
            "inputs": [
                {
                    "indexed": false,
                    "internalType": "address",
                    "name": "parent",
                    "type": "address"
                }
            ],
            "name": "DaoRegistered",
            "type": "event"
        },
        {
            "anonymous": false,
            "inputs": [
                {
                    "indexed": true,
                    "internalType": "address",
                    "name": "previousOwner",
                    "type": "address"
                },
                {
                    "indexed": true,
                    "internalType": "address",
                    "name": "newOwner",
                    "type": "address"
                }
            ],
            "name": "OwnershipTransferred",
            "type": "event"
        },
        {
            "inputs": [
                {
                    "internalType": "address",
                    "name": "",
                    "type": "address"
                }
            ],
            "name": "addressToDAO",
            "outputs": [
                {
                    "internalType": "uint256",
                    "name": "",
                    "type": "uint256"
                }
            ],
            "stateMutability": "view",
            "type": "function"
        },
        {
            "inputs": [
                {
                    "internalType": "uint256",
                    "name": "daoID",
                    "type": "uint256"
                }
            ],
            "name": "calculateSalaries",
            "outputs": [],
            "stateMutability": "nonpayable",
            "type": "function"
        },
        {
            "inputs": [
                {
                    "internalType": "uint256",
                    "name": "",
                    "type": "uint256"
                }
            ],
            "name": "daoList",
            "outputs": [
                {
                    "internalType": "contract ContributorRegistry",
                    "name": "contributorRegistry",
                    "type": "address"
                },
                {
                    "internalType": "contract RoundManager",
                    "name": "roundManager",
                    "type": "address"
                },
                {
                    "internalType": "contract PaymentStream",
                    "name": "paymentStream",
                    "type": "address"
                },
                {
                    "internalType": "uint256",
                    "name": "salaryPerRound",
                    "type": "uint256"
                },
                {
                    "internalType": "uint256",
                    "name": "salaryPeriod",
                    "type": "uint256"
                }
            ],
            "stateMutability": "view",
            "type": "function"
        },
        {
            "inputs": [
                {
                    "internalType": "uint256",
                    "name": "",
                    "type": "uint256"
                }
            ],
            "name": "daoToAddress",
            "outputs": [
                {
                    "internalType": "address",
                    "name": "",
                    "type": "address"
                }
            ],
            "stateMutability": "view",
            "type": "function"
        },
        {
            "inputs": [
                {
                    "internalType": "address",
                    "name": "",
                    "type": "address"
                }
            ],
            "name": "hasSalary",
            "outputs": [
                {
                    "internalType": "bool",
                    "name": "",
                    "type": "bool"
                }
            ],
            "stateMutability": "view",
            "type": "function"
        },
        {
            "inputs": [],
            "name": "owner",
            "outputs": [
                {
                    "internalType": "address",
                    "name": "",
                    "type": "address"
                }
            ],
            "stateMutability": "view",
            "type": "function"
        },
        {
            "inputs": [
                {
                    "internalType": "uint8",
                    "name": "_requiredConfirmations",
                    "type": "uint8"
                },
                {
                    "internalType": "uint256",
                    "name": "_timePerRound",
                    "type": "uint256"
                },
                {
                    "internalType": "bool",
                    "name": "_timed",
                    "type": "bool"
                },
                {
                    "internalType": "uint256",
                    "name": "_salaryPerRound",
                    "type": "uint256"
                },
                {
                    "internalType": "uint256",
                    "name": "_salaryPeriod",
                    "type": "uint256"
                }
            ],
            "name": "register",
            "outputs": [],
            "stateMutability": "nonpayable",
            "type": "function"
        },
        {
            "inputs": [],
            "name": "renounceOwnership",
            "outputs": [],
            "stateMutability": "nonpayable",
            "type": "function"
        },
        {
            "inputs": [
                {
                    "internalType": "address",
                    "name": "newOwner",
                    "type": "address"
                }
            ],
            "name": "transferOwnership",
            "outputs": [],
            "stateMutability": "nonpayable",
            "type": "function"
        },
        {
            "inputs": [
                {
                    "internalType": "uint256",
                    "name": "",
                    "type": "uint256"
                },
                {
                    "internalType": "address",
                    "name": "",
                    "type": "address"
                }
            ],
            "name": "userPaidForRound",
            "outputs": [
                {
                    "internalType": "bool",
                    "name": "",
                    "type": "bool"
                }
            ],
            "stateMutability": "view",
            "type": "function"
        }
    ],
    "bytecode": "608060405234801561001057600080fd5b5061001a3361001f565b61006f565b600080546001600160a01b038381166001600160a01b0319831681178455604051919092169283917f8be0079c531659141344cd1fd0a4f28419497f9722a3daafe3b4186f6b6457e09190a35050565b61339a8061007e6000396000f3fe608060405234801561001057600080fd5b506004361061009e5760003560e01c8063821f119711610066578063821f1197146101805780638c8c33d7146101b35780638da5cb5b146101c6578063b71ddef4146101d7578063f2fde38b1461020557600080fd5b80631f0193e8146100a35780632bb5e412146100e957806337dd27f8146101175780635ad84f2d14610163578063715018a614610178575b600080fd5b6100cc6100b1366004610a35565b6003602052600090815260409020546001600160a01b031681565b6040516001600160a01b0390911681526020015b60405180910390f35b6101096100f7366004610a63565b60026020526000908152604090205481565b6040519081526020016100e0565b61012a610125366004610a35565b610218565b604080516001600160a01b039687168152948616602086015292909416918301919091526060820152608081019190915260a0016100e0565b610176610171366004610a87565b610267565b005b6101766103fd565b6101a361018e366004610a63565b60046020526000908152604090205460ff1681565b60405190151581526020016100e0565b6101766101c1366004610a35565b610468565b6000546001600160a01b03166100cc565b6101a36101e5366004610ae4565b600560209081526000928352604080842090915290825290205460ff1681565b610176610213366004610a63565b6107b8565b6001818154811061022857600080fd5b6000918252602090912060059091020180546001820154600283015460038401546004909401546001600160a01b039384169550918316939216919085565b60016040518060a001604052808760405161028190610a0e565b60ff9091168152602001604051809103906000f0801580156102a7573d6000803e3d6000fd5b506001600160a01b031681526020013387876040516102c590610a1b565b6001600160a01b039093168352602083019190915215156040820152606001604051809103906000f080158015610300573d6000803e3d6000fd5b506001600160a01b0316815260200160405161031b90610a28565b604051809103906000f080158015610337573d6000803e3d6000fd5b506001600160a01b03908116825260208083018790526040928301869052845460018082018755600096875295829020855160059092020180549184166001600160a01b03199283161781558583015196810180549785169783169790971790965584840151600287018054919094169116179091556060830151600385015560809092015160049093019290925590513381527f2ca9e488ac78ebfa678652f1302a8a9bb4b862f99edaeed689fb5df2621283c6910160405180910390a15050505050565b6000546001600160a01b0316331461045c5760405162461bcd60e51b815260206004820181905260248201527f4f776e61626c653a2063616c6c6572206973206e6f7420746865206f776e657260448201526064015b60405180910390fd5b6104666000610883565b565b60006001828154811061047d5761047d610b14565b6000918252602091829020600160059092020101546040805163066f022b60e11b815290516001600160a01b0390921692630cde045692600480840193829003018186803b1580156104ce57600080fd5b505afa1580156104e2573d6000803e3d6000fd5b505050506040513d601f19601f820116820180604052508101906105069190610b2a565b905060006001838154811061051d5761051d610b14565b6000918252602090912060059091020160010154604051639669cdbb60e01b8152600481018490526001600160a01b0390911690639669cdbb9060240160206040518083038186803b15801561057257600080fd5b505afa158015610586573d6000803e3d6000fd5b505050506040513d601f19601f820116820180604052508101906105aa9190610b2a565b90506000600184815481106105c1576105c1610b14565b600091825260209091206005909102016001015460405163130a010560e21b8152600481018590526001600160a01b0390911690634c2804149060240160006040518083038186803b15801561061657600080fd5b505afa15801561062a573d6000803e3d6000fd5b505050506040513d6000823e601f3d908101601f191682016040526106529190810190610b69565b905060005b81518110156107b157600082828151811061067457610674610b14565b6020026020010151905060006001878154811061069357610693610b14565b6000918252602090912060059091020160010154604051639a23648f60e01b8152600481018890526001600160a01b03848116602483015290911690639a23648f9060440160206040518083038186803b1580156106f057600080fd5b505afa158015610704573d6000803e3d6000fd5b505050506040513d601f19601f820116820180604052508101906107289190610b2a565b905060006107368683610c44565b610741906064610c66565b60008881526005602090815260408083206001600160a01b03881684528252808320805460ff19166001179055600490915290205490915060ff166107905761078b8884836108d3565b61079b565b61079b8884836109b1565b50505080806107a990610c85565b915050610657565b5050505050565b6000546001600160a01b031633146108125760405162461bcd60e51b815260206004820181905260248201527f4f776e61626c653a2063616c6c6572206973206e6f7420746865206f776e65726044820152606401610453565b6001600160a01b0381166108775760405162461bcd60e51b815260206004820152602660248201527f4f776e61626c653a206e6577206f776e657220697320746865207a65726f206160448201526564647265737360d01b6064820152608401610453565b61088081610883565b50565b600080546001600160a01b038381166001600160a01b0319831681178455604051919092169283917f8be0079c531659141344cd1fd0a4f28419497f9722a3daafe3b4186f6b6457e09190a35050565b600183815481106108e6576108e6610b14565b906000526020600020906005020160020160009054906101000a90046001600160a01b03166001600160a01b0316637a2c1e2d83836001878154811061092e5761092e610b14565b9060005260206000209060050201600401546040518463ffffffff1660e01b815260040161097a939291906001600160a01b039390931683526020830191909152604082015260600190565b600060405180830381600087803b15801561099457600080fd5b505af11580156109a8573d6000803e3d6000fd5b50505050505050565b600183815481106109c4576109c4610b14565b60009182526020909120600590910201600201546040516363f17c6d60e11b81526001600160a01b038481166004830152602482018490529091169063c7e2f8da9060440161097a565b61136b80610ca183390190565b6110b28061200c83390190565b6102a7806130be83390190565b600060208284031215610a4757600080fd5b5035919050565b6001600160a01b038116811461088057600080fd5b600060208284031215610a7557600080fd5b8135610a8081610a4e565b9392505050565b600080600080600060a08688031215610a9f57600080fd5b853560ff81168114610ab057600080fd5b94506020860135935060408601358015158114610acc57600080fd5b94979396509394606081013594506080013592915050565b60008060408385031215610af757600080fd5b823591506020830135610b0981610a4e565b809150509250929050565b634e487b7160e01b600052603260045260246000fd5b600060208284031215610b3c57600080fd5b5051919050565b634e487b7160e01b600052604160045260246000fd5b8051610b6481610a4e565b919050565b60006020808385031215610b7c57600080fd5b825167ffffffffffffffff80821115610b9457600080fd5b818501915085601f830112610ba857600080fd5b815181811115610bba57610bba610b43565b8060051b604051601f19603f83011681018181108582111715610bdf57610bdf610b43565b604052918252848201925083810185019188831115610bfd57600080fd5b938501935b82851015610c2257610c1385610b59565b84529385019392850192610c02565b98975050505050505050565b634e487b7160e01b600052601160045260246000fd5b600082610c6157634e487b7160e01b600052601260045260246000fd5b500490565b6000816000190483118215151615610c8057610c80610c2e565b500290565b6000600019821415610c9957610c99610c2e565b506001019056fe608060405234801561001057600080fd5b5060405161136b38038061136b83398101604081905261002f916100ab565b6100383361005b565b6000805460ff909216600160a01b0260ff60a01b199092169190911790556100d5565b600080546001600160a01b038381166001600160a01b0319831681178455604051919092169283917f8be0079c531659141344cd1fd0a4f28419497f9722a3daafe3b4186f6b6457e09190a35050565b6000602082840312156100bd57600080fd5b815160ff811681146100ce57600080fd5b9392505050565b611287806100e46000396000f3fe608060405234801561001057600080fd5b50600436106100a95760003560e01c806382e717f71161007157806382e717f71461011c5780638da5cb5b14610142578063be75e4d41461015d578063d25b11e014610172578063eb4dd8f214610195578063f2fde38b146101a857600080fd5b80631746e763146100ae5780631f6d4942146100c95780632ec2c246146100ec5780633ffbd47f14610101578063715018a614610114575b600080fd5b6100b66101bb565b6040519081526020015b60405180910390f35b6100dc6100d7366004610e59565b6101cc565b6040516100c09493929190610ef4565b6100ff6100fa366004610e59565b61030c565b005b6100ff61010f366004610ff4565b610485565b6100ff6106f6565b60005461013090600160a01b900460ff1681565b60405160ff90911681526020016100c0565b6000546040516001600160a01b0390911681526020016100c0565b61016561075c565b6040516100c09190611058565b610185610180366004610e59565b610768565b60405190151581526020016100c0565b6100ff6101a3366004610e59565b6107a0565b6100ff6101b6366004610e59565b610a7f565b60006101c76004610b4a565b905090565b6001602052600090815260409020805460028201805460ff80841694610100909404169291906101fb906110a5565b80601f0160208091040260200160405190810160405280929190818152602001828054610227906110a5565b80156102745780601f1061024957610100808354040283529160200191610274565b820191906000526020600020905b81548152906001019060200180831161025757829003601f168201915b505050505090806003018054610289906110a5565b80601f01602080910402602001604051908101604052809291908181526020018280546102b5906110a5565b80156103025780601f106102d757610100808354040283529160200191610302565b820191906000526020600020905b8154815290600101906020018083116102e557829003601f168201915b5050505050905084565b6000546001600160a01b031633146103765760405162461bcd60e51b815260206004820152602260248201527f4f6e6c79206f776e65722063616e2064656c65746520636f6e7472696275746f604482015261727360f01b60648201526084015b60405180910390fd5b6001600160a01b03811660009081526001602052604080822090519091906002906103a490828501906110e0565b908152604051908190036020018120805492151560ff19909316929092179091556000906003906103d890848301906110e0565b9081526040805160209281900383019020805460ff1916931515939093179092556001600160a01b03841660009081526001909152908120805461ffff19168155906104276002830182610d86565b610435600383016000610d86565b506104439050600483610b5a565b506040516001600160a01b03831681527f4803dcd528253b802a22997f7a3b15bcc6be53c1f2ba8f110aa26c25d652a68f906020015b60405180910390a15050565b3360009081526001602052604081205460ff1660028111156104a9576104a9610e82565b146104f65760405162461bcd60e51b815260206004820152601e60248201527f4163636f756e7420686173207265676973746572656420616c72656164790000604482015260640161036d565b600282604051610506919061117c565b9081526040519081900360200190205460ff16156105725760405162461bcd60e51b8152602060048201526024808201527f446973636f72642068616e646c6520697320616c726561647920726567697374604482015263195c995960e21b606482015260840161036d565b600381604051610582919061117c565b9081526040519081900360200190205460ff16156105f05760405162461bcd60e51b815260206004820152602560248201527f47697468756220757365726e616d6520697320616c72656164792072656769736044820152641d195c995960da1b606482015260840161036d565b6105fb600433610b76565b50600160028360405161060e919061117c565b9081526040805160209281900383019020805460ff1916931515939093179092553360009081526001825291909120835161065192600290920191850190610dc0565b506001600382604051610664919061117c565b9081526040805160209281900383019020805460ff191693151593909317909255336000908152600182529190912082516106a792600390920191840190610dc0565b5033600081815260016020819052604091829020805460ff19169091179055517f80788e6e1951532975ceb5ca698dfbf35d3a99bc9c440d8e1bb7301534ab72a2916104799185908590611198565b6000546001600160a01b031633146107505760405162461bcd60e51b815260206004820181905260248201527f4f776e61626c653a2063616c6c6572206973206e6f7420746865206f776e6572604482015260640161036d565b61075a6000610b8b565b565b60606101c76004610bdb565b600060026001600160a01b03831660009081526001602052604090205460ff16600281111561079957610799610e82565b1492915050565b60023360009081526001602052604090205460ff1660028111156107c6576107c6610e82565b14806107dc57506000546001600160a01b031633145b61084e5760405162461bcd60e51b815260206004820152603960248201527f566f7465722068617320746f206265206120636f6e6669726d656420636f6e7460448201527f72696275746f72206f7220636f6e7472616374206f776e657200000000000000606482015260840161036d565b6001600160a01b038116600090815260016020819052604090912090815460ff16600281111561088057610880610e82565b146108e05760405162461bcd60e51b815260206004820152602a60248201527f436f6e7472696275746f72206973206e6f7420696e20636f6e6669726d6174696044820152696f6e2070726f6365737360b01b606482015260840161036d565b33600090815260018201602052604090205460ff16156109535760405162461bcd60e51b815260206004820152602860248201527f566f74657220616c726561647920766f74656420666f72207468697320636f6e6044820152673a3934b13aba37b960c11b606482015260840161036d565b33600090815260018281016020526040909120805460ff1916821790558154610100900460ff16908290610986836111ee565b825461010092830a60ff8181021990921692821602919091179092558354604080516001600160a01b0388168152336020820152929091049092168183015290517fb56c0bae1f9656ed06cdfdd64813839cd5a6e652cce3338329f3c05e2ca953a192509081900360600190a16000548154600160a01b90910460ff90811661010090920416101580610a2357506000546001600160a01b031633145b15610a7b576002815460ff166002811115610a4057610a40610e82565b50506040516001600160a01b03831681527fd283121480f58b0265dcca9e40475738da2f7774691845bb2b65bb88778de69d90602001610479565b5050565b6000546001600160a01b03163314610ad95760405162461bcd60e51b815260206004820181905260248201527f4f776e61626c653a2063616c6c6572206973206e6f7420746865206f776e6572604482015260640161036d565b6001600160a01b038116610b3e5760405162461bcd60e51b815260206004820152602660248201527f4f776e61626c653a206e6577206f776e657220697320746865207a65726f206160448201526564647265737360d01b606482015260840161036d565b610b4781610b8b565b50565b6000610b54825490565b92915050565b6000610b6f836001600160a01b038416610be8565b9392505050565b6000610b6f836001600160a01b038416610cdb565b600080546001600160a01b038381166001600160a01b0319831681178455604051919092169283917f8be0079c531659141344cd1fd0a4f28419497f9722a3daafe3b4186f6b6457e09190a35050565b60606000610b6f83610d2a565b60008181526001830160205260408120548015610cd1576000610c0c60018361120e565b8554909150600090610c209060019061120e565b9050818114610c85576000866000018281548110610c4057610c40611225565b9060005260206000200154905080876000018481548110610c6357610c63611225565b6000918252602080832090910192909255918252600188019052604090208390555b8554869080610c9657610c9661123b565b600190038181906000526020600020016000905590558560010160008681526020019081526020016000206000905560019350505050610b54565b6000915050610b54565b6000818152600183016020526040812054610d2257508154600181810184556000848152602080822090930184905584548482528286019093526040902091909155610b54565b506000610b54565b606081600001805480602002602001604051908101604052809291908181526020018280548015610d7a57602002820191906000526020600020905b815481526020019060010190808311610d66575b50505050509050919050565b508054610d92906110a5565b6000825580601f10610da2575050565b601f016020900490600052602060002090810190610b479190610e44565b828054610dcc906110a5565b90600052602060002090601f016020900481019282610dee5760008555610e34565b82601f10610e0757805160ff1916838001178555610e34565b82800160010185558215610e34579182015b82811115610e34578251825591602001919060010190610e19565b50610e40929150610e44565b5090565b5b80821115610e405760008155600101610e45565b600060208284031215610e6b57600080fd5b81356001600160a01b0381168114610b6f57600080fd5b634e487b7160e01b600052602160045260246000fd5b60005b83811015610eb3578181015183820152602001610e9b565b83811115610ec2576000848401525b50505050565b60008151808452610ee0816020860160208601610e98565b601f01601f19169290920160200192915050565b600060038610610f1457634e487b7160e01b600052602160045260246000fd5b85825260ff8516602083015260806040830152610f346080830185610ec8565b8281036060840152610f468185610ec8565b979650505050505050565b634e487b7160e01b600052604160045260246000fd5b600082601f830112610f7857600080fd5b813567ffffffffffffffff80821115610f9357610f93610f51565b604051601f8301601f19908116603f01168101908282118183101715610fbb57610fbb610f51565b81604052838152866020858801011115610fd457600080fd5b836020870160208301376000602085830101528094505050505092915050565b6000806040838503121561100757600080fd5b823567ffffffffffffffff8082111561101f57600080fd5b61102b86838701610f67565b9350602085013591508082111561104157600080fd5b5061104e85828601610f67565b9150509250929050565b6020808252825182820181905260009190848201906040850190845b818110156110995783516001600160a01b031683529284019291840191600101611074565b50909695505050505050565b600181811c908216806110b957607f821691505b602082108114156110da57634e487b7160e01b600052602260045260246000fd5b50919050565b600080835481600182811c9150808316806110fc57607f831692505b602080841082141561111c57634e487b7160e01b86526022600452602486fd5b81801561113057600181146111415761116e565b60ff1986168952848901965061116e565b60008a81526020902060005b868110156111665781548b82015290850190830161114d565b505084890196505b509498975050505050505050565b6000825161118e818460208701610e98565b9190910192915050565b6001600160a01b03841681526060602082018190526000906111bc90830185610ec8565b82810360408401526111ce8185610ec8565b9695505050505050565b634e487b7160e01b600052601160045260246000fd5b600060ff821660ff811415611205576112056111d8565b60010192915050565b600082821015611220576112206111d8565b500390565b634e487b7160e01b600052603260045260246000fd5b634e487b7160e01b600052603160045260246000fdfea2646970667358221220d929fd948bc4e5180ebb4d5d77311eab33b05bc830158f6419f3ff2a38bb8d6464736f6c63430008090033608060405234801561001057600080fd5b506040516110b23803806110b283398101604081905261002f916100a0565b600180546001600160a01b039094166001600160a01b03199485161781556002805491820181556000527f405787fa12a823e0f2b7631cc41b3ba8828b3321ca811111fa75cd3aa3bb5ace01805490931633179092556007556008805491151560ff199092169190911790556100f4565b6000806000606084860312156100b557600080fd5b83516001600160a01b03811681146100cc57600080fd5b60208501516040860151919450925080151581146100e957600080fd5b809150509250925092565b610faf806101036000396000f3fe608060405234801561001057600080fd5b50600436106100ea5760003560e01c80637b1039991161008c5780639a23648f116100665780639a23648f14610218578063a0b412a614610243578063c89c1a8914610256578063e3af3b771461026957600080fd5b80637b103999146101d05780638c65c81f146101e35780639669cdbb1461020557600080fd5b806320b698b3116100c857806320b698b31461014a578063438596321461015d5780634c2804141461019b5780636984d070146101bb57600080fd5b80630cde0456146100ef57806310a93d951461010a57806314bfd6d01461011f575b600080fd5b6100f761029e565b6040519081526020015b60405180910390f35b61011d610118366004610c8d565b6102b3565b005b61013261012d366004610cd4565b61047e565b6040516001600160a01b039091168152602001610101565b61011d610158366004610ced565b6104a8565b61018b61016b366004610d2a565b600560209081526000928352604080842090915290825290205460ff1681565b6040519015158152602001610101565b6101ae6101a9366004610cd4565b61083f565b6040516101019190610d56565b6101c36108ab565b6040516101019190610ddb565b600154610132906001600160a01b031681565b6101f66101f1366004610cd4565b61094b565b60405161010193929190610e3b565b6100f7610213366004610cd4565b610982565b6100f7610226366004610d2a565b600460209081526000928352604080842090915290825290205481565b610132610251366004610e5a565b6109af565b61011d610264366004610e7c565b6109e7565b6100f7610277366004610eb0565b60009081526004602090815260408083206001600160a01b03949094168352929052205490565b600080546102ae90600190610ef0565b905090565b6000828152600560209081526040808320338452909152902054829060ff161580156102ed57503360009081526006602052604090205415155b6102f657600080fd5b826000806000838154811061030d5761030d610f07565b600091825260209091206003909102015460ff16600281111561033257610332610da3565b146103785760405162461bcd60e51b81526020600482015260116024820152702937bab7321034b9903737ba1037b832b760791b60448201526064015b60405180910390fd5b60008581526005602090815260408083203384529091528120805460ff191660011790555b845181101561043e57336000818152600660209081526040808320548a84526004835281842094845293909152812080549091906103dc908490610f1d565b90915550503360009081526006602052604081205481549091908890811061040657610406610f07565b906000526020600020906003020160020160008282546104269190610f1d565b9091555081905061043681610f35565b91505061039d565b50604080518681523360208201527ff1003b73c437642c0460aee9cd9628b0b8c447b66e6c7c905531b9c644214a11910160405180910390a15050505050565b6002818154811061048e57600080fd5b6000918252602090912001546001600160a01b0316905081565b6000805b811580156104bb575060025481105b1561050f57336001600160a01b0316600282815481106104dd576104dd610f07565b6000918252602090912001546001600160a01b031614156104fd57600191505b8061050781610f35565b9150506104ac565b508061051a57600080fd5b600054158061056d5750600080805461053590600190610ef0565b8154811061054557610545610f07565b600091825260209091206003909102015460ff16600281111561056a5761056a610da3565b14155b6105b95760405162461bcd60e51b815260206004820152601f60248201527f416c6c207072696f7220726f756e6473206d75737420626520636c6f73656400604482015260640161036f565b60005b82518110156106eb5760008382815181106105d9576105d9610f07565b6020908102919091010151600154604051630692d88f60e51b81526001600160a01b03808416600483015292935091169063d25b11e09060240160206040518083038186803b15801561062b57600080fd5b505afa15801561063f573d6000803e3d6000fd5b505050506040513d601f19601f820116820180604052508101906106639190610f50565b156106d857600080546003919061067c90600190610ef0565b815260200190815260200160002084838151811061069c5761069c610f07565b60209081029190910181015182546001810184556000938452919092200180546001600160a01b0319166001600160a01b039092169190911790555b50806106e381610f35565b9150506105bc565b5060008054600390829061070190600190610ef0565b81526020810191909152604001600020541161075f5760405162461bcd60e51b815260206004820152601a60248201527f5468657265206d75737420626520612076616c69642075736572000000000000604482015260640161036f565b604080516060810182526000808252426020830152918101829052815460018082018455928052815160039091027f290decd9548b62a8d60345a988386fc84ba6bc95484008f6362f93160ef3e56301805492939092839160ff19909116908360028111156107d0576107d0610da3565b021790555060208201518160010155604082015181600201555050600060016000805490506107ff9190610ef0565b90507ff5d5acf597a5f9d06a24389ebea67f576c74da4d4a73b97a5dfac2452acad6478160405161083291815260200190565b60405180910390a1505050565b60008181526003602090815260409182902080548351818402810184019094528084526060939283018282801561089f57602002820191906000526020600020905b81546001600160a01b03168152600190910190602001808311610881575b50505050509050919050565b60606000805480602002602001604051908101604052809291908181526020016000905b82821015610942576000848152602090206040805160608101909152600384029091018054829060ff16600281111561090a5761090a610da3565b600281111561091b5761091b610da3565b815260200160018201548152602001600282015481525050815260200190600101906108cf565b50505050905090565b6000818154811061095b57600080fd5b600091825260209091206003909102018054600182015460029092015460ff909116925083565b600080828154811061099657610996610f07565b9060005260206000209060030201600201549050919050565b600360205281600052604060002081815481106109cb57600080fd5b6000918252602090912001546001600160a01b03169150829050565b6000805b811580156109fa575060025481105b15610a4e57336001600160a01b031660028281548110610a1c57610a1c610f07565b6000918252602090912001546001600160a01b03161415610a3c57600191505b80610a4681610f35565b9150506109eb565b5080610a5957600080fd5b6000808481548110610a6d57610a6d610f07565b600091825260209091206003909102015460ff166002811115610a9257610a92610da3565b14610adf5760405162461bcd60e51b815260206004820152601e60248201527f54686520766f74696e6720626c6f636b206973206e6f7420636c6f7365640000604482015260640161036f565b6000826002811115610af357610af3610da3565b1415610b415760405162461bcd60e51b815260206004820181905260248201527f43616e206f6e6c7920636c6f7365206f722063616e63656c206120726f756e64604482015260640161036f565b8160008481548110610b5557610b55610f07565b60009182526020909120600390910201805460ff19166001836002811115610b7f57610b7f610da3565b0217905550604080518481523360208201527f2a0641ef71e80039cddc7522d6459d2caef71d8dd8651c053a2700f2ac1769009101610832565b634e487b7160e01b600052604160045260246000fd5b80356001600160a01b0381168114610be657600080fd5b919050565b600082601f830112610bfc57600080fd5b8135602067ffffffffffffffff80831115610c1957610c19610bb9565b8260051b604051601f19603f83011681018181108482111715610c3e57610c3e610bb9565b604052938452858101830193838101925087851115610c5c57600080fd5b83870191505b84821015610c8257610c7382610bcf565b83529183019190830190610c62565b979650505050505050565b60008060408385031215610ca057600080fd5b82359150602083013567ffffffffffffffff811115610cbe57600080fd5b610cca85828601610beb565b9150509250929050565b600060208284031215610ce657600080fd5b5035919050565b600060208284031215610cff57600080fd5b813567ffffffffffffffff811115610d1657600080fd5b610d2284828501610beb565b949350505050565b60008060408385031215610d3d57600080fd5b82359150610d4d60208401610bcf565b90509250929050565b6020808252825182820181905260009190848201906040850190845b81811015610d975783516001600160a01b031683529284019291840191600101610d72565b50909695505050505050565b634e487b7160e01b600052602160045260246000fd5b60038110610dd757634e487b7160e01b600052602160045260246000fd5b9052565b602080825282518282018190526000919060409081850190868401855b82811015610e2e578151610e0d858251610db9565b80870151858801528501518585015260609093019290850190600101610df8565b5091979650505050505050565b60608101610e498286610db9565b602082019390935260400152919050565b60008060408385031215610e6d57600080fd5b50508035926020909101359150565b60008060408385031215610e8f57600080fd5b82359150602083013560038110610ea557600080fd5b809150509250929050565b60008060408385031215610ec357600080fd5b610ecc83610bcf565b946020939093013593505050565b634e487b7160e01b600052601160045260246000fd5b600082821015610f0257610f02610eda565b500390565b634e487b7160e01b600052603260045260246000fd5b60008219821115610f3057610f30610eda565b500190565b6000600019821415610f4957610f49610eda565b5060010190565b600060208284031215610f6257600080fd5b81518015158114610f7257600080fd5b939250505056fea2646970667358221220b34d3ed5f6dfb79fa699d294220485e82a0804af0d8304bfa35224670f179d6c64736f6c63430008090033608060405234801561001057600080fd5b50610287806100206000396000f3fe608060405234801561001057600080fd5b50600436106100415760003560e01c80636222dfb2146100465780637a2c1e2d14610078578063c7e2f8da14610148575b600080fd5b6100666100543660046101bc565b60006020819052908152604090205481565b60405190815260200160405180910390f35b6101466100863660046101de565b604080516060810182526001600160a01b0394851681526020810193845290810191825260018054808201825560009190915290517fb10e2d527612073b26eecdfd717e6a320cf44b4afac2b0732d9fcbe2b7fa0cf6600390920291820180546001600160a01b031916919095161790935590517fb10e2d527612073b26eecdfd717e6a320cf44b4afac2b0732d9fcbe2b7fa0cf7830155517fb10e2d527612073b26eecdfd717e6a320cf44b4afac2b0732d9fcbe2b7fa0cf890910155565b005b610146610156366004610211565b6001600160a01b03821660009081526020819052604090205460018054839190839081106101865761018661023b565b906000526020600020906003020160010181905550505050565b80356001600160a01b03811681146101b757600080fd5b919050565b6000602082840312156101ce57600080fd5b6101d7826101a0565b9392505050565b6000806000606084860312156101f357600080fd5b6101fc846101a0565b95602085013595506040909401359392505050565b6000806040838503121561022457600080fd5b61022d836101a0565b946020939093013593505050565b634e487b7160e01b600052603260045260246000fdfea264697066735822122016379089cdbadefc510b6a811b905ee1d0b1c72168b0f06feaf788e43976845064736f6c63430008090033a2646970667358221220c8378833ff33271f01ee8c16057ae7656fb479a52b2fe6cbf8caeffe9a1378a864736f6c63430008090033",
    "sourcePath": "c:/Users/ksilv/Github/Rhada/DApp/contracts/DAORegistry.sol",
    "compiler": {
        "name": "solc",
        "version": "0.8.9+commit.e5eed63a"
    },
    "functionHashes": {
        "addressToDAO(address)": "2bb5e412",
        "calculateSalaries(uint256)": "8c8c33d7",
        "daoList(uint256)": "37dd27f8",
        "daoToAddress(uint256)": "1f0193e8",
        "hasSalary(address)": "821f1197",
        "owner()": "8da5cb5b",
        "register(uint8,uint256,bool,uint256,uint256)": "5ad84f2d",
        "renounceOwnership()": "715018a6",
        "transferOwnership(address)": "f2fde38b",
        "userPaidForRound(uint256,address)": "b71ddef4"
    },
    "gasEstimates": {
        "creation": {
            "codeDepositCost": "2642000",
            "executionCost": "28703",
            "totalCost": "2670703"
        },
        "external": {
            "addressToDAO(address)": "2536",
            "calculateSalaries(uint256)": "infinite",
            "daoList(uint256)": "13247",
            "daoToAddress(uint256)": "2467",
            "hasSalary(address)": "2525",
            "owner()": "2364",
            "register(uint8,uint256,bool,uint256,uint256)": "infinite",
            "renounceOwnership()": "28203",
            "transferOwnership(address)": "infinite",
            "userPaidForRound(uint256,address)": "2694"
        },
        "internal": {
            "_adjustPaymentStream(uint256,address,uint256)": "infinite",
            "_createPaymentStream(uint256,address,uint256)": "infinite"
        }
    }
}