{
    "contractName": "DAORegistry",
    "abi": [
        {
            "inputs": [],
            "stateMutability": "nonpayable",
            "type": "constructor"
        },
        {
            "anonymous": false,
            "inputs": [
                {
                    "indexed": false,
                    "internalType": "address",
                    "name": "parent",
                    "type": "address"
                }
            ],
            "name": "DaoRegistered",
            "type": "event"
        },
        {
            "anonymous": false,
            "inputs": [
                {
                    "indexed": true,
                    "internalType": "address",
                    "name": "previousOwner",
                    "type": "address"
                },
                {
                    "indexed": true,
                    "internalType": "address",
                    "name": "newOwner",
                    "type": "address"
                }
            ],
            "name": "OwnershipTransferred",
            "type": "event"
        },
        {
            "inputs": [
                {
                    "internalType": "address",
                    "name": "",
                    "type": "address"
                }
            ],
            "name": "addressToDAO",
            "outputs": [
                {
                    "internalType": "uint256",
                    "name": "",
                    "type": "uint256"
                }
            ],
            "stateMutability": "view",
            "type": "function"
        },
        {
            "inputs": [
                {
                    "internalType": "uint256",
                    "name": "",
                    "type": "uint256"
                }
            ],
            "name": "daoList",
            "outputs": [
                {
                    "internalType": "contract ContributorRegistry",
                    "name": "contributorRegistry",
                    "type": "address"
                },
                {
                    "internalType": "contract RoundManager",
                    "name": "roundManager",
                    "type": "address"
                },
                {
                    "internalType": "contract PaymentStream",
                    "name": "paymentStream",
                    "type": "address"
                }
            ],
            "stateMutability": "view",
            "type": "function"
        },
        {
            "inputs": [
                {
                    "internalType": "uint256",
                    "name": "",
                    "type": "uint256"
                }
            ],
            "name": "daoToAddress",
            "outputs": [
                {
                    "internalType": "address",
                    "name": "",
                    "type": "address"
                }
            ],
            "stateMutability": "view",
            "type": "function"
        },
        {
            "inputs": [],
            "name": "owner",
            "outputs": [
                {
                    "internalType": "address",
                    "name": "",
                    "type": "address"
                }
            ],
            "stateMutability": "view",
            "type": "function"
        },
        {
            "inputs": [
                {
                    "internalType": "uint8",
                    "name": "_requiredConfirmations",
                    "type": "uint8"
                },
                {
                    "internalType": "uint256",
                    "name": "_timePerRound",
                    "type": "uint256"
                },
                {
                    "internalType": "bool",
                    "name": "_timed",
                    "type": "bool"
                }
            ],
            "name": "register",
            "outputs": [],
            "stateMutability": "nonpayable",
            "type": "function"
        },
        {
            "inputs": [],
            "name": "renounceOwnership",
            "outputs": [],
            "stateMutability": "nonpayable",
            "type": "function"
        },
        {
            "inputs": [
                {
                    "internalType": "address",
                    "name": "newOwner",
                    "type": "address"
                }
            ],
            "name": "transferOwnership",
            "outputs": [],
            "stateMutability": "nonpayable",
            "type": "function"
        }
    ],
    "bytecode": "608060405234801561001057600080fd5b5061001a3361001f565b61006f565b600080546001600160a01b038381166001600160a01b0319831681178455604051919092169283917f8be0079c531659141344cd1fd0a4f28419497f9722a3daafe3b4186f6b6457e09190a35050565b6127b88061007e6000396000f3fe608060405234801561001057600080fd5b506004361061007d5760003560e01c806337dd27f81161005b57806337dd27f81461010b578063715018a6146101485780638da5cb5b14610150578063f2fde38b1461016157600080fd5b80630c194802146100825780631f0193e8146100975780632bb5e412146100dd575b600080fd5b6100956100903660046104d2565b610174565b005b6100c06100a536600461051f565b6003602052600090815260409020546001600160a01b031681565b6040516001600160a01b0390911681526020015b60405180910390f35b6100fd6100eb366004610538565b60026020526000908152604090205481565b6040519081526020016100d4565b61011e61011936600461051f565b6102e3565b604080516001600160a01b03948516815292841660208401529216918101919091526060016100d4565b610095610325565b6000546001600160a01b03166100c0565b61009561016f366004610538565b610390565b600160405180606001604052808560405161018e906104ab565b60ff9091168152602001604051809103906000f0801580156101b4573d6000803e3d6000fd5b506001600160a01b031681526020013385856040516101d2906104b8565b6001600160a01b039093168352602083019190915215156040820152606001604051809103906000f08015801561020d573d6000803e3d6000fd5b506001600160a01b03168152602001604051610228906104c5565b604051809103906000f080158015610244573d6000803e3d6000fd5b506001600160a01b039081169091528254600180820185556000948552602094859020845160039093020180549284166001600160a01b03199384161781558486015191810180549285169284169290921790915560409384015160029091018054919093169116179055513381527f2ca9e488ac78ebfa678652f1302a8a9bb4b862f99edaeed689fb5df2621283c6910160405180910390a1505050565b600181815481106102f357600080fd5b60009182526020909120600390910201805460018201546002909201546001600160a01b039182169350918116911683565b6000546001600160a01b031633146103845760405162461bcd60e51b815260206004820181905260248201527f4f776e61626c653a2063616c6c6572206973206e6f7420746865206f776e657260448201526064015b60405180910390fd5b61038e600061045b565b565b6000546001600160a01b031633146103ea5760405162461bcd60e51b815260206004820181905260248201527f4f776e61626c653a2063616c6c6572206973206e6f7420746865206f776e6572604482015260640161037b565b6001600160a01b03811661044f5760405162461bcd60e51b815260206004820152602660248201527f4f776e61626c653a206e6577206f776e657220697320746865207a65726f206160448201526564647265737360d01b606482015260840161037b565b6104588161045b565b50565b600080546001600160a01b038381166001600160a01b0319831681178455604051919092169283917f8be0079c531659141344cd1fd0a4f28419497f9722a3daafe3b4186f6b6457e09190a35050565b61136b8061056983390190565b610ce0806118d483390190565b6101cf806125b483390190565b6000806000606084860312156104e757600080fd5b833560ff811681146104f857600080fd5b9250602084013591506040840135801515811461051457600080fd5b809150509250925092565b60006020828403121561053157600080fd5b5035919050565b60006020828403121561054a57600080fd5b81356001600160a01b038116811461056157600080fd5b939250505056fe608060405234801561001057600080fd5b5060405161136b38038061136b83398101604081905261002f916100ab565b6100383361005b565b6000805460ff909216600160a01b0260ff60a01b199092169190911790556100d5565b600080546001600160a01b038381166001600160a01b0319831681178455604051919092169283917f8be0079c531659141344cd1fd0a4f28419497f9722a3daafe3b4186f6b6457e09190a35050565b6000602082840312156100bd57600080fd5b815160ff811681146100ce57600080fd5b9392505050565b611287806100e46000396000f3fe608060405234801561001057600080fd5b50600436106100a95760003560e01c806382e717f71161007157806382e717f71461011c5780638da5cb5b14610142578063be75e4d41461015d578063d25b11e014610172578063eb4dd8f214610195578063f2fde38b146101a857600080fd5b80631746e763146100ae5780631f6d4942146100c95780632ec2c246146100ec5780633ffbd47f14610101578063715018a614610114575b600080fd5b6100b66101bb565b6040519081526020015b60405180910390f35b6100dc6100d7366004610e59565b6101cc565b6040516100c09493929190610ef4565b6100ff6100fa366004610e59565b61030c565b005b6100ff61010f366004610ff4565b610485565b6100ff6106f6565b60005461013090600160a01b900460ff1681565b60405160ff90911681526020016100c0565b6000546040516001600160a01b0390911681526020016100c0565b61016561075c565b6040516100c09190611058565b610185610180366004610e59565b610768565b60405190151581526020016100c0565b6100ff6101a3366004610e59565b6107a0565b6100ff6101b6366004610e59565b610a7f565b60006101c76004610b4a565b905090565b6001602052600090815260409020805460028201805460ff80841694610100909404169291906101fb906110a5565b80601f0160208091040260200160405190810160405280929190818152602001828054610227906110a5565b80156102745780601f1061024957610100808354040283529160200191610274565b820191906000526020600020905b81548152906001019060200180831161025757829003601f168201915b505050505090806003018054610289906110a5565b80601f01602080910402602001604051908101604052809291908181526020018280546102b5906110a5565b80156103025780601f106102d757610100808354040283529160200191610302565b820191906000526020600020905b8154815290600101906020018083116102e557829003601f168201915b5050505050905084565b6000546001600160a01b031633146103765760405162461bcd60e51b815260206004820152602260248201527f4f6e6c79206f776e65722063616e2064656c65746520636f6e7472696275746f604482015261727360f01b60648201526084015b60405180910390fd5b6001600160a01b03811660009081526001602052604080822090519091906002906103a490828501906110e0565b908152604051908190036020018120805492151560ff19909316929092179091556000906003906103d890848301906110e0565b9081526040805160209281900383019020805460ff1916931515939093179092556001600160a01b03841660009081526001909152908120805461ffff19168155906104276002830182610d86565b610435600383016000610d86565b506104439050600483610b5a565b506040516001600160a01b03831681527f4803dcd528253b802a22997f7a3b15bcc6be53c1f2ba8f110aa26c25d652a68f906020015b60405180910390a15050565b3360009081526001602052604081205460ff1660028111156104a9576104a9610e82565b146104f65760405162461bcd60e51b815260206004820152601e60248201527f4163636f756e7420686173207265676973746572656420616c72656164790000604482015260640161036d565b600282604051610506919061117c565b9081526040519081900360200190205460ff16156105725760405162461bcd60e51b8152602060048201526024808201527f446973636f72642068616e646c6520697320616c726561647920726567697374604482015263195c995960e21b606482015260840161036d565b600381604051610582919061117c565b9081526040519081900360200190205460ff16156105f05760405162461bcd60e51b815260206004820152602560248201527f47697468756220757365726e616d6520697320616c72656164792072656769736044820152641d195c995960da1b606482015260840161036d565b6105fb600433610b76565b50600160028360405161060e919061117c565b9081526040805160209281900383019020805460ff1916931515939093179092553360009081526001825291909120835161065192600290920191850190610dc0565b506001600382604051610664919061117c565b9081526040805160209281900383019020805460ff191693151593909317909255336000908152600182529190912082516106a792600390920191840190610dc0565b5033600081815260016020819052604091829020805460ff19169091179055517f80788e6e1951532975ceb5ca698dfbf35d3a99bc9c440d8e1bb7301534ab72a2916104799185908590611198565b6000546001600160a01b031633146107505760405162461bcd60e51b815260206004820181905260248201527f4f776e61626c653a2063616c6c6572206973206e6f7420746865206f776e6572604482015260640161036d565b61075a6000610b8b565b565b60606101c76004610bdb565b600060026001600160a01b03831660009081526001602052604090205460ff16600281111561079957610799610e82565b1492915050565b60023360009081526001602052604090205460ff1660028111156107c6576107c6610e82565b14806107dc57506000546001600160a01b031633145b61084e5760405162461bcd60e51b815260206004820152603960248201527f566f7465722068617320746f206265206120636f6e6669726d656420636f6e7460448201527f72696275746f72206f7220636f6e7472616374206f776e657200000000000000606482015260840161036d565b6001600160a01b038116600090815260016020819052604090912090815460ff16600281111561088057610880610e82565b146108e05760405162461bcd60e51b815260206004820152602a60248201527f436f6e7472696275746f72206973206e6f7420696e20636f6e6669726d6174696044820152696f6e2070726f6365737360b01b606482015260840161036d565b33600090815260018201602052604090205460ff16156109535760405162461bcd60e51b815260206004820152602860248201527f566f74657220616c726561647920766f74656420666f72207468697320636f6e6044820152673a3934b13aba37b960c11b606482015260840161036d565b33600090815260018281016020526040909120805460ff1916821790558154610100900460ff16908290610986836111ee565b825461010092830a60ff8181021990921692821602919091179092558354604080516001600160a01b0388168152336020820152929091049092168183015290517fb56c0bae1f9656ed06cdfdd64813839cd5a6e652cce3338329f3c05e2ca953a192509081900360600190a16000548154600160a01b90910460ff90811661010090920416101580610a2357506000546001600160a01b031633145b15610a7b576002815460ff166002811115610a4057610a40610e82565b50506040516001600160a01b03831681527fd283121480f58b0265dcca9e40475738da2f7774691845bb2b65bb88778de69d90602001610479565b5050565b6000546001600160a01b03163314610ad95760405162461bcd60e51b815260206004820181905260248201527f4f776e61626c653a2063616c6c6572206973206e6f7420746865206f776e6572604482015260640161036d565b6001600160a01b038116610b3e5760405162461bcd60e51b815260206004820152602660248201527f4f776e61626c653a206e6577206f776e657220697320746865207a65726f206160448201526564647265737360d01b606482015260840161036d565b610b4781610b8b565b50565b6000610b54825490565b92915050565b6000610b6f836001600160a01b038416610be8565b9392505050565b6000610b6f836001600160a01b038416610cdb565b600080546001600160a01b038381166001600160a01b0319831681178455604051919092169283917f8be0079c531659141344cd1fd0a4f28419497f9722a3daafe3b4186f6b6457e09190a35050565b60606000610b6f83610d2a565b60008181526001830160205260408120548015610cd1576000610c0c60018361120e565b8554909150600090610c209060019061120e565b9050818114610c85576000866000018281548110610c4057610c40611225565b9060005260206000200154905080876000018481548110610c6357610c63611225565b6000918252602080832090910192909255918252600188019052604090208390555b8554869080610c9657610c9661123b565b600190038181906000526020600020016000905590558560010160008681526020019081526020016000206000905560019350505050610b54565b6000915050610b54565b6000818152600183016020526040812054610d2257508154600181810184556000848152602080822090930184905584548482528286019093526040902091909155610b54565b506000610b54565b606081600001805480602002602001604051908101604052809291908181526020018280548015610d7a57602002820191906000526020600020905b815481526020019060010190808311610d66575b50505050509050919050565b508054610d92906110a5565b6000825580601f10610da2575050565b601f016020900490600052602060002090810190610b479190610e44565b828054610dcc906110a5565b90600052602060002090601f016020900481019282610dee5760008555610e34565b82601f10610e0757805160ff1916838001178555610e34565b82800160010185558215610e34579182015b82811115610e34578251825591602001919060010190610e19565b50610e40929150610e44565b5090565b5b80821115610e405760008155600101610e45565b600060208284031215610e6b57600080fd5b81356001600160a01b0381168114610b6f57600080fd5b634e487b7160e01b600052602160045260246000fd5b60005b83811015610eb3578181015183820152602001610e9b565b83811115610ec2576000848401525b50505050565b60008151808452610ee0816020860160208601610e98565b601f01601f19169290920160200192915050565b600060038610610f1457634e487b7160e01b600052602160045260246000fd5b85825260ff8516602083015260806040830152610f346080830185610ec8565b8281036060840152610f468185610ec8565b979650505050505050565b634e487b7160e01b600052604160045260246000fd5b600082601f830112610f7857600080fd5b813567ffffffffffffffff80821115610f9357610f93610f51565b604051601f8301601f19908116603f01168101908282118183101715610fbb57610fbb610f51565b81604052838152866020858801011115610fd457600080fd5b836020870160208301376000602085830101528094505050505092915050565b6000806040838503121561100757600080fd5b823567ffffffffffffffff8082111561101f57600080fd5b61102b86838701610f67565b9350602085013591508082111561104157600080fd5b5061104e85828601610f67565b9150509250929050565b6020808252825182820181905260009190848201906040850190845b818110156110995783516001600160a01b031683529284019291840191600101611074565b50909695505050505050565b600181811c908216806110b957607f821691505b602082108114156110da57634e487b7160e01b600052602260045260246000fd5b50919050565b600080835481600182811c9150808316806110fc57607f831692505b602080841082141561111c57634e487b7160e01b86526022600452602486fd5b81801561113057600181146111415761116e565b60ff1986168952848901965061116e565b60008a81526020902060005b868110156111665781548b82015290850190830161114d565b505084890196505b509498975050505050505050565b6000825161118e818460208701610e98565b9190910192915050565b6001600160a01b03841681526060602082018190526000906111bc90830185610ec8565b82810360408401526111ce8185610ec8565b9695505050505050565b634e487b7160e01b600052601160045260246000fd5b600060ff821660ff811415611205576112056111d8565b60010192915050565b600082821015611220576112206111d8565b500390565b634e487b7160e01b600052603260045260246000fd5b634e487b7160e01b600052603160045260246000fdfea2646970667358221220d929fd948bc4e5180ebb4d5d77311eab33b05bc830158f6419f3ff2a38bb8d6464736f6c63430008090033608060405234801561001057600080fd5b50604051610ce0380380610ce083398101604081905261002f916100a0565b600180546001600160a01b039094166001600160a01b03199485161781556002805491820181556000527f405787fa12a823e0f2b7631cc41b3ba8828b3321ca811111fa75cd3aa3bb5ace01805490931633179092556007556008805491151560ff199092169190911790556100f4565b6000806000606084860312156100b557600080fd5b83516001600160a01b03811681146100cc57600080fd5b60208501516040860151919450925080151581146100e957600080fd5b809150509250925092565b610bdd806101036000396000f3fe608060405234801561001057600080fd5b50600436106100935760003560e01c80637b103999116100665780637b1039991461012e5780638c65c81f146101415780639a23648f14610162578063a0b412a61461019b578063c89c1a89146101ae57600080fd5b806310a93d951461009857806314bfd6d0146100ad57806320b698b3146100dd57806343859632146100f0575b600080fd5b6100ab6100a63660046109a7565b6101c1565b005b6100c06100bb3660046109ee565b610341565b6040516001600160a01b0390911681526020015b60405180910390f35b6100ab6100eb366004610a07565b61036b565b61011e6100fe366004610a44565b600560209081526000928352604080842090915290825290205460ff1681565b60405190151581526020016100d4565b6001546100c0906001600160a01b031681565b61015461014f3660046109ee565b610690565b6040516100d4929190610a86565b61018d610170366004610a44565b600460209081526000928352604080842090915290825290205481565b6040519081526020016100d4565b6100c06101a9366004610ab2565b6106c2565b6100ab6101bc366004610ad4565b6106fa565b6000828152600560209081526040808320338452909152902054829060ff161580156101fb57503360009081526006602052604090205415155b61020457600080fd5b826000806000838154811061021b5761021b610b08565b600091825260209091206002918202015460ff169081111561023f5761023f610a70565b146102855760405162461bcd60e51b81526020600482015260116024820152702937bab7321034b9903737ba1037b832b760791b60448201526064015b60405180910390fd5b60008581526005602090815260408083203384529091528120805460ff191660011790555b845181101561030157336000818152600660209081526040808320548a84526004835281842094845293909152812080549091906102e9908490610b34565b909155508190506102f981610b4c565b9150506102aa565b50604080518681523360208201527ff1003b73c437642c0460aee9cd9628b0b8c447b66e6c7c905531b9c644214a11910160405180910390a15050505050565b6002818154811061035157600080fd5b6000918252602090912001546001600160a01b0316905081565b6000805b8115801561037e575060025481105b156103d257336001600160a01b0316600282815481106103a0576103a0610b08565b6000918252602090912001546001600160a01b031614156103c057600191505b806103ca81610b4c565b91505061036f565b50806103dd57600080fd5b600054158061042f575060008080546103f890600190610b67565b8154811061040857610408610b08565b600091825260209091206002918202015460ff169081111561042c5761042c610a70565b14155b61043857600080fd5b60005b825181101561056a57600083828151811061045857610458610b08565b6020908102919091010151600154604051630692d88f60e51b81526001600160a01b03808416600483015292935091169063d25b11e09060240160206040518083038186803b1580156104aa57600080fd5b505afa1580156104be573d6000803e3d6000fd5b505050506040513d601f19601f820116820180604052508101906104e29190610b7e565b156105575760008054600391906104fb90600190610b67565b815260200190815260200160002084838151811061051b5761051b610b08565b60209081029190910181015182546001810184556000938452919092200180546001600160a01b0319166001600160a01b039092169190911790555b508061056281610b4c565b91505061043b565b5060008054600390829061058090600190610b67565b8152602081019190915260400160002054111561066357604080518082019091526000808252426020830152805460018082018355918052825160029182027f290decd9548b62a8d60345a988386fc84ba6bc95484008f6362f93160ef3e56301805490939192849260ff199092169190849081111561060257610602610a70565b02179055506020919091015160019182015560008054909161062391610b67565b90507ff5d5acf597a5f9d06a24389ebea67f576c74da4d4a73b97a5dfac2452acad6478160405161065691815260200190565b60405180910390a1505050565b6040517ffcbd3487c26964ed5d65d76f8314741d42e1a9339c11b68c074e2aec0eda792e90600090a15050565b600081815481106106a057600080fd5b60009182526020909120600290910201805460019091015460ff909116915082565b600360205281600052604060002081815481106106de57600080fd5b6000918252602090912001546001600160a01b03169150829050565b6000805b8115801561070d575060025481105b1561076157336001600160a01b03166002828154811061072f5761072f610b08565b6000918252602090912001546001600160a01b0316141561074f57600191505b8061075981610b4c565b9150506106fe565b508061076c57600080fd5b600080848154811061078057610780610b08565b600091825260209091206002918202015460ff16908111156107a4576107a4610a70565b146107f15760405162461bcd60e51b815260206004820152601e60248201527f54686520766f74696e6720626c6f636b206973206e6f7420636c6f7365640000604482015260640161027c565b600082600281111561080557610805610a70565b14156108535760405162461bcd60e51b815260206004820181905260248201527f43616e206f6e6c7920636c6f7365206f722063616e63656c206120726f756e64604482015260640161027c565b816000848154811061086757610867610b08565b906000526020600020906002020160000160006101000a81548160ff0219169083600281111561089957610899610a70565b0217905550604080518481523360208201527f2a0641ef71e80039cddc7522d6459d2caef71d8dd8651c053a2700f2ac1769009101610656565b634e487b7160e01b600052604160045260246000fd5b80356001600160a01b038116811461090057600080fd5b919050565b600082601f83011261091657600080fd5b8135602067ffffffffffffffff80831115610933576109336108d3565b8260051b604051601f19603f83011681018181108482111715610958576109586108d3565b60405293845285810183019383810192508785111561097657600080fd5b83870191505b8482101561099c5761098d826108e9565b8352918301919083019061097c565b979650505050505050565b600080604083850312156109ba57600080fd5b82359150602083013567ffffffffffffffff8111156109d857600080fd5b6109e485828601610905565b9150509250929050565b600060208284031215610a0057600080fd5b5035919050565b600060208284031215610a1957600080fd5b813567ffffffffffffffff811115610a3057600080fd5b610a3c84828501610905565b949350505050565b60008060408385031215610a5757600080fd5b82359150610a67602084016108e9565b90509250929050565b634e487b7160e01b600052602160045260246000fd5b6040810160038410610aa857634e487b7160e01b600052602160045260246000fd5b9281526020015290565b60008060408385031215610ac557600080fd5b50508035926020909101359150565b60008060408385031215610ae757600080fd5b82359150602083013560038110610afd57600080fd5b809150509250929050565b634e487b7160e01b600052603260045260246000fd5b634e487b7160e01b600052601160045260246000fd5b60008219821115610b4757610b47610b1e565b500190565b6000600019821415610b6057610b60610b1e565b5060010190565b600082821015610b7957610b79610b1e565b500390565b600060208284031215610b9057600080fd5b81518015158114610ba057600080fd5b939250505056fea2646970667358221220d98c5d0e29a2d79e1db7a803f86c6691bb5607bd00d1b9eea421f06f486637f464736f6c63430008090033608060405234801561001057600080fd5b506101af806100206000396000f3fe608060405234801561001057600080fd5b50600436106100365760003560e01c80635b3067551461003b5780636222dfb2146100df575b600080fd5b6100dd61004936600461012d565b604080518082019091526001600160a01b0392831681526020810191825260018054808201825560009190915290517fb10e2d527612073b26eecdfd717e6a320cf44b4afac2b0732d9fcbe2b7fa0cf6600290920291820180546001600160a01b0319169190941617909255517fb10e2d527612073b26eecdfd717e6a320cf44b4afac2b0732d9fcbe2b7fa0cf790910155565b005b6100ff6100ed366004610157565b60006020819052908152604090205481565b60405190815260200160405180910390f35b80356001600160a01b038116811461012857600080fd5b919050565b6000806040838503121561014057600080fd5b61014983610111565b946020939093013593505050565b60006020828403121561016957600080fd5b61017282610111565b939250505056fea2646970667358221220d1516347f6c28aa78e50df5caf58e2eba2f45cfe467cca6aefd1813f6aea952464736f6c63430008090033a2646970667358221220a0a6339a02ac2c678419dc48f082709a4345f1831bd1e865d9b78da366be554b64736f6c63430008090033",
    "sourcePath": "c:/Users/ksilv/Github/Rhada/DApp/contracts/DAORegistry.sol",
    "compiler": {
        "name": "solc",
        "version": "0.8.9+commit.e5eed63a"
    },
    "functionHashes": {
        "addressToDAO(address)": "2bb5e412",
        "daoList(uint256)": "37dd27f8",
        "daoToAddress(uint256)": "1f0193e8",
        "owner()": "8da5cb5b",
        "register(uint8,uint256,bool)": "0c194802",
        "renounceOwnership()": "715018a6",
        "transferOwnership(address)": "f2fde38b"
    },
    "gasEstimates": {
        "creation": {
            "codeDepositCost": "2033600",
            "executionCost": "27997",
            "totalCost": "2061597"
        },
        "external": {
            "addressToDAO(address)": "2529",
            "daoList(uint256)": "8930",
            "daoToAddress(uint256)": "2489",
            "owner()": "2364",
            "register(uint8,uint256,bool)": "infinite",
            "renounceOwnership()": "28136",
            "transferOwnership(address)": "28340"
        }
    }
}