{
    "contractName": "RoundManager",
    "abi": [
        {
            "inputs": [
                {
                    "internalType": "address",
                    "name": "registryAddress",
                    "type": "address"
                },
                {
                    "internalType": "uint256",
                    "name": "_timePerRound",
                    "type": "uint256"
                },
                {
                    "internalType": "bool",
                    "name": "_timed",
                    "type": "bool"
                }
            ],
            "stateMutability": "nonpayable",
            "type": "constructor"
        },
        {
            "anonymous": false,
            "inputs": [
                {
                    "indexed": false,
                    "internalType": "uint256",
                    "name": "roundID",
                    "type": "uint256"
                },
                {
                    "indexed": false,
                    "internalType": "address",
                    "name": "closedBy",
                    "type": "address"
                }
            ],
            "name": "RoundClosed",
            "type": "event"
        },
        {
            "anonymous": false,
            "inputs": [],
            "name": "RoundOpenFailed",
            "type": "event"
        },
        {
            "anonymous": false,
            "inputs": [
                {
                    "indexed": false,
                    "internalType": "uint256",
                    "name": "roundID",
                    "type": "uint256"
                }
            ],
            "name": "RoundOpened",
            "type": "event"
        },
        {
            "anonymous": false,
            "inputs": [
                {
                    "indexed": false,
                    "internalType": "uint256",
                    "name": "roundID",
                    "type": "uint256"
                },
                {
                    "indexed": false,
                    "internalType": "address",
                    "name": "voter",
                    "type": "address"
                }
            ],
            "name": "VoteCast",
            "type": "event"
        },
        {
            "inputs": [
                {
                    "internalType": "uint256",
                    "name": "",
                    "type": "uint256"
                }
            ],
            "name": "admins",
            "outputs": [
                {
                    "internalType": "address",
                    "name": "",
                    "type": "address"
                }
            ],
            "stateMutability": "view",
            "type": "function"
        },
        {
            "inputs": [
                {
                    "internalType": "uint256",
                    "name": "roundID",
                    "type": "uint256"
                },
                {
                    "internalType": "address[]",
                    "name": "_for",
                    "type": "address[]"
                }
            ],
            "name": "castVote",
            "outputs": [],
            "stateMutability": "nonpayable",
            "type": "function"
        },
        {
            "inputs": [
                {
                    "internalType": "uint256",
                    "name": "roundID",
                    "type": "uint256"
                },
                {
                    "internalType": "enum RoundManager.Status",
                    "name": "_newStatus",
                    "type": "uint8"
                }
            ],
            "name": "closeRound",
            "outputs": [],
            "stateMutability": "nonpayable",
            "type": "function"
        },
        {
            "inputs": [
                {
                    "internalType": "uint256",
                    "name": "",
                    "type": "uint256"
                },
                {
                    "internalType": "address",
                    "name": "",
                    "type": "address"
                }
            ],
            "name": "hasVoted",
            "outputs": [
                {
                    "internalType": "bool",
                    "name": "",
                    "type": "bool"
                }
            ],
            "stateMutability": "view",
            "type": "function"
        },
        {
            "inputs": [
                {
                    "internalType": "uint256",
                    "name": "",
                    "type": "uint256"
                },
                {
                    "internalType": "address",
                    "name": "",
                    "type": "address"
                }
            ],
            "name": "numVotes",
            "outputs": [
                {
                    "internalType": "uint256",
                    "name": "",
                    "type": "uint256"
                }
            ],
            "stateMutability": "view",
            "type": "function"
        },
        {
            "inputs": [
                {
                    "internalType": "address[]",
                    "name": "newUsers",
                    "type": "address[]"
                }
            ],
            "name": "openRound",
            "outputs": [],
            "stateMutability": "nonpayable",
            "type": "function"
        },
        {
            "inputs": [],
            "name": "registry",
            "outputs": [
                {
                    "internalType": "contract ContributorRegistry",
                    "name": "",
                    "type": "address"
                }
            ],
            "stateMutability": "view",
            "type": "function"
        },
        {
            "inputs": [
                {
                    "internalType": "uint256",
                    "name": "",
                    "type": "uint256"
                }
            ],
            "name": "rounds",
            "outputs": [
                {
                    "internalType": "enum RoundManager.Status",
                    "name": "status",
                    "type": "uint8"
                },
                {
                    "internalType": "uint256",
                    "name": "startTime",
                    "type": "uint256"
                }
            ],
            "stateMutability": "view",
            "type": "function"
        },
        {
            "inputs": [
                {
                    "internalType": "uint256",
                    "name": "",
                    "type": "uint256"
                },
                {
                    "internalType": "uint256",
                    "name": "",
                    "type": "uint256"
                }
            ],
            "name": "usersInRound",
            "outputs": [
                {
                    "internalType": "address",
                    "name": "",
                    "type": "address"
                }
            ],
            "stateMutability": "view",
            "type": "function"
        }
    ],
    "bytecode": "608060405234801561001057600080fd5b50604051610ce0380380610ce083398101604081905261002f916100a0565b600180546001600160a01b039094166001600160a01b03199485161781556002805491820181556000527f405787fa12a823e0f2b7631cc41b3ba8828b3321ca811111fa75cd3aa3bb5ace01805490931633179092556007556008805491151560ff199092169190911790556100f4565b6000806000606084860312156100b557600080fd5b83516001600160a01b03811681146100cc57600080fd5b60208501516040860151919450925080151581146100e957600080fd5b809150509250925092565b610bdd806101036000396000f3fe608060405234801561001057600080fd5b50600436106100935760003560e01c80637b103999116100665780637b1039991461012e5780638c65c81f146101415780639a23648f14610162578063a0b412a61461019b578063c89c1a89146101ae57600080fd5b806310a93d951461009857806314bfd6d0146100ad57806320b698b3146100dd57806343859632146100f0575b600080fd5b6100ab6100a63660046109a7565b6101c1565b005b6100c06100bb3660046109ee565b610341565b6040516001600160a01b0390911681526020015b60405180910390f35b6100ab6100eb366004610a07565b61036b565b61011e6100fe366004610a44565b600560209081526000928352604080842090915290825290205460ff1681565b60405190151581526020016100d4565b6001546100c0906001600160a01b031681565b61015461014f3660046109ee565b610690565b6040516100d4929190610a86565b61018d610170366004610a44565b600460209081526000928352604080842090915290825290205481565b6040519081526020016100d4565b6100c06101a9366004610ab2565b6106c2565b6100ab6101bc366004610ad4565b6106fa565b6000828152600560209081526040808320338452909152902054829060ff161580156101fb57503360009081526006602052604090205415155b61020457600080fd5b826000806000838154811061021b5761021b610b08565b600091825260209091206002918202015460ff169081111561023f5761023f610a70565b146102855760405162461bcd60e51b81526020600482015260116024820152702937bab7321034b9903737ba1037b832b760791b60448201526064015b60405180910390fd5b60008581526005602090815260408083203384529091528120805460ff191660011790555b845181101561030157336000818152600660209081526040808320548a84526004835281842094845293909152812080549091906102e9908490610b34565b909155508190506102f981610b4c565b9150506102aa565b50604080518681523360208201527ff1003b73c437642c0460aee9cd9628b0b8c447b66e6c7c905531b9c644214a11910160405180910390a15050505050565b6002818154811061035157600080fd5b6000918252602090912001546001600160a01b0316905081565b6000805b8115801561037e575060025481105b156103d257336001600160a01b0316600282815481106103a0576103a0610b08565b6000918252602090912001546001600160a01b031614156103c057600191505b806103ca81610b4c565b91505061036f565b50806103dd57600080fd5b600054158061042f575060008080546103f890600190610b67565b8154811061040857610408610b08565b600091825260209091206002918202015460ff169081111561042c5761042c610a70565b14155b61043857600080fd5b60005b825181101561056a57600083828151811061045857610458610b08565b6020908102919091010151600154604051630692d88f60e51b81526001600160a01b03808416600483015292935091169063d25b11e09060240160206040518083038186803b1580156104aa57600080fd5b505afa1580156104be573d6000803e3d6000fd5b505050506040513d601f19601f820116820180604052508101906104e29190610b7e565b156105575760008054600391906104fb90600190610b67565b815260200190815260200160002084838151811061051b5761051b610b08565b60209081029190910181015182546001810184556000938452919092200180546001600160a01b0319166001600160a01b039092169190911790555b508061056281610b4c565b91505061043b565b5060008054600390829061058090600190610b67565b8152602081019190915260400160002054111561066357604080518082019091526000808252426020830152805460018082018355918052825160029182027f290decd9548b62a8d60345a988386fc84ba6bc95484008f6362f93160ef3e56301805490939192849260ff199092169190849081111561060257610602610a70565b02179055506020919091015160019182015560008054909161062391610b67565b90507ff5d5acf597a5f9d06a24389ebea67f576c74da4d4a73b97a5dfac2452acad6478160405161065691815260200190565b60405180910390a1505050565b6040517ffcbd3487c26964ed5d65d76f8314741d42e1a9339c11b68c074e2aec0eda792e90600090a15050565b600081815481106106a057600080fd5b60009182526020909120600290910201805460019091015460ff909116915082565b600360205281600052604060002081815481106106de57600080fd5b6000918252602090912001546001600160a01b03169150829050565b6000805b8115801561070d575060025481105b1561076157336001600160a01b03166002828154811061072f5761072f610b08565b6000918252602090912001546001600160a01b0316141561074f57600191505b8061075981610b4c565b9150506106fe565b508061076c57600080fd5b600080848154811061078057610780610b08565b600091825260209091206002918202015460ff16908111156107a4576107a4610a70565b146107f15760405162461bcd60e51b815260206004820152601e60248201527f54686520766f74696e6720626c6f636b206973206e6f7420636c6f7365640000604482015260640161027c565b600082600281111561080557610805610a70565b14156108535760405162461bcd60e51b815260206004820181905260248201527f43616e206f6e6c7920636c6f7365206f722063616e63656c206120726f756e64604482015260640161027c565b816000848154811061086757610867610b08565b906000526020600020906002020160000160006101000a81548160ff0219169083600281111561089957610899610a70565b0217905550604080518481523360208201527f2a0641ef71e80039cddc7522d6459d2caef71d8dd8651c053a2700f2ac1769009101610656565b634e487b7160e01b600052604160045260246000fd5b80356001600160a01b038116811461090057600080fd5b919050565b600082601f83011261091657600080fd5b8135602067ffffffffffffffff80831115610933576109336108d3565b8260051b604051601f19603f83011681018181108482111715610958576109586108d3565b60405293845285810183019383810192508785111561097657600080fd5b83870191505b8482101561099c5761098d826108e9565b8352918301919083019061097c565b979650505050505050565b600080604083850312156109ba57600080fd5b82359150602083013567ffffffffffffffff8111156109d857600080fd5b6109e485828601610905565b9150509250929050565b600060208284031215610a0057600080fd5b5035919050565b600060208284031215610a1957600080fd5b813567ffffffffffffffff811115610a3057600080fd5b610a3c84828501610905565b949350505050565b60008060408385031215610a5757600080fd5b82359150610a67602084016108e9565b90509250929050565b634e487b7160e01b600052602160045260246000fd5b6040810160038410610aa857634e487b7160e01b600052602160045260246000fd5b9281526020015290565b60008060408385031215610ac557600080fd5b50508035926020909101359150565b60008060408385031215610ae757600080fd5b82359150602083013560038110610afd57600080fd5b809150509250929050565b634e487b7160e01b600052603260045260246000fd5b634e487b7160e01b600052601160045260246000fd5b60008219821115610b4757610b47610b1e565b500190565b6000600019821415610b6057610b60610b1e565b5060010190565b600082821015610b7957610b79610b1e565b500390565b600060208284031215610b9057600080fd5b81518015158114610ba057600080fd5b939250505056fea2646970667358221220876f9c97283efd64dc14b44e38dbc24beffa820390fb2301cd262b364520c7fa64736f6c63430008090033",
    "sourcePath": "c:/Users/ksilv/Github/Rhada/DApp/contracts/RoundVoting.sol",
    "compiler": {
        "name": "solc",
        "version": "0.8.9+commit.e5eed63a"
    },
    "functionHashes": {
        "admins(uint256)": "14bfd6d0",
        "castVote(uint256,address[])": "10a93d95",
        "closeRound(uint256,uint8)": "c89c1a89",
        "hasVoted(uint256,address)": "43859632",
        "numVotes(uint256,address)": "9a23648f",
        "openRound(address[])": "20b698b3",
        "registry()": "7b103999",
        "rounds(uint256)": "8c65c81f",
        "usersInRound(uint256,uint256)": "a0b412a6"
    },
    "gasEstimates": {
        "creation": {
            "codeDepositCost": "607400",
            "executionCost": "infinite",
            "totalCost": "infinite"
        },
        "external": {
            "admins(uint256)": "4626",
            "castVote(uint256,address[])": "infinite",
            "closeRound(uint256,uint8)": "infinite",
            "hasVoted(uint256,address)": "2696",
            "numVotes(uint256,address)": "2661",
            "openRound(address[])": "infinite",
            "registry()": "2326",
            "rounds(uint256)": "6800",
            "usersInRound(uint256,uint256)": "4760"
        }
    }
}