{
    "contractName": "RoundManager",
    "abi": [
        {
            "inputs": [
                {
                    "internalType": "address",
                    "name": "registryAddress",
                    "type": "address"
                },
                {
                    "internalType": "uint256",
                    "name": "_timePerRound",
                    "type": "uint256"
                }
            ],
            "stateMutability": "nonpayable",
            "type": "constructor"
        },
        {
            "anonymous": false,
            "inputs": [
                {
                    "indexed": false,
                    "internalType": "uint256",
                    "name": "roundID",
                    "type": "uint256"
                }
            ],
            "name": "RoundCancelled",
            "type": "event"
        },
        {
            "anonymous": false,
            "inputs": [
                {
                    "indexed": false,
                    "internalType": "uint256",
                    "name": "roundID",
                    "type": "uint256"
                }
            ],
            "name": "RoundCompleted",
            "type": "event"
        },
        {
            "anonymous": false,
            "inputs": [
                {
                    "indexed": false,
                    "internalType": "uint256",
                    "name": "roundID",
                    "type": "uint256"
                }
            ],
            "name": "RoundOpen",
            "type": "event"
        },
        {
            "anonymous": false,
            "inputs": [
                {
                    "indexed": false,
                    "internalType": "address",
                    "name": "_for",
                    "type": "address"
                },
                {
                    "indexed": false,
                    "internalType": "address",
                    "name": "_by",
                    "type": "address"
                }
            ],
            "name": "VoteCast",
            "type": "event"
        },
        {
            "anonymous": false,
            "inputs": [
                {
                    "indexed": false,
                    "internalType": "uint256",
                    "name": "roundID",
                    "type": "uint256"
                }
            ],
            "name": "VotesCalculated",
            "type": "event"
        },
        {
            "inputs": [
                {
                    "internalType": "uint256",
                    "name": "",
                    "type": "uint256"
                }
            ],
            "name": "admins",
            "outputs": [
                {
                    "internalType": "address",
                    "name": "",
                    "type": "address"
                }
            ],
            "stateMutability": "view",
            "type": "function"
        },
        {
            "inputs": [
                {
                    "internalType": "uint256",
                    "name": "roundID",
                    "type": "uint256"
                },
                {
                    "internalType": "address[]",
                    "name": "_for",
                    "type": "address[]"
                }
            ],
            "name": "castVote",
            "outputs": [],
            "stateMutability": "nonpayable",
            "type": "function"
        },
        {
            "inputs": [
                {
                    "internalType": "uint256",
                    "name": "roundID",
                    "type": "uint256"
                },
                {
                    "internalType": "enum RoundManager.Status",
                    "name": "_newStatus",
                    "type": "uint8"
                }
            ],
            "name": "closeRound",
            "outputs": [],
            "stateMutability": "nonpayable",
            "type": "function"
        },
        {
            "inputs": [
                {
                    "internalType": "uint256",
                    "name": "",
                    "type": "uint256"
                },
                {
                    "internalType": "address",
                    "name": "",
                    "type": "address"
                }
            ],
            "name": "hasVoted",
            "outputs": [
                {
                    "internalType": "bool",
                    "name": "",
                    "type": "bool"
                }
            ],
            "stateMutability": "view",
            "type": "function"
        },
        {
            "inputs": [
                {
                    "internalType": "address[]",
                    "name": "newUsers",
                    "type": "address[]"
                },
                {
                    "internalType": "uint256",
                    "name": "_roundSalary",
                    "type": "uint256"
                }
            ],
            "name": "openRound",
            "outputs": [],
            "stateMutability": "nonpayable",
            "type": "function"
        },
        {
            "inputs": [],
            "name": "registry",
            "outputs": [
                {
                    "internalType": "contract ContributorRegistry",
                    "name": "",
                    "type": "address"
                }
            ],
            "stateMutability": "view",
            "type": "function"
        },
        {
            "inputs": [
                {
                    "internalType": "uint256",
                    "name": "",
                    "type": "uint256"
                }
            ],
            "name": "rounds",
            "outputs": [
                {
                    "internalType": "enum RoundManager.Status",
                    "name": "status",
                    "type": "uint8"
                },
                {
                    "internalType": "uint256",
                    "name": "roundSalary",
                    "type": "uint256"
                }
            ],
            "stateMutability": "view",
            "type": "function"
        }
    ],
    "bytecode": "608060405234801561001057600080fd5b5060405161081c38038061081c83398101604081905261002f9161008d565b600180546001600160a01b039093166001600160a01b03199384161781556002805491820181556000527f405787fa12a823e0f2b7631cc41b3ba8828b3321ca811111fa75cd3aa3bb5ace01805490921633179091556007556100c7565b600080604083850312156100a057600080fd5b82516001600160a01b03811681146100b757600080fd5b6020939093015192949293505050565b610746806100d66000396000f3fe608060405234801561001057600080fd5b506004361061007d5760003560e01c80637b1039991161005b5780637b103999146101055780638c65c81f14610118578063c89c1a8914610139578063f4eb450b1461014c57600080fd5b806310a93d951461008257806314bfd6d01461009757806343859632146100c7575b600080fd5b610095610090366004610553565b61015f565b005b6100aa6100a536600461059a565b610263565b6040516001600160a01b0390911681526020015b60405180910390f35b6100f56100d53660046105b3565b600560209081526000928352604080842090915290825290205460ff1681565b60405190151581526020016100be565b6001546100aa906001600160a01b031681565b61012b61012636600461059a565b61028d565b6040516100be9291906105f5565b610095610147366004610621565b6102bf565b61009561015a366004610655565b6103b2565b81600080600083815481106101765761017661069a565b600091825260209091206002918202015460ff169081111561019a5761019a6105df565b146101e05760405162461bcd60e51b81526020600482015260116024820152702937bab7321034b9903737ba1037b832b760791b60448201526064015b60405180910390fd5b60008481526005602090815260408083203384529091528120805460ff191660011790555b835181101561025c57336000818152600660209081526040808320548984526004835281842094845293909152812080549091906102449084906106c6565b90915550819050610254816106de565b915050610205565b5050505050565b6002818154811061027357600080fd5b6000918252602090912001546001600160a01b0316905081565b6000818154811061029d57600080fd5b60009182526020909120600290910201805460019091015460ff909116915082565b60008083815481106102d3576102d361069a565b600091825260209091206002918202015460ff16908111156102f7576102f76105df565b146103445760405162461bcd60e51b815260206004820152601e60248201527f54686520766f74696e6720626c6f636b206973206e6f7420636c6f736564000060448201526064016101d7565b6000816002811115610358576103586105df565b141561036357600080fd5b80600083815481106103775761037761069a565b906000526020600020906002020160000160006101000a81548160ff021916908360028111156103a9576103a96105df565b02179055505050565b60005b82518110156103d057806103c8816106de565b9150506103b5565b506000805460039082906103e6906001906106f9565b8152602081019190915260400160002054111561047b5760408051808201909152600080825260208201839052805460018082018355918052825160029182027f290decd9548b62a8d60345a988386fc84ba6bc95484008f6362f93160ef3e56301805490939192849260ff1990921691908490811115610469576104696105df565b02179055506020820151816001015550505b5050565b634e487b7160e01b600052604160045260246000fd5b80356001600160a01b03811681146104ac57600080fd5b919050565b600082601f8301126104c257600080fd5b8135602067ffffffffffffffff808311156104df576104df61047f565b8260051b604051601f19603f830116810181811084821117156105045761050461047f565b60405293845285810183019383810192508785111561052257600080fd5b83870191505b848210156105485761053982610495565b83529183019190830190610528565b979650505050505050565b6000806040838503121561056657600080fd5b82359150602083013567ffffffffffffffff81111561058457600080fd5b610590858286016104b1565b9150509250929050565b6000602082840312156105ac57600080fd5b5035919050565b600080604083850312156105c657600080fd5b823591506105d660208401610495565b90509250929050565b634e487b7160e01b600052602160045260246000fd5b604081016003841061061757634e487b7160e01b600052602160045260246000fd5b9281526020015290565b6000806040838503121561063457600080fd5b8235915060208301356003811061064a57600080fd5b809150509250929050565b6000806040838503121561066857600080fd5b823567ffffffffffffffff81111561067f57600080fd5b61068b858286016104b1565b95602094909401359450505050565b634e487b7160e01b600052603260045260246000fd5b634e487b7160e01b600052601160045260246000fd5b600082198211156106d9576106d96106b0565b500190565b60006000198214156106f2576106f26106b0565b5060010190565b60008282101561070b5761070b6106b0565b50039056fea2646970667358221220fc8941544097dc95b30fe4e826f87a1ac6fa471ec4329d32eea4d45511b571e864736f6c63430008090033",
    "sourcePath": "c:/Users/ksilv/Github/Rhada/DApp/contracts/RoundVoting.sol",
    "compiler": {
        "name": "solc",
        "version": "0.8.9+commit.e5eed63a"
    },
    "functionHashes": {
        "admins(uint256)": "14bfd6d0",
        "castVote(uint256,address[])": "10a93d95",
        "closeRound(uint256,uint8)": "c89c1a89",
        "hasVoted(uint256,address)": "43859632",
        "openRound(address[],uint256)": "f4eb450b",
        "registry()": "7b103999",
        "rounds(uint256)": "8c65c81f"
    },
    "gasEstimates": {
        "creation": {
            "codeDepositCost": "372400",
            "executionCost": "infinite",
            "totalCost": "infinite"
        },
        "external": {
            "admins(uint256)": "4626",
            "castVote(uint256,address[])": "infinite",
            "closeRound(uint256,uint8)": "31219",
            "hasVoted(uint256,address)": "2674",
            "openRound(address[],uint256)": "infinite",
            "registry()": "2326",
            "rounds(uint256)": "6800"
        }
    }
}