{
    "contractName": "RoundManager",
    "abi": [
        {
            "inputs": [
                {
                    "internalType": "address",
                    "name": "registryAddress",
                    "type": "address"
                },
                {
                    "internalType": "uint256",
                    "name": "_timePerRound",
                    "type": "uint256"
                },
                {
                    "internalType": "bool",
                    "name": "_timed",
                    "type": "bool"
                }
            ],
            "stateMutability": "nonpayable",
            "type": "constructor"
        },
        {
            "anonymous": false,
            "inputs": [
                {
                    "indexed": false,
                    "internalType": "uint256",
                    "name": "roundID",
                    "type": "uint256"
                },
                {
                    "indexed": false,
                    "internalType": "address",
                    "name": "closedBy",
                    "type": "address"
                }
            ],
            "name": "RoundClosed",
            "type": "event"
        },
        {
            "anonymous": false,
            "inputs": [],
            "name": "RoundOpenFailed",
            "type": "event"
        },
        {
            "anonymous": false,
            "inputs": [
                {
                    "indexed": false,
                    "internalType": "uint256",
                    "name": "roundID",
                    "type": "uint256"
                }
            ],
            "name": "RoundOpened",
            "type": "event"
        },
        {
            "anonymous": false,
            "inputs": [
                {
                    "indexed": false,
                    "internalType": "uint256",
                    "name": "roundID",
                    "type": "uint256"
                },
                {
                    "indexed": false,
                    "internalType": "address",
                    "name": "voter",
                    "type": "address"
                }
            ],
            "name": "VoteCast",
            "type": "event"
        },
        {
            "inputs": [
                {
                    "internalType": "uint256",
                    "name": "",
                    "type": "uint256"
                }
            ],
            "name": "admins",
            "outputs": [
                {
                    "internalType": "address",
                    "name": "",
                    "type": "address"
                }
            ],
            "stateMutability": "view",
            "type": "function"
        },
        {
            "inputs": [
                {
                    "internalType": "uint256",
                    "name": "roundID",
                    "type": "uint256"
                },
                {
                    "internalType": "address[]",
                    "name": "_for",
                    "type": "address[]"
                }
            ],
            "name": "castVote",
            "outputs": [],
            "stateMutability": "nonpayable",
            "type": "function"
        },
        {
            "inputs": [
                {
                    "internalType": "uint256",
                    "name": "roundID",
                    "type": "uint256"
                },
                {
                    "internalType": "enum RoundManager.Status",
                    "name": "_newStatus",
                    "type": "uint8"
                }
            ],
            "name": "closeRound",
            "outputs": [],
            "stateMutability": "nonpayable",
            "type": "function"
        },
        {
            "inputs": [
                {
                    "internalType": "uint256",
                    "name": "",
                    "type": "uint256"
                },
                {
                    "internalType": "address",
                    "name": "",
                    "type": "address"
                }
            ],
            "name": "hasVoted",
            "outputs": [
                {
                    "internalType": "bool",
                    "name": "",
                    "type": "bool"
                }
            ],
            "stateMutability": "view",
            "type": "function"
        },
        {
            "inputs": [
                {
                    "internalType": "uint256",
                    "name": "",
                    "type": "uint256"
                },
                {
                    "internalType": "address",
                    "name": "",
                    "type": "address"
                }
            ],
            "name": "numVotes",
            "outputs": [
                {
                    "internalType": "uint256",
                    "name": "",
                    "type": "uint256"
                }
            ],
            "stateMutability": "view",
            "type": "function"
        },
        {
            "inputs": [
                {
                    "internalType": "address[]",
                    "name": "newUsers",
                    "type": "address[]"
                }
            ],
            "name": "openRound",
            "outputs": [],
            "stateMutability": "nonpayable",
            "type": "function"
        },
        {
            "inputs": [],
            "name": "registry",
            "outputs": [
                {
                    "internalType": "contract ContributorRegistry",
                    "name": "",
                    "type": "address"
                }
            ],
            "stateMutability": "view",
            "type": "function"
        },
        {
            "inputs": [
                {
                    "internalType": "uint256",
                    "name": "",
                    "type": "uint256"
                }
            ],
            "name": "rounds",
            "outputs": [
                {
                    "internalType": "enum RoundManager.Status",
                    "name": "status",
                    "type": "uint8"
                },
                {
                    "internalType": "uint256",
                    "name": "startTime",
                    "type": "uint256"
                },
                {
                    "internalType": "uint256",
                    "name": "totalVotes",
                    "type": "uint256"
                }
            ],
            "stateMutability": "view",
            "type": "function"
        },
        {
            "inputs": [
                {
                    "internalType": "uint256",
                    "name": "",
                    "type": "uint256"
                },
                {
                    "internalType": "uint256",
                    "name": "",
                    "type": "uint256"
                }
            ],
            "name": "usersInRound",
            "outputs": [
                {
                    "internalType": "address",
                    "name": "",
                    "type": "address"
                }
            ],
            "stateMutability": "view",
            "type": "function"
        }
    ],
    "bytecode": "608060405234801561001057600080fd5b50604051610d49380380610d4983398101604081905261002f916100a0565b600180546001600160a01b039094166001600160a01b03199485161781556002805491820181556000527f405787fa12a823e0f2b7631cc41b3ba8828b3321ca811111fa75cd3aa3bb5ace01805490931633179092556007556008805491151560ff199092169190911790556100f4565b6000806000606084860312156100b557600080fd5b83516001600160a01b03811681146100cc57600080fd5b60208501516040860151919450925080151581146100e957600080fd5b809150509250925092565b610c46806101036000396000f3fe608060405234801561001057600080fd5b50600436106100935760003560e01c80637b103999116100665780637b1039991461012e5780638c65c81f146101415780639a23648f14610163578063a0b412a61461019c578063c89c1a89146101af57600080fd5b806310a93d951461009857806314bfd6d0146100ad57806320b698b3146100dd57806343859632146100f0575b600080fd5b6100ab6100a6366004610a06565b6101c2565b005b6100c06100bb366004610a4d565b61038d565b6040516001600160a01b0390911681526020015b60405180910390f35b6100ab6100eb366004610a66565b6103b7565b61011e6100fe366004610aa3565b600560209081526000928352604080842090915290825290205460ff1681565b60405190151581526020016100d4565b6001546100c0906001600160a01b031681565b61015461014f366004610a4d565b6106f1565b6040516100d493929190610ae5565b61018e610171366004610aa3565b600460209081526000928352604080842090915290825290205481565b6040519081526020016100d4565b6100c06101aa366004610b1b565b610728565b6100ab6101bd366004610b3d565b610760565b6000828152600560209081526040808320338452909152902054829060ff161580156101fc57503360009081526006602052604090205415155b61020557600080fd5b826000806000838154811061021c5761021c610b71565b600091825260209091206003909102015460ff16600281111561024157610241610acf565b146102875760405162461bcd60e51b81526020600482015260116024820152702937bab7321034b9903737ba1037b832b760791b60448201526064015b60405180910390fd5b60008581526005602090815260408083203384529091528120805460ff191660011790555b845181101561034d57336000818152600660209081526040808320548a84526004835281842094845293909152812080549091906102eb908490610b9d565b90915550503360009081526006602052604081205481549091908890811061031557610315610b71565b906000526020600020906003020160020160008282546103359190610b9d565b9091555081905061034581610bb5565b9150506102ac565b50604080518681523360208201527ff1003b73c437642c0460aee9cd9628b0b8c447b66e6c7c905531b9c644214a11910160405180910390a15050505050565b6002818154811061039d57600080fd5b6000918252602090912001546001600160a01b0316905081565b6000805b811580156103ca575060025481105b1561041e57336001600160a01b0316600282815481106103ec576103ec610b71565b6000918252602090912001546001600160a01b0316141561040c57600191505b8061041681610bb5565b9150506103bb565b508061042957600080fd5b600054158061047c5750600080805461044490600190610bd0565b8154811061045457610454610b71565b600091825260209091206003909102015460ff16600281111561047957610479610acf565b14155b61048557600080fd5b60005b82518110156105b75760008382815181106104a5576104a5610b71565b6020908102919091010151600154604051630692d88f60e51b81526001600160a01b03808416600483015292935091169063d25b11e09060240160206040518083038186803b1580156104f757600080fd5b505afa15801561050b573d6000803e3d6000fd5b505050506040513d601f19601f8201168201806040525081019061052f9190610be7565b156105a457600080546003919061054890600190610bd0565b815260200190815260200160002084838151811061056857610568610b71565b60209081029190910181015182546001810184556000938452919092200180546001600160a01b0319166001600160a01b039092169190911790555b50806105af81610bb5565b915050610488565b506000805460039082906105cd90600190610bd0565b815260208101919091526040016000205411156106c457604080516060810182526000808252426020830152918101829052815460018082018455928052815160039091027f290decd9548b62a8d60345a988386fc84ba6bc95484008f6362f93160ef3e56301805492939092839160ff199091169083600281111561065557610655610acf565b021790555060208201518160010155604082015181600201555050600060016000805490506106849190610bd0565b90507ff5d5acf597a5f9d06a24389ebea67f576c74da4d4a73b97a5dfac2452acad647816040516106b791815260200190565b60405180910390a1505050565b6040517ffcbd3487c26964ed5d65d76f8314741d42e1a9339c11b68c074e2aec0eda792e90600090a15050565b6000818154811061070157600080fd5b600091825260209091206003909102018054600182015460029092015460ff909116925083565b6003602052816000526040600020818154811061074457600080fd5b6000918252602090912001546001600160a01b03169150829050565b6000805b81158015610773575060025481105b156107c757336001600160a01b03166002828154811061079557610795610b71565b6000918252602090912001546001600160a01b031614156107b557600191505b806107bf81610bb5565b915050610764565b50806107d257600080fd5b60008084815481106107e6576107e6610b71565b600091825260209091206003909102015460ff16600281111561080b5761080b610acf565b146108585760405162461bcd60e51b815260206004820152601e60248201527f54686520766f74696e6720626c6f636b206973206e6f7420636c6f7365640000604482015260640161027e565b600082600281111561086c5761086c610acf565b14156108ba5760405162461bcd60e51b815260206004820181905260248201527f43616e206f6e6c7920636c6f7365206f722063616e63656c206120726f756e64604482015260640161027e565b81600084815481106108ce576108ce610b71565b60009182526020909120600390910201805460ff191660018360028111156108f8576108f8610acf565b0217905550604080518481523360208201527f2a0641ef71e80039cddc7522d6459d2caef71d8dd8651c053a2700f2ac17690091016106b7565b634e487b7160e01b600052604160045260246000fd5b80356001600160a01b038116811461095f57600080fd5b919050565b600082601f83011261097557600080fd5b8135602067ffffffffffffffff8083111561099257610992610932565b8260051b604051601f19603f830116810181811084821117156109b7576109b7610932565b6040529384528581018301938381019250878511156109d557600080fd5b83870191505b848210156109fb576109ec82610948565b835291830191908301906109db565b979650505050505050565b60008060408385031215610a1957600080fd5b82359150602083013567ffffffffffffffff811115610a3757600080fd5b610a4385828601610964565b9150509250929050565b600060208284031215610a5f57600080fd5b5035919050565b600060208284031215610a7857600080fd5b813567ffffffffffffffff811115610a8f57600080fd5b610a9b84828501610964565b949350505050565b60008060408385031215610ab657600080fd5b82359150610ac660208401610948565b90509250929050565b634e487b7160e01b600052602160045260246000fd5b6060810160038510610b0757634e487b7160e01b600052602160045260246000fd5b938152602081019290925260409091015290565b60008060408385031215610b2e57600080fd5b50508035926020909101359150565b60008060408385031215610b5057600080fd5b82359150602083013560038110610b6657600080fd5b809150509250929050565b634e487b7160e01b600052603260045260246000fd5b634e487b7160e01b600052601160045260246000fd5b60008219821115610bb057610bb0610b87565b500190565b6000600019821415610bc957610bc9610b87565b5060010190565b600082821015610be257610be2610b87565b500390565b600060208284031215610bf957600080fd5b81518015158114610c0957600080fd5b939250505056fea2646970667358221220b49d200dfff38d99afa5c27c34b9b8daaad3e5dc63cb151b9a45db55de36c65664736f6c63430008090033",
    "sourcePath": "c:/Users/ksilv/Github/Rhada/DApp/contracts/RoundManager.sol",
    "compiler": {
        "name": "solc",
        "version": "0.8.9+commit.e5eed63a"
    },
    "functionHashes": {
        "admins(uint256)": "14bfd6d0",
        "castVote(uint256,address[])": "10a93d95",
        "closeRound(uint256,uint8)": "c89c1a89",
        "hasVoted(uint256,address)": "43859632",
        "numVotes(uint256,address)": "9a23648f",
        "openRound(address[])": "20b698b3",
        "registry()": "7b103999",
        "rounds(uint256)": "8c65c81f",
        "usersInRound(uint256,uint256)": "a0b412a6"
    },
    "gasEstimates": {
        "creation": {
            "codeDepositCost": "628400",
            "executionCost": "infinite",
            "totalCost": "infinite"
        },
        "external": {
            "admins(uint256)": "4626",
            "castVote(uint256,address[])": "infinite",
            "closeRound(uint256,uint8)": "infinite",
            "hasVoted(uint256,address)": "2696",
            "numVotes(uint256,address)": "2661",
            "openRound(address[])": "infinite",
            "registry()": "2326",
            "rounds(uint256)": "8942",
            "usersInRound(uint256,uint256)": "4760"
        }
    }
}