{
    "contractName": "RoundManager",
    "abi": [
        {
            "inputs": [
                {
                    "internalType": "address",
                    "name": "registryAddress",
                    "type": "address"
                },
                {
                    "internalType": "uint256",
                    "name": "_timePerRound",
                    "type": "uint256"
                }
            ],
            "stateMutability": "nonpayable",
            "type": "constructor"
        },
        {
            "anonymous": false,
            "inputs": [
                {
                    "indexed": false,
                    "internalType": "uint256",
                    "name": "roundID",
                    "type": "uint256"
                },
                {
                    "indexed": false,
                    "internalType": "address",
                    "name": "closedBy",
                    "type": "address"
                }
            ],
            "name": "RoundClosed",
            "type": "event"
        },
        {
            "anonymous": false,
            "inputs": [
                {
                    "indexed": false,
                    "internalType": "uint256",
                    "name": "roundID",
                    "type": "uint256"
                },
                {
                    "indexed": false,
                    "internalType": "uint256",
                    "name": "roundSalary",
                    "type": "uint256"
                }
            ],
            "name": "RoundOpen",
            "type": "event"
        },
        {
            "anonymous": false,
            "inputs": [
                {
                    "indexed": false,
                    "internalType": "uint256",
                    "name": "roundID",
                    "type": "uint256"
                },
                {
                    "indexed": false,
                    "internalType": "address",
                    "name": "voter",
                    "type": "address"
                },
                {
                    "indexed": false,
                    "internalType": "address",
                    "name": "_for",
                    "type": "address"
                }
            ],
            "name": "VoteCast",
            "type": "event"
        },
        {
            "inputs": [
                {
                    "internalType": "uint256",
                    "name": "",
                    "type": "uint256"
                }
            ],
            "name": "admins",
            "outputs": [
                {
                    "internalType": "address",
                    "name": "",
                    "type": "address"
                }
            ],
            "stateMutability": "view",
            "type": "function"
        },
        {
            "inputs": [
                {
                    "internalType": "uint256",
                    "name": "roundID",
                    "type": "uint256"
                },
                {
                    "internalType": "address[]",
                    "name": "_for",
                    "type": "address[]"
                }
            ],
            "name": "castVote",
            "outputs": [],
            "stateMutability": "nonpayable",
            "type": "function"
        },
        {
            "inputs": [
                {
                    "internalType": "uint256",
                    "name": "roundID",
                    "type": "uint256"
                },
                {
                    "internalType": "enum RoundManager.Status",
                    "name": "_newStatus",
                    "type": "uint8"
                }
            ],
            "name": "closeRound",
            "outputs": [],
            "stateMutability": "nonpayable",
            "type": "function"
        },
        {
            "inputs": [
                {
                    "internalType": "uint256",
                    "name": "",
                    "type": "uint256"
                },
                {
                    "internalType": "address",
                    "name": "",
                    "type": "address"
                }
            ],
            "name": "hasVoted",
            "outputs": [
                {
                    "internalType": "bool",
                    "name": "",
                    "type": "bool"
                }
            ],
            "stateMutability": "view",
            "type": "function"
        },
        {
            "inputs": [
                {
                    "internalType": "uint256",
                    "name": "",
                    "type": "uint256"
                },
                {
                    "internalType": "address",
                    "name": "",
                    "type": "address"
                }
            ],
            "name": "numVotes",
            "outputs": [
                {
                    "internalType": "uint256",
                    "name": "",
                    "type": "uint256"
                }
            ],
            "stateMutability": "view",
            "type": "function"
        },
        {
            "inputs": [
                {
                    "internalType": "address[]",
                    "name": "newUsers",
                    "type": "address[]"
                },
                {
                    "internalType": "uint256",
                    "name": "_roundSalary",
                    "type": "uint256"
                }
            ],
            "name": "openRound",
            "outputs": [],
            "stateMutability": "payable",
            "type": "function"
        },
        {
            "inputs": [],
            "name": "registry",
            "outputs": [
                {
                    "internalType": "contract ContributorRegistry",
                    "name": "",
                    "type": "address"
                }
            ],
            "stateMutability": "view",
            "type": "function"
        },
        {
            "inputs": [
                {
                    "internalType": "uint256",
                    "name": "",
                    "type": "uint256"
                }
            ],
            "name": "rounds",
            "outputs": [
                {
                    "internalType": "enum RoundManager.Status",
                    "name": "status",
                    "type": "uint8"
                },
                {
                    "internalType": "uint256",
                    "name": "roundSalary",
                    "type": "uint256"
                }
            ],
            "stateMutability": "view",
            "type": "function"
        },
        {
            "inputs": [
                {
                    "internalType": "uint256",
                    "name": "",
                    "type": "uint256"
                },
                {
                    "internalType": "uint256",
                    "name": "",
                    "type": "uint256"
                }
            ],
            "name": "usersInRound",
            "outputs": [
                {
                    "internalType": "address",
                    "name": "",
                    "type": "address"
                }
            ],
            "stateMutability": "view",
            "type": "function"
        }
    ],
    "bytecode": "608060405234801561001057600080fd5b50604051610ac5380380610ac583398101604081905261002f9161008d565b600180546001600160a01b039093166001600160a01b03199384161781556002805491820181556000527f405787fa12a823e0f2b7631cc41b3ba8828b3321ca811111fa75cd3aa3bb5ace01805490921633179091556007556100c7565b600080604083850312156100a057600080fd5b82516001600160a01b03811681146100b757600080fd5b6020939093015192949293505050565b6109ef806100d66000396000f3fe6080604052600436106100865760003560e01c80638c65c81f116100595780638c65c81f146101555780639a23648f14610183578063a0b412a6146101c9578063c89c1a89146101e9578063f4eb450b1461020957600080fd5b806310a93d951461008b57806314bfd6d0146100ad57806343859632146100ea5780637b10399914610135575b600080fd5b34801561009757600080fd5b506100ab6100a63660046107da565b61021c565b005b3480156100b957600080fd5b506100cd6100c8366004610821565b610364565b6040516001600160a01b0390911681526020015b60405180910390f35b3480156100f657600080fd5b5061012561010536600461083a565b600560209081526000928352604080842090915290825290205460ff1681565b60405190151581526020016100e1565b34801561014157600080fd5b506001546100cd906001600160a01b031681565b34801561016157600080fd5b50610175610170366004610821565b61038e565b6040516100e192919061087c565b34801561018f57600080fd5b506101bb61019e36600461083a565b600460209081526000928352604080842090915290825290205481565b6040519081526020016100e1565b3480156101d557600080fd5b506100cd6101e43660046108a8565b6103c0565b3480156101f557600080fd5b506100ab6102043660046108ca565b6103f8565b6100ab6102173660046108fe565b61055e565b6000828152600560209081526040808320338452909152902054829060ff1615801561025657503360009081526006602052604090205415155b61025f57600080fd5b826000806000838154811061027657610276610943565b600091825260209091206002918202015460ff169081111561029a5761029a610866565b146102e05760405162461bcd60e51b81526020600482015260116024820152702937bab7321034b9903737ba1037b832b760791b60448201526064015b60405180910390fd5b60008581526005602090815260408083203384529091528120805460ff191660011790555b845181101561035c57336000818152600660209081526040808320548a845260048352818420948452939091528120805490919061034490849061096f565b9091555081905061035481610987565b915050610305565b505050505050565b6002818154811061037457600080fd5b6000918252602090912001546001600160a01b0316905081565b6000818154811061039e57600080fd5b60009182526020909120600290910201805460019091015460ff909116915082565b600360205281600052604060002081815481106103dc57600080fd5b6000918252602090912001546001600160a01b03169150829050565b6000805b8115801561040b575060025481105b1561045f57336001600160a01b03166002828154811061042d5761042d610943565b6000918252602090912001546001600160a01b0316141561044d57600191505b8061045781610987565b9150506103fc565b508061046a57600080fd5b600080848154811061047e5761047e610943565b600091825260209091206002918202015460ff16908111156104a2576104a2610866565b146104ef5760405162461bcd60e51b815260206004820152601e60248201527f54686520766f74696e6720626c6f636b206973206e6f7420636c6f736564000060448201526064016102d7565b600082600281111561050357610503610866565b141561050e57600080fd5b816000848154811061052257610522610943565b906000526020600020906002020160000160006101000a81548160ff0219169083600281111561055457610554610866565b0217905550505050565b6000805b81158015610571575060025481105b156105c557336001600160a01b03166002828154811061059357610593610943565b6000918252602090912001546001600160a01b031614156105b357600191505b806105bd81610987565b915050610562565b50806105d057600080fd5b6000541580610622575060008080546105eb906001906109a2565b815481106105fb576105fb610943565b600091825260209091206002918202015460ff169081111561061f5761061f610866565b14155b61062b57600080fd5b8134101561063857600080fd5b60005b8351811015610656578061064e81610987565b91505061063b565b5060008054600390829061066c906001906109a2565b815260208101919091526040016000205411156107015760408051808201909152600080825260208201849052805460018082018355918052825160029182027f290decd9548b62a8d60345a988386fc84ba6bc95484008f6362f93160ef3e56301805490939192849260ff19909216919084908111156106ef576106ef610866565b02179055506020820151816001015550505b505050565b634e487b7160e01b600052604160045260246000fd5b80356001600160a01b038116811461073357600080fd5b919050565b600082601f83011261074957600080fd5b8135602067ffffffffffffffff8083111561076657610766610706565b8260051b604051601f19603f8301168101818110848211171561078b5761078b610706565b6040529384528581018301938381019250878511156107a957600080fd5b83870191505b848210156107cf576107c08261071c565b835291830191908301906107af565b979650505050505050565b600080604083850312156107ed57600080fd5b82359150602083013567ffffffffffffffff81111561080b57600080fd5b61081785828601610738565b9150509250929050565b60006020828403121561083357600080fd5b5035919050565b6000806040838503121561084d57600080fd5b8235915061085d6020840161071c565b90509250929050565b634e487b7160e01b600052602160045260246000fd5b604081016003841061089e57634e487b7160e01b600052602160045260246000fd5b9281526020015290565b600080604083850312156108bb57600080fd5b50508035926020909101359150565b600080604083850312156108dd57600080fd5b823591506020830135600381106108f357600080fd5b809150509250929050565b6000806040838503121561091157600080fd5b823567ffffffffffffffff81111561092857600080fd5b61093485828601610738565b95602094909401359450505050565b634e487b7160e01b600052603260045260246000fd5b634e487b7160e01b600052601160045260246000fd5b6000821982111561098257610982610959565b500190565b600060001982141561099b5761099b610959565b5060010190565b6000828210156109b4576109b4610959565b50039056fea2646970667358221220f4f4c67b41de46d14a190341282528e81bb80d9775512a876473ec67ed32c14364736f6c63430008090033",
    "sourcePath": "c:/Users/ksilv/Github/Rhada/DApp/contracts/RoundVoting.sol",
    "compiler": {
        "name": "solc",
        "version": "0.8.9+commit.e5eed63a"
    },
    "functionHashes": {
        "admins(uint256)": "14bfd6d0",
        "castVote(uint256,address[])": "10a93d95",
        "closeRound(uint256,uint8)": "c89c1a89",
        "hasVoted(uint256,address)": "43859632",
        "numVotes(uint256,address)": "9a23648f",
        "openRound(address[],uint256)": "f4eb450b",
        "registry()": "7b103999",
        "rounds(uint256)": "8c65c81f",
        "usersInRound(uint256,uint256)": "a0b412a6"
    },
    "gasEstimates": {
        "creation": {
            "codeDepositCost": "508600",
            "executionCost": "infinite",
            "totalCost": "infinite"
        },
        "external": {
            "admins(uint256)": "4626",
            "castVote(uint256,address[])": "infinite",
            "closeRound(uint256,uint8)": "infinite",
            "hasVoted(uint256,address)": "2674",
            "numVotes(uint256,address)": "2639",
            "openRound(address[],uint256)": "infinite",
            "registry()": "2393",
            "rounds(uint256)": "6778",
            "usersInRound(uint256,uint256)": "4738"
        }
    }
}