{
    "contractName": "RoundManager",
    "abi": [
        {
            "inputs": [
                {
                    "internalType": "address",
                    "name": "registryAddress",
                    "type": "address"
                },
                {
                    "internalType": "uint256",
                    "name": "_timePerRound",
                    "type": "uint256"
                }
            ],
            "stateMutability": "nonpayable",
            "type": "constructor"
        },
        {
            "anonymous": false,
            "inputs": [
                {
                    "indexed": false,
                    "internalType": "uint256",
                    "name": "roundID",
                    "type": "uint256"
                },
                {
                    "indexed": false,
                    "internalType": "address",
                    "name": "closedBy",
                    "type": "address"
                }
            ],
            "name": "RoundClosed",
            "type": "event"
        },
        {
            "anonymous": false,
            "inputs": [
                {
                    "indexed": false,
                    "internalType": "uint256",
                    "name": "roundID",
                    "type": "uint256"
                },
                {
                    "indexed": false,
                    "internalType": "uint256",
                    "name": "roundSalary",
                    "type": "uint256"
                }
            ],
            "name": "RoundOpen",
            "type": "event"
        },
        {
            "anonymous": false,
            "inputs": [
                {
                    "indexed": false,
                    "internalType": "uint256",
                    "name": "roundID",
                    "type": "uint256"
                },
                {
                    "indexed": false,
                    "internalType": "address",
                    "name": "voter",
                    "type": "address"
                },
                {
                    "indexed": false,
                    "internalType": "address",
                    "name": "_for",
                    "type": "address"
                }
            ],
            "name": "VoteCast",
            "type": "event"
        },
        {
            "inputs": [
                {
                    "internalType": "uint256",
                    "name": "",
                    "type": "uint256"
                }
            ],
            "name": "admins",
            "outputs": [
                {
                    "internalType": "address",
                    "name": "",
                    "type": "address"
                }
            ],
            "stateMutability": "view",
            "type": "function"
        },
        {
            "inputs": [
                {
                    "internalType": "uint256",
                    "name": "roundID",
                    "type": "uint256"
                },
                {
                    "internalType": "address[]",
                    "name": "_for",
                    "type": "address[]"
                }
            ],
            "name": "castVote",
            "outputs": [],
            "stateMutability": "nonpayable",
            "type": "function"
        },
        {
            "inputs": [
                {
                    "internalType": "uint256",
                    "name": "roundID",
                    "type": "uint256"
                },
                {
                    "internalType": "enum RoundManager.Status",
                    "name": "_newStatus",
                    "type": "uint8"
                }
            ],
            "name": "closeRound",
            "outputs": [],
            "stateMutability": "nonpayable",
            "type": "function"
        },
        {
            "inputs": [
                {
                    "internalType": "uint256",
                    "name": "",
                    "type": "uint256"
                },
                {
                    "internalType": "address",
                    "name": "",
                    "type": "address"
                }
            ],
            "name": "hasVoted",
            "outputs": [
                {
                    "internalType": "bool",
                    "name": "",
                    "type": "bool"
                }
            ],
            "stateMutability": "view",
            "type": "function"
        },
        {
            "inputs": [
                {
                    "internalType": "address[]",
                    "name": "newUsers",
                    "type": "address[]"
                },
                {
                    "internalType": "uint256",
                    "name": "_roundSalary",
                    "type": "uint256"
                }
            ],
            "name": "openRound",
            "outputs": [],
            "stateMutability": "payable",
            "type": "function"
        },
        {
            "inputs": [],
            "name": "registry",
            "outputs": [
                {
                    "internalType": "contract ContributorRegistry",
                    "name": "",
                    "type": "address"
                }
            ],
            "stateMutability": "view",
            "type": "function"
        },
        {
            "inputs": [
                {
                    "internalType": "uint256",
                    "name": "",
                    "type": "uint256"
                }
            ],
            "name": "rounds",
            "outputs": [
                {
                    "internalType": "enum RoundManager.Status",
                    "name": "status",
                    "type": "uint8"
                },
                {
                    "internalType": "uint256",
                    "name": "roundSalary",
                    "type": "uint256"
                }
            ],
            "stateMutability": "view",
            "type": "function"
        }
    ],
    "bytecode": "608060405234801561001057600080fd5b506040516109ef3803806109ef83398101604081905261002f9161008d565b600180546001600160a01b039093166001600160a01b03199384161781556002805491820181556000527f405787fa12a823e0f2b7631cc41b3ba8828b3321ca811111fa75cd3aa3bb5ace01805490921633179091556007556100c7565b600080604083850312156100a057600080fd5b82516001600160a01b03811681146100b757600080fd5b6020939093015192949293505050565b610919806100d66000396000f3fe6080604052600436106100705760003560e01c80637b1039991161004e5780637b1039991461011f5780638c65c81f1461013f578063c89c1a891461016d578063f4eb450b1461018d57600080fd5b806310a93d951461007557806314bfd6d01461009757806343859632146100d4575b600080fd5b34801561008157600080fd5b50610095610090366004610726565b6101a0565b005b3480156100a357600080fd5b506100b76100b236600461076d565b6102e8565b6040516001600160a01b0390911681526020015b60405180910390f35b3480156100e057600080fd5b5061010f6100ef366004610786565b600560209081526000928352604080842090915290825290205460ff1681565b60405190151581526020016100cb565b34801561012b57600080fd5b506001546100b7906001600160a01b031681565b34801561014b57600080fd5b5061015f61015a36600461076d565b610312565b6040516100cb9291906107c8565b34801561017957600080fd5b506100956101883660046107f4565b610344565b61009561019b366004610828565b6104aa565b6000828152600560209081526040808320338452909152902054829060ff161580156101da57503360009081526006602052604090205415155b6101e357600080fd5b82600080600083815481106101fa576101fa61086d565b600091825260209091206002918202015460ff169081111561021e5761021e6107b2565b146102645760405162461bcd60e51b81526020600482015260116024820152702937bab7321034b9903737ba1037b832b760791b60448201526064015b60405180910390fd5b60008581526005602090815260408083203384529091528120805460ff191660011790555b84518110156102e057336000818152600660209081526040808320548a84526004835281842094845293909152812080549091906102c8908490610899565b909155508190506102d8816108b1565b915050610289565b505050505050565b600281815481106102f857600080fd5b6000918252602090912001546001600160a01b0316905081565b6000818154811061032257600080fd5b60009182526020909120600290910201805460019091015460ff909116915082565b6000805b81158015610357575060025481105b156103ab57336001600160a01b0316600282815481106103795761037961086d565b6000918252602090912001546001600160a01b0316141561039957600191505b806103a3816108b1565b915050610348565b50806103b657600080fd5b60008084815481106103ca576103ca61086d565b600091825260209091206002918202015460ff16908111156103ee576103ee6107b2565b1461043b5760405162461bcd60e51b815260206004820152601e60248201527f54686520766f74696e6720626c6f636b206973206e6f7420636c6f7365640000604482015260640161025b565b600082600281111561044f5761044f6107b2565b141561045a57600080fd5b816000848154811061046e5761046e61086d565b906000526020600020906002020160000160006101000a81548160ff021916908360028111156104a0576104a06107b2565b0217905550505050565b6000805b811580156104bd575060025481105b1561051157336001600160a01b0316600282815481106104df576104df61086d565b6000918252602090912001546001600160a01b031614156104ff57600191505b80610509816108b1565b9150506104ae565b508061051c57600080fd5b600054158061056e57506000808054610537906001906108cc565b815481106105475761054761086d565b600091825260209091206002918202015460ff169081111561056b5761056b6107b2565b14155b61057757600080fd5b8134101561058457600080fd5b60005b83518110156105a2578061059a816108b1565b915050610587565b506000805460039082906105b8906001906108cc565b8152602081019190915260400160002054111561064d5760408051808201909152600080825260208201849052805460018082018355918052825160029182027f290decd9548b62a8d60345a988386fc84ba6bc95484008f6362f93160ef3e56301805490939192849260ff199092169190849081111561063b5761063b6107b2565b02179055506020820151816001015550505b505050565b634e487b7160e01b600052604160045260246000fd5b80356001600160a01b038116811461067f57600080fd5b919050565b600082601f83011261069557600080fd5b8135602067ffffffffffffffff808311156106b2576106b2610652565b8260051b604051601f19603f830116810181811084821117156106d7576106d7610652565b6040529384528581018301938381019250878511156106f557600080fd5b83870191505b8482101561071b5761070c82610668565b835291830191908301906106fb565b979650505050505050565b6000806040838503121561073957600080fd5b82359150602083013567ffffffffffffffff81111561075757600080fd5b61076385828601610684565b9150509250929050565b60006020828403121561077f57600080fd5b5035919050565b6000806040838503121561079957600080fd5b823591506107a960208401610668565b90509250929050565b634e487b7160e01b600052602160045260246000fd5b60408101600384106107ea57634e487b7160e01b600052602160045260246000fd5b9281526020015290565b6000806040838503121561080757600080fd5b8235915060208301356003811061081d57600080fd5b809150509250929050565b6000806040838503121561083b57600080fd5b823567ffffffffffffffff81111561085257600080fd5b61085e85828601610684565b95602094909401359450505050565b634e487b7160e01b600052603260045260246000fd5b634e487b7160e01b600052601160045260246000fd5b600082198211156108ac576108ac610883565b500190565b60006000198214156108c5576108c5610883565b5060010190565b6000828210156108de576108de610883565b50039056fea264697066735822122068de03f0eb3b42ea44f475d51a2fb664ea197814e3f875770705b4d3e01a276e64736f6c63430008090033",
    "sourcePath": "c:/Users/ksilv/Github/Rhada/DApp/contracts/RoundVoting.sol",
    "compiler": {
        "name": "solc",
        "version": "0.8.9+commit.e5eed63a"
    },
    "functionHashes": {
        "admins(uint256)": "14bfd6d0",
        "castVote(uint256,address[])": "10a93d95",
        "closeRound(uint256,uint8)": "c89c1a89",
        "hasVoted(uint256,address)": "43859632",
        "openRound(address[],uint256)": "f4eb450b",
        "registry()": "7b103999",
        "rounds(uint256)": "8c65c81f"
    },
    "gasEstimates": {
        "creation": {
            "codeDepositCost": "465800",
            "executionCost": "infinite",
            "totalCost": "infinite"
        },
        "external": {
            "admins(uint256)": "4626",
            "castVote(uint256,address[])": "infinite",
            "closeRound(uint256,uint8)": "infinite",
            "hasVoted(uint256,address)": "2674",
            "openRound(address[],uint256)": "infinite",
            "registry()": "2326",
            "rounds(uint256)": "6800"
        }
    }
}