{
    "contractName": "RoundManager",
    "abi": [
        {
            "inputs": [
                {
                    "internalType": "address",
                    "name": "registryAddress",
                    "type": "address"
                },
                {
                    "internalType": "uint256",
                    "name": "_timePerRound",
                    "type": "uint256"
                },
                {
                    "internalType": "bool",
                    "name": "_timed",
                    "type": "bool"
                }
            ],
            "stateMutability": "nonpayable",
            "type": "constructor"
        },
        {
            "anonymous": false,
            "inputs": [
                {
                    "indexed": false,
                    "internalType": "uint256",
                    "name": "roundID",
                    "type": "uint256"
                },
                {
                    "indexed": false,
                    "internalType": "address",
                    "name": "closedBy",
                    "type": "address"
                }
            ],
            "name": "RoundClosed",
            "type": "event"
        },
        {
            "anonymous": false,
            "inputs": [],
            "name": "RoundOpenFailed",
            "type": "event"
        },
        {
            "anonymous": false,
            "inputs": [
                {
                    "indexed": false,
                    "internalType": "uint256",
                    "name": "roundID",
                    "type": "uint256"
                }
            ],
            "name": "RoundOpened",
            "type": "event"
        },
        {
            "anonymous": false,
            "inputs": [
                {
                    "indexed": false,
                    "internalType": "uint256",
                    "name": "roundID",
                    "type": "uint256"
                },
                {
                    "indexed": false,
                    "internalType": "address",
                    "name": "voter",
                    "type": "address"
                }
            ],
            "name": "VoteCast",
            "type": "event"
        },
        {
            "inputs": [
                {
                    "internalType": "uint256",
                    "name": "",
                    "type": "uint256"
                }
            ],
            "name": "admins",
            "outputs": [
                {
                    "internalType": "address",
                    "name": "",
                    "type": "address"
                }
            ],
            "stateMutability": "view",
            "type": "function"
        },
        {
            "inputs": [
                {
                    "internalType": "uint256",
                    "name": "roundID",
                    "type": "uint256"
                },
                {
                    "internalType": "address[]",
                    "name": "_for",
                    "type": "address[]"
                }
            ],
            "name": "castVote",
            "outputs": [],
            "stateMutability": "nonpayable",
            "type": "function"
        },
        {
            "inputs": [
                {
                    "internalType": "uint256",
                    "name": "roundID",
                    "type": "uint256"
                },
                {
                    "internalType": "enum RoundManager.Status",
                    "name": "_newStatus",
                    "type": "uint8"
                }
            ],
            "name": "closeRound",
            "outputs": [],
            "stateMutability": "nonpayable",
            "type": "function"
        },
        {
            "inputs": [],
            "name": "getRoundNumber",
            "outputs": [
                {
                    "internalType": "uint256",
                    "name": "",
                    "type": "uint256"
                }
            ],
            "stateMutability": "view",
            "type": "function"
        },
        {
            "inputs": [
                {
                    "internalType": "uint256",
                    "name": "roundID",
                    "type": "uint256"
                }
            ],
            "name": "getRoundUsers",
            "outputs": [
                {
                    "internalType": "address[]",
                    "name": "",
                    "type": "address[]"
                }
            ],
            "stateMutability": "view",
            "type": "function"
        },
        {
            "inputs": [
                {
                    "internalType": "uint256",
                    "name": "roundID",
                    "type": "uint256"
                }
            ],
            "name": "getRoundVotes",
            "outputs": [
                {
                    "internalType": "uint256",
                    "name": "",
                    "type": "uint256"
                }
            ],
            "stateMutability": "view",
            "type": "function"
        },
        {
            "inputs": [
                {
                    "internalType": "address",
                    "name": "user",
                    "type": "address"
                },
                {
                    "internalType": "uint256",
                    "name": "roundID",
                    "type": "uint256"
                }
            ],
            "name": "getRoundVotesPerUser",
            "outputs": [
                {
                    "internalType": "uint256",
                    "name": "",
                    "type": "uint256"
                }
            ],
            "stateMutability": "view",
            "type": "function"
        },
        {
            "inputs": [],
            "name": "getRounds",
            "outputs": [
                {
                    "components": [
                        {
                            "internalType": "enum RoundManager.Status",
                            "name": "status",
                            "type": "uint8"
                        },
                        {
                            "internalType": "uint256",
                            "name": "startTime",
                            "type": "uint256"
                        },
                        {
                            "internalType": "uint256",
                            "name": "totalVotes",
                            "type": "uint256"
                        }
                    ],
                    "internalType": "struct RoundManager.Round[]",
                    "name": "",
                    "type": "tuple[]"
                }
            ],
            "stateMutability": "view",
            "type": "function"
        },
        {
            "inputs": [
                {
                    "internalType": "uint256",
                    "name": "",
                    "type": "uint256"
                },
                {
                    "internalType": "address",
                    "name": "",
                    "type": "address"
                }
            ],
            "name": "hasVoted",
            "outputs": [
                {
                    "internalType": "bool",
                    "name": "",
                    "type": "bool"
                }
            ],
            "stateMutability": "view",
            "type": "function"
        },
        {
            "inputs": [
                {
                    "internalType": "uint256",
                    "name": "",
                    "type": "uint256"
                },
                {
                    "internalType": "address",
                    "name": "",
                    "type": "address"
                }
            ],
            "name": "numVotes",
            "outputs": [
                {
                    "internalType": "uint256",
                    "name": "",
                    "type": "uint256"
                }
            ],
            "stateMutability": "view",
            "type": "function"
        },
        {
            "inputs": [
                {
                    "internalType": "address[]",
                    "name": "newUsers",
                    "type": "address[]"
                }
            ],
            "name": "openRound",
            "outputs": [],
            "stateMutability": "nonpayable",
            "type": "function"
        },
        {
            "inputs": [],
            "name": "registry",
            "outputs": [
                {
                    "internalType": "contract ContributorRegistry",
                    "name": "",
                    "type": "address"
                }
            ],
            "stateMutability": "view",
            "type": "function"
        },
        {
            "inputs": [
                {
                    "internalType": "uint256",
                    "name": "",
                    "type": "uint256"
                }
            ],
            "name": "rounds",
            "outputs": [
                {
                    "internalType": "enum RoundManager.Status",
                    "name": "status",
                    "type": "uint8"
                },
                {
                    "internalType": "uint256",
                    "name": "startTime",
                    "type": "uint256"
                },
                {
                    "internalType": "uint256",
                    "name": "totalVotes",
                    "type": "uint256"
                }
            ],
            "stateMutability": "view",
            "type": "function"
        },
        {
            "inputs": [
                {
                    "internalType": "uint256",
                    "name": "",
                    "type": "uint256"
                },
                {
                    "internalType": "uint256",
                    "name": "",
                    "type": "uint256"
                }
            ],
            "name": "usersInRound",
            "outputs": [
                {
                    "internalType": "address",
                    "name": "",
                    "type": "address"
                }
            ],
            "stateMutability": "view",
            "type": "function"
        }
    ],
    "bytecode": "608060405234801561001057600080fd5b5060405161105538038061105583398101604081905261002f916100a0565b600180546001600160a01b039094166001600160a01b03199485161781556002805491820181556000527f405787fa12a823e0f2b7631cc41b3ba8828b3321ca811111fa75cd3aa3bb5ace01805490931633179092556007556008805491151560ff199092169190911790556100f4565b6000806000606084860312156100b557600080fd5b83516001600160a01b03811681146100cc57600080fd5b60208501516040860151919450925080151581146100e957600080fd5b809150509250925092565b610f52806101036000396000f3fe608060405234801561001057600080fd5b50600436106100ea5760003560e01c80637b1039991161008c5780639a23648f116100665780639a23648f14610218578063a0b412a614610243578063c89c1a8914610256578063e3af3b771461026957600080fd5b80637b103999146101d05780638c65c81f146101e35780639669cdbb1461020557600080fd5b806320b698b3116100c857806320b698b31461014a578063438596321461015d5780634c2804141461019b5780636984d070146101bb57600080fd5b80630cde0456146100ef57806310a93d951461010a57806314bfd6d01461011f575b600080fd5b6100f761029e565b6040519081526020015b60405180910390f35b61011d610118366004610c30565b6102b3565b005b61013261012d366004610c77565b61047e565b6040516001600160a01b039091168152602001610101565b61011d610158366004610c90565b6104a8565b61018b61016b366004610ccd565b600560209081526000928352604080842090915290825290205460ff1681565b6040519015158152602001610101565b6101ae6101a9366004610c77565b6107e2565b6040516101019190610cf9565b6101c361084e565b6040516101019190610d7e565b600154610132906001600160a01b031681565b6101f66101f1366004610c77565b6108ee565b60405161010193929190610dde565b6100f7610213366004610c77565b610925565b6100f7610226366004610ccd565b600460209081526000928352604080842090915290825290205481565b610132610251366004610dfd565b610952565b61011d610264366004610e1f565b61098a565b6100f7610277366004610e53565b60009081526004602090815260408083206001600160a01b03949094168352929052205490565b600080546102ae90600190610e93565b905090565b6000828152600560209081526040808320338452909152902054829060ff161580156102ed57503360009081526006602052604090205415155b6102f657600080fd5b826000806000838154811061030d5761030d610eaa565b600091825260209091206003909102015460ff16600281111561033257610332610d46565b146103785760405162461bcd60e51b81526020600482015260116024820152702937bab7321034b9903737ba1037b832b760791b60448201526064015b60405180910390fd5b60008581526005602090815260408083203384529091528120805460ff191660011790555b845181101561043e57336000818152600660209081526040808320548a84526004835281842094845293909152812080549091906103dc908490610ec0565b90915550503360009081526006602052604081205481549091908890811061040657610406610eaa565b906000526020600020906003020160020160008282546104269190610ec0565b9091555081905061043681610ed8565b91505061039d565b50604080518681523360208201527ff1003b73c437642c0460aee9cd9628b0b8c447b66e6c7c905531b9c644214a11910160405180910390a15050505050565b6002818154811061048e57600080fd5b6000918252602090912001546001600160a01b0316905081565b6000805b811580156104bb575060025481105b1561050f57336001600160a01b0316600282815481106104dd576104dd610eaa565b6000918252602090912001546001600160a01b031614156104fd57600191505b8061050781610ed8565b9150506104ac565b508061051a57600080fd5b600054158061056d5750600080805461053590600190610e93565b8154811061054557610545610eaa565b600091825260209091206003909102015460ff16600281111561056a5761056a610d46565b14155b61057657600080fd5b60005b82518110156106a857600083828151811061059657610596610eaa565b6020908102919091010151600154604051630692d88f60e51b81526001600160a01b03808416600483015292935091169063d25b11e09060240160206040518083038186803b1580156105e857600080fd5b505afa1580156105fc573d6000803e3d6000fd5b505050506040513d601f19601f820116820180604052508101906106209190610ef3565b1561069557600080546003919061063990600190610e93565b815260200190815260200160002084838151811061065957610659610eaa565b60209081029190910181015182546001810184556000938452919092200180546001600160a01b0319166001600160a01b039092169190911790555b50806106a081610ed8565b915050610579565b506000805460039082906106be90600190610e93565b815260208101919091526040016000205411156107b557604080516060810182526000808252426020830152918101829052815460018082018455928052815160039091027f290decd9548b62a8d60345a988386fc84ba6bc95484008f6362f93160ef3e56301805492939092839160ff199091169083600281111561074657610746610d46565b021790555060208201518160010155604082015181600201555050600060016000805490506107759190610e93565b90507ff5d5acf597a5f9d06a24389ebea67f576c74da4d4a73b97a5dfac2452acad647816040516107a891815260200190565b60405180910390a1505050565b6040517ffcbd3487c26964ed5d65d76f8314741d42e1a9339c11b68c074e2aec0eda792e90600090a15050565b60008181526003602090815260409182902080548351818402810184019094528084526060939283018282801561084257602002820191906000526020600020905b81546001600160a01b03168152600190910190602001808311610824575b50505050509050919050565b60606000805480602002602001604051908101604052809291908181526020016000905b828210156108e5576000848152602090206040805160608101909152600384029091018054829060ff1660028111156108ad576108ad610d46565b60028111156108be576108be610d46565b81526020016001820154815260200160028201548152505081526020019060010190610872565b50505050905090565b600081815481106108fe57600080fd5b600091825260209091206003909102018054600182015460029092015460ff909116925083565b600080828154811061093957610939610eaa565b9060005260206000209060030201600201549050919050565b6003602052816000526040600020818154811061096e57600080fd5b6000918252602090912001546001600160a01b03169150829050565b6000805b8115801561099d575060025481105b156109f157336001600160a01b0316600282815481106109bf576109bf610eaa565b6000918252602090912001546001600160a01b031614156109df57600191505b806109e981610ed8565b91505061098e565b50806109fc57600080fd5b6000808481548110610a1057610a10610eaa565b600091825260209091206003909102015460ff166002811115610a3557610a35610d46565b14610a825760405162461bcd60e51b815260206004820152601e60248201527f54686520766f74696e6720626c6f636b206973206e6f7420636c6f7365640000604482015260640161036f565b6000826002811115610a9657610a96610d46565b1415610ae45760405162461bcd60e51b815260206004820181905260248201527f43616e206f6e6c7920636c6f7365206f722063616e63656c206120726f756e64604482015260640161036f565b8160008481548110610af857610af8610eaa565b60009182526020909120600390910201805460ff19166001836002811115610b2257610b22610d46565b0217905550604080518481523360208201527f2a0641ef71e80039cddc7522d6459d2caef71d8dd8651c053a2700f2ac17690091016107a8565b634e487b7160e01b600052604160045260246000fd5b80356001600160a01b0381168114610b8957600080fd5b919050565b600082601f830112610b9f57600080fd5b8135602067ffffffffffffffff80831115610bbc57610bbc610b5c565b8260051b604051601f19603f83011681018181108482111715610be157610be1610b5c565b604052938452858101830193838101925087851115610bff57600080fd5b83870191505b84821015610c2557610c1682610b72565b83529183019190830190610c05565b979650505050505050565b60008060408385031215610c4357600080fd5b82359150602083013567ffffffffffffffff811115610c6157600080fd5b610c6d85828601610b8e565b9150509250929050565b600060208284031215610c8957600080fd5b5035919050565b600060208284031215610ca257600080fd5b813567ffffffffffffffff811115610cb957600080fd5b610cc584828501610b8e565b949350505050565b60008060408385031215610ce057600080fd5b82359150610cf060208401610b72565b90509250929050565b6020808252825182820181905260009190848201906040850190845b81811015610d3a5783516001600160a01b031683529284019291840191600101610d15565b50909695505050505050565b634e487b7160e01b600052602160045260246000fd5b60038110610d7a57634e487b7160e01b600052602160045260246000fd5b9052565b602080825282518282018190526000919060409081850190868401855b82811015610dd1578151610db0858251610d5c565b80870151858801528501518585015260609093019290850190600101610d9b565b5091979650505050505050565b60608101610dec8286610d5c565b602082019390935260400152919050565b60008060408385031215610e1057600080fd5b50508035926020909101359150565b60008060408385031215610e3257600080fd5b82359150602083013560038110610e4857600080fd5b809150509250929050565b60008060408385031215610e6657600080fd5b610e6f83610b72565b946020939093013593505050565b634e487b7160e01b600052601160045260246000fd5b600082821015610ea557610ea5610e7d565b500390565b634e487b7160e01b600052603260045260246000fd5b60008219821115610ed357610ed3610e7d565b500190565b6000600019821415610eec57610eec610e7d565b5060010190565b600060208284031215610f0557600080fd5b81518015158114610f1557600080fd5b939250505056fea264697066735822122006d0de75c2de05c7a74778a9321d9c73f1df97dfb69aa0f0b1cd11761292a01b64736f6c63430008090033",
    "sourcePath": "c:/Users/ksilv/Github/Rhada/DApp/contracts/RoundManager.sol",
    "compiler": {
        "name": "solc",
        "version": "0.8.9+commit.e5eed63a"
    },
    "functionHashes": {
        "admins(uint256)": "14bfd6d0",
        "castVote(uint256,address[])": "10a93d95",
        "closeRound(uint256,uint8)": "c89c1a89",
        "getRoundNumber()": "0cde0456",
        "getRoundUsers(uint256)": "4c280414",
        "getRoundVotes(uint256)": "9669cdbb",
        "getRoundVotesPerUser(address,uint256)": "e3af3b77",
        "getRounds()": "6984d070",
        "hasVoted(uint256,address)": "43859632",
        "numVotes(uint256,address)": "9a23648f",
        "openRound(address[])": "20b698b3",
        "registry()": "7b103999",
        "rounds(uint256)": "8c65c81f",
        "usersInRound(uint256,uint256)": "a0b412a6"
    },
    "gasEstimates": {
        "creation": {
            "codeDepositCost": "784400",
            "executionCost": "infinite",
            "totalCost": "infinite"
        },
        "external": {
            "admins(uint256)": "4682",
            "castVote(uint256,address[])": "infinite",
            "closeRound(uint256,uint8)": "infinite",
            "getRoundNumber()": "2398",
            "getRoundUsers(uint256)": "infinite",
            "getRoundVotes(uint256)": "4650",
            "getRoundVotesPerUser(address,uint256)": "2710",
            "getRounds()": "infinite",
            "hasVoted(uint256,address)": "2674",
            "numVotes(uint256,address)": "2628",
            "openRound(address[])": "infinite",
            "registry()": "2360",
            "rounds(uint256)": "8991",
            "usersInRound(uint256,uint256)": "4749"
        }
    }
}