{
    "contractName": "EventStream",
    "abi": [
        {
            "inputs": [],
            "stateMutability": "nonpayable",
            "type": "constructor"
        },
        {
            "inputs": [
                {
                    "internalType": "address",
                    "name": "_owner",
                    "type": "address"
                },
                {
                    "internalType": "uint256",
                    "name": "_data",
                    "type": "uint256"
                }
            ],
            "name": "createEventStream",
            "outputs": [],
            "stateMutability": "nonpayable",
            "type": "function"
        },
        {
            "inputs": [
                {
                    "internalType": "address",
                    "name": "",
                    "type": "address"
                }
            ],
            "name": "userToEventStream",
            "outputs": [
                {
                    "internalType": "uint256",
                    "name": "",
                    "type": "uint256"
                }
            ],
            "stateMutability": "view",
            "type": "function"
        }
    ],
    "bytecode": "608060405234801561001057600080fd5b506101af806100206000396000f3fe608060405234801561001057600080fd5b50600436106100365760003560e01c8063295fd15c1461003b5780636afeafdb1461006d575b600080fd5b61005b61004936600461012d565b60006020819052908152604090205481565b60405190815260200160405180910390f35b61010f61007b36600461014f565b604080518082019091526001600160a01b0392831681526020810191825260018054808201825560009190915290517fb10e2d527612073b26eecdfd717e6a320cf44b4afac2b0732d9fcbe2b7fa0cf6600290920291820180546001600160a01b0319169190941617909255517fb10e2d527612073b26eecdfd717e6a320cf44b4afac2b0732d9fcbe2b7fa0cf790910155565b005b80356001600160a01b038116811461012857600080fd5b919050565b60006020828403121561013f57600080fd5b61014882610111565b9392505050565b6000806040838503121561016257600080fd5b61016b83610111565b94602093909301359350505056fea2646970667358221220fc0b25630331f9799022a805e161acb0e4d7702126635183a154ae52d4ec097564736f6c63430008090033",
    "sourcePath": "c:/Users/ksilv/Github/Rhada/DApp/contracts/Mock/MockEventStream.sol",
    "compiler": {
        "name": "solc",
        "version": "0.8.9+commit.e5eed63a"
    },
    "functionHashes": {
        "createEventStream(address,uint256)": "6afeafdb",
        "userToEventStream(address)": "295fd15c"
    },
    "gasEstimates": {
        "creation": {
            "codeDepositCost": "86200",
            "executionCost": "135",
            "totalCost": "86335"
        },
        "external": {
            "createEventStream(address,uint256)": "71020",
            "userToEventStream(address)": "2488"
        }
    }
}