{
    "contractName": "PayentStream",
    "abi": [
        {
            "inputs": [],
            "stateMutability": "nonpayable",
            "type": "constructor"
        },
        {
            "inputs": [
                {
                    "internalType": "address",
                    "name": "_owner",
                    "type": "address"
                },
                {
                    "internalType": "uint256",
                    "name": "_totalAmount",
                    "type": "uint256"
                }
            ],
            "name": "createPaymentStream",
            "outputs": [],
            "stateMutability": "nonpayable",
            "type": "function"
        },
        {
            "inputs": [
                {
                    "internalType": "address",
                    "name": "",
                    "type": "address"
                }
            ],
            "name": "userToPaymentStream",
            "outputs": [
                {
                    "internalType": "uint256",
                    "name": "",
                    "type": "uint256"
                }
            ],
            "stateMutability": "view",
            "type": "function"
        }
    ],
    "bytecode": "608060405234801561001057600080fd5b506101af806100206000396000f3fe608060405234801561001057600080fd5b50600436106100365760003560e01c80635b3067551461003b5780636222dfb2146100df575b600080fd5b6100dd61004936600461012d565b604080518082019091526001600160a01b0392831681526020810191825260018054808201825560009190915290517fb10e2d527612073b26eecdfd717e6a320cf44b4afac2b0732d9fcbe2b7fa0cf6600290920291820180546001600160a01b0319169190941617909255517fb10e2d527612073b26eecdfd717e6a320cf44b4afac2b0732d9fcbe2b7fa0cf790910155565b005b6100ff6100ed366004610157565b60006020819052908152604090205481565b60405190815260200160405180910390f35b80356001600160a01b038116811461012857600080fd5b919050565b6000806040838503121561014057600080fd5b61014983610111565b946020939093013593505050565b60006020828403121561016957600080fd5b61017282610111565b939250505056fea2646970667358221220fd0e5df216557616a7bee2bc73e06bb2d547c2a63e6537de8574a458c84f8cc864736f6c63430008090033",
    "sourcePath": "c:/Users/ksilv/Github/Rhada/DApp/contracts/Mock/MockPaymentStream.sol",
    "compiler": {
        "name": "solc",
        "version": "0.8.9+commit.e5eed63a"
    },
    "functionHashes": {
        "createPaymentStream(address,uint256)": "5b306755",
        "userToPaymentStream(address)": "6222dfb2"
    },
    "gasEstimates": {
        "creation": {
            "codeDepositCost": "86200",
            "executionCost": "135",
            "totalCost": "86335"
        },
        "external": {
            "createPaymentStream(address,uint256)": "70998",
            "userToPaymentStream(address)": "2510"
        }
    }
}