{
    "contractName": "PaymentStream",
    "abi": [
        {
            "inputs": [],
            "stateMutability": "nonpayable",
            "type": "constructor"
        },
        {
            "inputs": [
                {
                    "internalType": "address",
                    "name": "_tokenOwner",
                    "type": "address"
                },
                {
                    "internalType": "uint256",
                    "name": "newAmount",
                    "type": "uint256"
                }
            ],
            "name": "adjustPaymentStream",
            "outputs": [],
            "stateMutability": "nonpayable",
            "type": "function"
        },
        {
            "inputs": [
                {
                    "internalType": "address",
                    "name": "_tokenOwner",
                    "type": "address"
                },
                {
                    "internalType": "uint256",
                    "name": "_totalAmount",
                    "type": "uint256"
                },
                {
                    "internalType": "uint256",
                    "name": "_salaryPeriod",
                    "type": "uint256"
                }
            ],
            "name": "createPaymentStream",
            "outputs": [],
            "stateMutability": "nonpayable",
            "type": "function"
        },
        {
            "inputs": [
                {
                    "internalType": "address",
                    "name": "",
                    "type": "address"
                }
            ],
            "name": "userToPaymentStream",
            "outputs": [
                {
                    "internalType": "uint256",
                    "name": "",
                    "type": "uint256"
                }
            ],
            "stateMutability": "view",
            "type": "function"
        }
    ],
    "bytecode": "608060405234801561001057600080fd5b50610287806100206000396000f3fe608060405234801561001057600080fd5b50600436106100415760003560e01c80636222dfb2146100465780637a2c1e2d14610078578063c7e2f8da14610148575b600080fd5b6100666100543660046101bc565b60006020819052908152604090205481565b60405190815260200160405180910390f35b6101466100863660046101de565b604080516060810182526001600160a01b0394851681526020810193845290810191825260018054808201825560009190915290517fb10e2d527612073b26eecdfd717e6a320cf44b4afac2b0732d9fcbe2b7fa0cf6600390920291820180546001600160a01b031916919095161790935590517fb10e2d527612073b26eecdfd717e6a320cf44b4afac2b0732d9fcbe2b7fa0cf7830155517fb10e2d527612073b26eecdfd717e6a320cf44b4afac2b0732d9fcbe2b7fa0cf890910155565b005b610146610156366004610211565b6001600160a01b03821660009081526020819052604090205460018054839190839081106101865761018661023b565b906000526020600020906003020160010181905550505050565b80356001600160a01b03811681146101b757600080fd5b919050565b6000602082840312156101ce57600080fd5b6101d7826101a0565b9392505050565b6000806000606084860312156101f357600080fd5b6101fc846101a0565b95602085013595506040909401359392505050565b6000806040838503121561022457600080fd5b61022d836101a0565b946020939093013593505050565b634e487b7160e01b600052603260045260246000fdfea264697066735822122016379089cdbadefc510b6a811b905ee1d0b1c72168b0f06feaf788e43976845064736f6c63430008090033",
    "sourcePath": "c:/Users/ksilv/Github/Rhada/DApp/contracts/Mock/MockPaymentStream.sol",
    "compiler": {
        "name": "solc",
        "version": "0.8.9+commit.e5eed63a"
    },
    "functionHashes": {
        "adjustPaymentStream(address,uint256)": "c7e2f8da",
        "createPaymentStream(address,uint256,uint256)": "7a2c1e2d",
        "userToPaymentStream(address)": "6222dfb2"
    },
    "gasEstimates": {
        "creation": {
            "codeDepositCost": "129400",
            "executionCost": "177",
            "totalCost": "129577"
        },
        "external": {
            "adjustPaymentStream(address,uint256)": "26852",
            "createPaymentStream(address,uint256,uint256)": "93173",
            "userToPaymentStream(address)": "2488"
        }
    }
}