{
  "_format": "hh-sol-artifact-1",
  "contractName": "ContributorRegistry",
  "sourceName": "contracts/ContributorRegistry.sol",
  "abi": [
    {
      "inputs": [
        {
          "internalType": "uint8",
          "name": "_requiredConfirmations",
          "type": "uint8"
        }
      ],
      "stateMutability": "nonpayable",
      "type": "constructor"
    },
    {
      "anonymous": false,
      "inputs": [
        {
          "indexed": false,
          "internalType": "address",
          "name": "contributor",
          "type": "address"
        },
        {
          "indexed": false,
          "internalType": "address",
          "name": "voter",
          "type": "address"
        },
        {
          "indexed": false,
          "internalType": "uint8",
          "name": "numVotes",
          "type": "uint8"
        }
      ],
      "name": "ConfirmationVote",
      "type": "event"
    },
    {
      "anonymous": false,
      "inputs": [
        {
          "indexed": false,
          "internalType": "address",
          "name": "contributor",
          "type": "address"
        }
      ],
      "name": "ContributorConfirmed",
      "type": "event"
    },
    {
      "anonymous": false,
      "inputs": [
        {
          "indexed": true,
          "internalType": "address",
          "name": "previousOwner",
          "type": "address"
        },
        {
          "indexed": true,
          "internalType": "address",
          "name": "newOwner",
          "type": "address"
        }
      ],
      "name": "OwnershipTransferred",
      "type": "event"
    },
    {
      "anonymous": false,
      "inputs": [
        {
          "indexed": false,
          "internalType": "address",
          "name": "contributor",
          "type": "address"
        },
        {
          "indexed": false,
          "internalType": "string",
          "name": "discordHandle",
          "type": "string"
        },
        {
          "indexed": false,
          "internalType": "string",
          "name": "githubUsername",
          "type": "string"
        }
      ],
      "name": "Registered",
      "type": "event"
    },
    {
      "anonymous": false,
      "inputs": [
        {
          "indexed": false,
          "internalType": "address",
          "name": "contributor",
          "type": "address"
        }
      ],
      "name": "UnRegistered",
      "type": "event"
    },
    {
      "inputs": [
        {
          "internalType": "address",
          "name": "_contributorAddress",
          "type": "address"
        }
      ],
      "name": "confirm",
      "outputs": [],
      "stateMutability": "nonpayable",
      "type": "function"
    },
    {
      "inputs": [
        {
          "internalType": "address",
          "name": "",
          "type": "address"
        }
      ],
      "name": "contributors",
      "outputs": [
        {
          "internalType": "enum ContributorRegistry.Status",
          "name": "status",
          "type": "uint8"
        },
        {
          "internalType": "uint8",
          "name": "numConfirmationVotes",
          "type": "uint8"
        },
        {
          "internalType": "string",
          "name": "discordHandle",
          "type": "string"
        },
        {
          "internalType": "string",
          "name": "githubUsername",
          "type": "string"
        }
      ],
      "stateMutability": "view",
      "type": "function"
    },
    {
      "inputs": [
        {
          "internalType": "address",
          "name": "user",
          "type": "address"
        }
      ],
      "name": "isValidVoter",
      "outputs": [
        {
          "internalType": "bool",
          "name": "",
          "type": "bool"
        }
      ],
      "stateMutability": "nonpayable",
      "type": "function"
    },
    {
      "inputs": [],
      "name": "numRegisteredContributors",
      "outputs": [
        {
          "internalType": "uint256",
          "name": "",
          "type": "uint256"
        }
      ],
      "stateMutability": "view",
      "type": "function"
    },
    {
      "inputs": [],
      "name": "owner",
      "outputs": [
        {
          "internalType": "address",
          "name": "",
          "type": "address"
        }
      ],
      "stateMutability": "view",
      "type": "function"
    },
    {
      "inputs": [
        {
          "internalType": "string",
          "name": "_discordHandle",
          "type": "string"
        },
        {
          "internalType": "string",
          "name": "_githubUsername",
          "type": "string"
        }
      ],
      "name": "register",
      "outputs": [],
      "stateMutability": "nonpayable",
      "type": "function"
    },
    {
      "inputs": [],
      "name": "registeredContributorAddresses",
      "outputs": [
        {
          "internalType": "address[]",
          "name": "",
          "type": "address[]"
        }
      ],
      "stateMutability": "view",
      "type": "function"
    },
    {
      "inputs": [],
      "name": "renounceOwnership",
      "outputs": [],
      "stateMutability": "nonpayable",
      "type": "function"
    },
    {
      "inputs": [],
      "name": "requiredConfirmations",
      "outputs": [
        {
          "internalType": "uint8",
          "name": "",
          "type": "uint8"
        }
      ],
      "stateMutability": "view",
      "type": "function"
    },
    {
      "inputs": [
        {
          "internalType": "address",
          "name": "newOwner",
          "type": "address"
        }
      ],
      "name": "transferOwnership",
      "outputs": [],
      "stateMutability": "nonpayable",
      "type": "function"
    },
    {
      "inputs": [
        {
          "internalType": "address",
          "name": "_contributorAddress",
          "type": "address"
        }
      ],
      "name": "unregister",
      "outputs": [],
      "stateMutability": "nonpayable",
      "type": "function"
    }
  ],
  "bytecode": "0x60806040523480156200001157600080fd5b50604051620025f5380380620025f583398181016040528101906200003791906200015c565b620000576200004b6200007960201b60201c565b6200008160201b60201c565b80600060146101000a81548160ff021916908360ff16021790555050620001af565b600033905090565b60008060009054906101000a900473ffffffffffffffffffffffffffffffffffffffff169050816000806101000a81548173ffffffffffffffffffffffffffffffffffffffff021916908373ffffffffffffffffffffffffffffffffffffffff1602179055508173ffffffffffffffffffffffffffffffffffffffff168173ffffffffffffffffffffffffffffffffffffffff167f8be0079c531659141344cd1fd0a4f28419497f9722a3daafe3b4186f6b6457e060405160405180910390a35050565b600081519050620001568162000195565b92915050565b6000602082840312156200016f57600080fd5b60006200017f8482850162000145565b91505092915050565b600060ff82169050919050565b620001a08162000188565b8114620001ac57600080fd5b50565b61243680620001bf6000396000f3fe608060405234801561001057600080fd5b50600436106100a95760003560e01c806382e717f71161007157806382e717f7146101415780638da5cb5b1461015f578063be75e4d41461017d578063d25b11e01461019b578063eb4dd8f2146101cb578063f2fde38b146101e7576100a9565b80631746e763146100ae5780631f6d4942146100cc5780632ec2c246146100ff5780633ffbd47f1461011b578063715018a614610137575b600080fd5b6100b6610203565b6040516100c39190611e0f565b60405180910390f35b6100e660048036038101906100e191906117bf565b610214565b6040516100f69493929190611c4a565b60405180910390f35b610119600480360381019061011491906117bf565b61036e565b005b610135600480360381019061013091906117e8565b610574565b005b61013f61094e565b005b6101496109d6565b6040516101569190611e2a565b60405180910390f35b6101676109e9565b6040516101749190611b76565b60405180910390f35b610185610a12565b6040516101929190611c0d565b60405180910390f35b6101b560048036038101906101b091906117bf565b610a23565b6040516101c29190611c2f565b60405180910390f35b6101e560048036038101906101e091906117bf565b610aee565b005b61020160048036038101906101fc91906117bf565b611021565b005b600061020f6004611119565b905090565b60016020528060005260406000206000915090508060000160009054906101000a900460ff16908060000160019054906101000a900460ff169080600201805461025d90612000565b80601f016020809104026020016040519081016040528092919081815260200182805461028990612000565b80156102d65780601f106102ab576101008083540402835291602001916102d6565b820191906000526020600020905b8154815290600101906020018083116102b957829003601f168201915b5050505050908060030180546102eb90612000565b80601f016020809104026020016040519081016040528092919081815260200182805461031790612000565b80156103645780601f1061033957610100808354040283529160200191610364565b820191906000526020600020905b81548152906001019060200180831161034757829003601f168201915b5050505050905084565b6103766109e9565b73ffffffffffffffffffffffffffffffffffffffff163373ffffffffffffffffffffffffffffffffffffffff16146103e3576040517f08c379a00000000000000000000000000000000000000000000000000000000081526004016103da90611d4f565b60405180910390fd5b6000600160008373ffffffffffffffffffffffffffffffffffffffff1673ffffffffffffffffffffffffffffffffffffffff1681526020019081526020016000209050600060028260020160405161043b9190611b5f565b908152602001604051809103902060006101000a81548160ff02191690831515021790555060006003826003016040516104759190611b5f565b908152602001604051809103902060006101000a81548160ff021916908315150217905550600160008373ffffffffffffffffffffffffffffffffffffffff1673ffffffffffffffffffffffffffffffffffffffff168152602001908152602001600020600080820160006101000a81549060ff02191690556000820160016101000a81549060ff0219169055600282016000610512919061165f565b600382016000610522919061165f565b505061053882600461112e90919063ffffffff16565b507f4803dcd528253b802a22997f7a3b15bcc6be53c1f2ba8f110aa26c25d652a68f826040516105689190611b76565b60405180910390a15050565b600060028111156105ae577f4e487b7100000000000000000000000000000000000000000000000000000000600052602160045260246000fd5b600160003373ffffffffffffffffffffffffffffffffffffffff1673ffffffffffffffffffffffffffffffffffffffff16815260200190815260200160002060000160009054906101000a900460ff166002811115610636577f4e487b7100000000000000000000000000000000000000000000000000000000600052602160045260246000fd5b14610676576040517f08c379a000000000000000000000000000000000000000000000000000000000815260040161066d90611dcf565b60405180910390fd5b6002826040516106869190611b48565b908152602001604051809103902060009054906101000a900460ff16156106e2576040517f08c379a00000000000000000000000000000000000000000000000000000000081526004016106d990611d2f565b60405180910390fd5b6003816040516106f29190611b48565b908152602001604051809103902060009054906101000a900460ff161561074e576040517f08c379a000000000000000000000000000000000000000000000000000000000815260040161074590611daf565b60405180910390fd5b61076233600461115e90919063ffffffff16565b5060016002836040516107759190611b48565b908152602001604051809103902060006101000a81548160ff02191690831515021790555081600160003373ffffffffffffffffffffffffffffffffffffffff1673ffffffffffffffffffffffffffffffffffffffff16815260200190815260200160002060020190805190602001906107f092919061169f565b5060016003826040516108039190611b48565b908152602001604051809103902060006101000a81548160ff02191690831515021790555080600160003373ffffffffffffffffffffffffffffffffffffffff1673ffffffffffffffffffffffffffffffffffffffff168152602001908152602001600020600301908051906020019061087e92919061169f565b5060018060003373ffffffffffffffffffffffffffffffffffffffff1673ffffffffffffffffffffffffffffffffffffffff16815260200190815260200160002060000160006101000a81548160ff0219169083600281111561090a577f4e487b7100000000000000000000000000000000000000000000000000000000600052602160045260246000fd5b02179055507f80788e6e1951532975ceb5ca698dfbf35d3a99bc9c440d8e1bb7301534ab72a233838360405161094293929190611bc8565b60405180910390a15050565b61095661118e565b73ffffffffffffffffffffffffffffffffffffffff166109746109e9565b73ffffffffffffffffffffffffffffffffffffffff16146109ca576040517f08c379a00000000000000000000000000000000000000000000000000000000081526004016109c190611d8f565b60405180910390fd5b6109d46000611196565b565b600060149054906101000a900460ff1681565b60008060009054906101000a900473ffffffffffffffffffffffffffffffffffffffff16905090565b6060610a1e600461125a565b905090565b6000600280811115610a5e577f4e487b7100000000000000000000000000000000000000000000000000000000600052602160045260246000fd5b600160008473ffffffffffffffffffffffffffffffffffffffff1673ffffffffffffffffffffffffffffffffffffffff16815260200190815260200160002060000160009054906101000a900460ff166002811115610ae6577f4e487b7100000000000000000000000000000000000000000000000000000000600052602160045260246000fd5b149050919050565b600280811115610b27577f4e487b7100000000000000000000000000000000000000000000000000000000600052602160045260246000fd5b600160003373ffffffffffffffffffffffffffffffffffffffff1673ffffffffffffffffffffffffffffffffffffffff16815260200190815260200160002060000160009054906101000a900460ff166002811115610baf577f4e487b7100000000000000000000000000000000000000000000000000000000600052602160045260246000fd5b1480610bed5750610bbe6109e9565b73ffffffffffffffffffffffffffffffffffffffff163373ffffffffffffffffffffffffffffffffffffffff16145b610c2c576040517f08c379a0000000000000000000000000000000000000000000000000000000008152600401610c2390611cef565b60405180910390fd5b610c726040518060400160405280601981526020017f566f74652052656365697665642e204f776e65722069733a2000000000000000815250610c6d6109e9565b61127b565b6000600160008373ffffffffffffffffffffffffffffffffffffffff1673ffffffffffffffffffffffffffffffffffffffff168152602001908152602001600020905060016002811115610cef577f4e487b7100000000000000000000000000000000000000000000000000000000600052602160045260246000fd5b8160000160009054906101000a900460ff166002811115610d39577f4e487b7100000000000000000000000000000000000000000000000000000000600052602160045260246000fd5b14610d79576040517f08c379a0000000000000000000000000000000000000000000000000000000008152600401610d7090611d6f565b60405180910390fd5b8060010160003373ffffffffffffffffffffffffffffffffffffffff1673ffffffffffffffffffffffffffffffffffffffff16815260200190815260200160002060009054906101000a900460ff1615610e08576040517f08c379a0000000000000000000000000000000000000000000000000000000008152600401610dff90611def565b60405180910390fd5b60018160010160003373ffffffffffffffffffffffffffffffffffffffff1673ffffffffffffffffffffffffffffffffffffffff16815260200190815260200160002060006101000a81548160ff02191690831515021790555080600001600181819054906101000a900460ff1680929190610e8390612063565b91906101000a81548160ff021916908360ff160217905550507fb56c0bae1f9656ed06cdfdd64813839cd5a6e652cce3338329f3c05e2ca953a182338360000160019054906101000a900460ff16604051610ee093929190611b91565b60405180910390a1600060149054906101000a900460ff1660ff168160000160019054906101000a900460ff1660ff16101580610f4f5750610f206109e9565b73ffffffffffffffffffffffffffffffffffffffff163373ffffffffffffffffffffffffffffffffffffffff16145b1561101d5760028160000160006101000a81548160ff02191690836002811115610fa2577f4e487b7100000000000000000000000000000000000000000000000000000000600052602160045260246000fd5b0217905550610fe56040518060400160405280601581526020017f436f6e7472696275746f7220636f6e6669726d65640000000000000000000000815250611317565b7fd283121480f58b0265dcca9e40475738da2f7774691845bb2b65bb88778de69d826040516110149190611b76565b60405180910390a15b5050565b61102961118e565b73ffffffffffffffffffffffffffffffffffffffff166110476109e9565b73ffffffffffffffffffffffffffffffffffffffff161461109d576040517f08c379a000000000000000000000000000000000000000000000000000000000815260040161109490611d8f565b60405180910390fd5b600073ffffffffffffffffffffffffffffffffffffffff168173ffffffffffffffffffffffffffffffffffffffff16141561110d576040517f08c379a000000000000000000000000000000000000000000000000000000000815260040161110490611d0f565b60405180910390fd5b61111681611196565b50565b6000611127826000016113b0565b9050919050565b6000611156836000018373ffffffffffffffffffffffffffffffffffffffff1660001b6113c1565b905092915050565b6000611186836000018373ffffffffffffffffffffffffffffffffffffffff1660001b611547565b905092915050565b600033905090565b60008060009054906101000a900473ffffffffffffffffffffffffffffffffffffffff169050816000806101000a81548173ffffffffffffffffffffffffffffffffffffffff021916908373ffffffffffffffffffffffffffffffffffffffff1602179055508173ffffffffffffffffffffffffffffffffffffffff168173ffffffffffffffffffffffffffffffffffffffff167f8be0079c531659141344cd1fd0a4f28419497f9722a3daafe3b4186f6b6457e060405160405180910390a35050565b6060600061126a836000016115b7565b905060608190508092505050919050565b6113138282604051602401611291929190611cbf565b6040516020818303038152906040527f319af333000000000000000000000000000000000000000000000000000000007bffffffffffffffffffffffffffffffffffffffffffffffffffffffff19166020820180517bffffffffffffffffffffffffffffffffffffffffffffffffffffffff8381831617835250505050611613565b5050565b6113ad8160405160240161132b9190611c9d565b6040516020818303038152906040527f41304fac000000000000000000000000000000000000000000000000000000007bffffffffffffffffffffffffffffffffffffffffffffffffffffffff19166020820180517bffffffffffffffffffffffffffffffffffffffffffffffffffffffff8381831617835250505050611613565b50565b600081600001805490509050919050565b6000808360010160008481526020019081526020016000205490506000811461153b5760006001826113f39190611f10565b905060006001866000018054905061140b9190611f10565b90508181146114c6576000866000018281548110611452577f4e487b7100000000000000000000000000000000000000000000000000000000600052603260045260246000fd5b906000526020600020015490508087600001848154811061149c577f4e487b7100000000000000000000000000000000000000000000000000000000600052603260045260246000fd5b90600052602060002001819055508387600101600083815260200190815260200160002081905550505b85600001805480611500577f4e487b7100000000000000000000000000000000000000000000000000000000600052603160045260246000fd5b600190038181906000526020600020016000905590558560010160008681526020019081526020016000206000905560019350505050611541565b60009150505b92915050565b6000611553838361163c565b6115ac5782600001829080600181540180825580915050600190039060005260206000200160009091909190915055826000018054905083600101600084815260200190815260200160002081905550600190506115b1565b600090505b92915050565b60608160000180548060200260200160405190810160405280929190818152602001828054801561160757602002820191906000526020600020905b8154815260200190600101908083116115f3575b50505050509050919050565b60008151905060006a636f6e736f6c652e6c6f679050602083016000808483855afa5050505050565b600080836001016000848152602001908152602001600020541415905092915050565b50805461166b90612000565b6000825580601f1061167d575061169c565b601f01602090049060005260206000209081019061169b9190611725565b5b50565b8280546116ab90612000565b90600052602060002090601f0160209004810192826116cd5760008555611714565b82601f106116e657805160ff1916838001178555611714565b82800160010185558215611714579182015b828111156117135782518255916020019190600101906116f8565b5b5090506117219190611725565b5090565b5b8082111561173e576000816000905550600101611726565b5090565b600061175561175084611e6a565b611e45565b90508281526020810184848401111561176d57600080fd5b611778848285611fbe565b509392505050565b60008135905061178f816123e9565b92915050565b600082601f8301126117a657600080fd5b81356117b6848260208601611742565b91505092915050565b6000602082840312156117d157600080fd5b60006117df84828501611780565b91505092915050565b600080604083850312156117fb57600080fd5b600083013567ffffffffffffffff81111561181557600080fd5b61182185828601611795565b925050602083013567ffffffffffffffff81111561183e57600080fd5b61184a85828601611795565b9150509250929050565b6000611860838361186c565b60208301905092915050565b61187581611f44565b82525050565b61188481611f44565b82525050565b600061189582611ec0565b61189f8185611ee3565b93506118aa83611e9b565b8060005b838110156118db5781516118c28882611854565b97506118cd83611ed6565b9250506001810190506118ae565b5085935050505092915050565b6118f181611f56565b82525050565b61190081611fac565b82525050565b600061191182611ecb565b61191b8185611ef4565b935061192b818560208601611fcd565b61193481612149565b840191505092915050565b600061194a82611ecb565b6119548185611f05565b9350611964818560208601611fcd565b80840191505092915050565b6000815461197d81612000565b6119878186611f05565b945060018216600081146119a257600181146119b3576119e6565b60ff198316865281860193506119e6565b6119bc85611eab565b60005b838110156119de578154818901526001820191506020810190506119bf565b838801955050505b50505092915050565b60006119fc603983611ef4565b9150611a078261215a565b604082019050919050565b6000611a1f602683611ef4565b9150611a2a826121a9565b604082019050919050565b6000611a42602483611ef4565b9150611a4d826121f8565b604082019050919050565b6000611a65602283611ef4565b9150611a7082612247565b604082019050919050565b6000611a88602a83611ef4565b9150611a9382612296565b604082019050919050565b6000611aab602083611ef4565b9150611ab6826122e5565b602082019050919050565b6000611ace602583611ef4565b9150611ad98261230e565b604082019050919050565b6000611af1601e83611ef4565b9150611afc8261235d565b602082019050919050565b6000611b14602883611ef4565b9150611b1f82612386565b604082019050919050565b611b3381611f95565b82525050565b611b4281611f9f565b82525050565b6000611b54828461193f565b915081905092915050565b6000611b6b8284611970565b915081905092915050565b6000602082019050611b8b600083018461187b565b92915050565b6000606082019050611ba6600083018661187b565b611bb3602083018561187b565b611bc06040830184611b39565b949350505050565b6000606082019050611bdd600083018661187b565b8181036020830152611bef8185611906565b90508181036040830152611c038184611906565b9050949350505050565b60006020820190508181036000830152611c27818461188a565b905092915050565b6000602082019050611c4460008301846118e8565b92915050565b6000608082019050611c5f60008301876118f7565b611c6c6020830186611b39565b8181036040830152611c7e8185611906565b90508181036060830152611c928184611906565b905095945050505050565b60006020820190508181036000830152611cb78184611906565b905092915050565b60006040820190508181036000830152611cd98185611906565b9050611ce8602083018461187b565b9392505050565b60006020820190508181036000830152611d08816119ef565b9050919050565b60006020820190508181036000830152611d2881611a12565b9050919050565b60006020820190508181036000830152611d4881611a35565b9050919050565b60006020820190508181036000830152611d6881611a58565b9050919050565b60006020820190508181036000830152611d8881611a7b565b9050919050565b60006020820190508181036000830152611da881611a9e565b9050919050565b60006020820190508181036000830152611dc881611ac1565b9050919050565b60006020820190508181036000830152611de881611ae4565b9050919050565b60006020820190508181036000830152611e0881611b07565b9050919050565b6000602082019050611e246000830184611b2a565b92915050565b6000602082019050611e3f6000830184611b39565b92915050565b6000611e4f611e60565b9050611e5b8282612032565b919050565b6000604051905090565b600067ffffffffffffffff821115611e8557611e8461211a565b5b611e8e82612149565b9050602081019050919050565b6000819050602082019050919050565b60008190508160005260206000209050919050565b600081519050919050565b600081519050919050565b6000602082019050919050565b600082825260208201905092915050565b600082825260208201905092915050565b600081905092915050565b6000611f1b82611f95565b9150611f2683611f95565b925082821015611f3957611f3861208d565b5b828203905092915050565b6000611f4f82611f75565b9050919050565b60008115159050919050565b6000819050611f70826123d5565b919050565b600073ffffffffffffffffffffffffffffffffffffffff82169050919050565b6000819050919050565b600060ff82169050919050565b6000611fb782611f62565b9050919050565b82818337600083830152505050565b60005b83811015611feb578082015181840152602081019050611fd0565b83811115611ffa576000848401525b50505050565b6000600282049050600182168061201857607f821691505b6020821081141561202c5761202b6120eb565b5b50919050565b61203b82612149565b810181811067ffffffffffffffff8211171561205a5761205961211a565b5b80604052505050565b600061206e82611f9f565b915060ff8214156120825761208161208d565b5b600182019050919050565b7f4e487b7100000000000000000000000000000000000000000000000000000000600052601160045260246000fd5b7f4e487b7100000000000000000000000000000000000000000000000000000000600052602160045260246000fd5b7f4e487b7100000000000000000000000000000000000000000000000000000000600052602260045260246000fd5b7f4e487b7100000000000000000000000000000000000000000000000000000000600052604160045260246000fd5b6000601f19601f8301169050919050565b7f566f7465722068617320746f206265206120636f6e6669726d656420636f6e7460008201527f72696275746f72206f7220636f6e7472616374206f776e657200000000000000602082015250565b7f4f776e61626c653a206e6577206f776e657220697320746865207a65726f206160008201527f6464726573730000000000000000000000000000000000000000000000000000602082015250565b7f446973636f72642068616e646c6520697320616c72656164792072656769737460008201527f6572656400000000000000000000000000000000000000000000000000000000602082015250565b7f4f6e6c79206f776e65722063616e2064656c65746520636f6e7472696275746f60008201527f7273000000000000000000000000000000000000000000000000000000000000602082015250565b7f436f6e7472696275746f72206973206e6f7420696e20636f6e6669726d61746960008201527f6f6e2070726f6365737300000000000000000000000000000000000000000000602082015250565b7f4f776e61626c653a2063616c6c6572206973206e6f7420746865206f776e6572600082015250565b7f47697468756220757365726e616d6520697320616c726561647920726567697360008201527f7465726564000000000000000000000000000000000000000000000000000000602082015250565b7f4163636f756e7420686173207265676973746572656420616c72656164790000600082015250565b7f566f74657220616c726561647920766f74656420666f72207468697320636f6e60008201527f7472696275746f72000000000000000000000000000000000000000000000000602082015250565b600381106123e6576123e56120bc565b5b50565b6123f281611f44565b81146123fd57600080fd5b5056fea2646970667358221220a337d26b6b67536725db893a3ba327d8b203e34a9e8604bf8b3237b948995b8164736f6c63430008040033",
  "linkReferences": {},
  "deployedLinkReferences": {}
}