{
  "_format": "hh-sol-artifact-1",
  "contractName": "ContributorRegistry",
  "sourceName": "contracts/ContributorRegistry.sol",
  "abi": [
    {
      "inputs": [
        {
          "internalType": "uint8",
          "name": "_requiredConfirmations",
          "type": "uint8"
        }
      ],
      "stateMutability": "nonpayable",
      "type": "constructor"
    },
    {
      "anonymous": false,
      "inputs": [
        {
          "indexed": false,
          "internalType": "address",
          "name": "contributor",
          "type": "address"
        },
        {
          "indexed": false,
          "internalType": "address",
          "name": "voter",
          "type": "address"
        },
        {
          "indexed": false,
          "internalType": "uint8",
          "name": "numVotes",
          "type": "uint8"
        }
      ],
      "name": "ConfirmationVote",
      "type": "event"
    },
    {
      "anonymous": false,
      "inputs": [
        {
          "indexed": false,
          "internalType": "address",
          "name": "contributor",
          "type": "address"
        }
      ],
      "name": "ContributorConfirmed",
      "type": "event"
    },
    {
      "anonymous": false,
      "inputs": [
        {
          "indexed": true,
          "internalType": "address",
          "name": "previousOwner",
          "type": "address"
        },
        {
          "indexed": true,
          "internalType": "address",
          "name": "newOwner",
          "type": "address"
        }
      ],
      "name": "OwnershipTransferred",
      "type": "event"
    },
    {
      "anonymous": false,
      "inputs": [
        {
          "indexed": false,
          "internalType": "address",
          "name": "contributor",
          "type": "address"
        },
        {
          "indexed": false,
          "internalType": "string",
          "name": "discordHandle",
          "type": "string"
        },
        {
          "indexed": false,
          "internalType": "string",
          "name": "githubUsername",
          "type": "string"
        }
      ],
      "name": "Registered",
      "type": "event"
    },
    {
      "anonymous": false,
      "inputs": [
        {
          "indexed": false,
          "internalType": "address",
          "name": "contributor",
          "type": "address"
        }
      ],
      "name": "UnRegistered",
      "type": "event"
    },
    {
      "inputs": [
        {
          "internalType": "address",
          "name": "_contributorAddress",
          "type": "address"
        }
      ],
      "name": "confirm",
      "outputs": [],
      "stateMutability": "nonpayable",
      "type": "function"
    },
    {
      "inputs": [
        {
          "internalType": "address",
          "name": "",
          "type": "address"
        }
      ],
      "name": "contributors",
      "outputs": [
        {
          "internalType": "enum ContributorRegistry.Status",
          "name": "status",
          "type": "uint8"
        },
        {
          "internalType": "uint8",
          "name": "numConfirmationVotes",
          "type": "uint8"
        },
        {
          "internalType": "string",
          "name": "discordHandle",
          "type": "string"
        },
        {
          "internalType": "string",
          "name": "githubUsername",
          "type": "string"
        }
      ],
      "stateMutability": "view",
      "type": "function"
    },
    {
      "inputs": [
        {
          "internalType": "address",
          "name": "user",
          "type": "address"
        }
      ],
      "name": "isValidVoter",
      "outputs": [
        {
          "internalType": "bool",
          "name": "",
          "type": "bool"
        }
      ],
      "stateMutability": "nonpayable",
      "type": "function"
    },
    {
      "inputs": [],
      "name": "numRegisteredContributors",
      "outputs": [
        {
          "internalType": "uint256",
          "name": "",
          "type": "uint256"
        }
      ],
      "stateMutability": "view",
      "type": "function"
    },
    {
      "inputs": [],
      "name": "owner",
      "outputs": [
        {
          "internalType": "address",
          "name": "",
          "type": "address"
        }
      ],
      "stateMutability": "view",
      "type": "function"
    },
    {
      "inputs": [
        {
          "internalType": "string",
          "name": "_discordHandle",
          "type": "string"
        },
        {
          "internalType": "string",
          "name": "_githubUsername",
          "type": "string"
        }
      ],
      "name": "register",
      "outputs": [],
      "stateMutability": "nonpayable",
      "type": "function"
    },
    {
      "inputs": [],
      "name": "registeredContributorAddresses",
      "outputs": [
        {
          "internalType": "address[]",
          "name": "",
          "type": "address[]"
        }
      ],
      "stateMutability": "view",
      "type": "function"
    },
    {
      "inputs": [],
      "name": "renounceOwnership",
      "outputs": [],
      "stateMutability": "nonpayable",
      "type": "function"
    },
    {
      "inputs": [],
      "name": "requiredConfirmations",
      "outputs": [
        {
          "internalType": "uint8",
          "name": "",
          "type": "uint8"
        }
      ],
      "stateMutability": "view",
      "type": "function"
    },
    {
      "inputs": [
        {
          "internalType": "address",
          "name": "newOwner",
          "type": "address"
        }
      ],
      "name": "transferOwnership",
      "outputs": [],
      "stateMutability": "nonpayable",
      "type": "function"
    },
    {
      "inputs": [
        {
          "internalType": "address",
          "name": "_contributorAddress",
          "type": "address"
        }
      ],
      "name": "unregister",
      "outputs": [],
      "stateMutability": "nonpayable",
      "type": "function"
    }
  ],
  "bytecode": "0x60806040523480156200001157600080fd5b50604051620023c1380380620023c183398181016040528101906200003791906200015c565b620000576200004b6200007960201b60201c565b6200008160201b60201c565b80600060146101000a81548160ff021916908360ff16021790555050620001af565b600033905090565b60008060009054906101000a900473ffffffffffffffffffffffffffffffffffffffff169050816000806101000a81548173ffffffffffffffffffffffffffffffffffffffff021916908373ffffffffffffffffffffffffffffffffffffffff1602179055508173ffffffffffffffffffffffffffffffffffffffff168173ffffffffffffffffffffffffffffffffffffffff167f8be0079c531659141344cd1fd0a4f28419497f9722a3daafe3b4186f6b6457e060405160405180910390a35050565b600081519050620001568162000195565b92915050565b6000602082840312156200016f57600080fd5b60006200017f8482850162000145565b91505092915050565b600060ff82169050919050565b620001a08162000188565b8114620001ac57600080fd5b50565b61220280620001bf6000396000f3fe608060405234801561001057600080fd5b50600436106100a95760003560e01c806382e717f71161007157806382e717f7146101415780638da5cb5b1461015f578063be75e4d41461017d578063d25b11e01461019b578063eb4dd8f2146101cb578063f2fde38b146101e7576100a9565b80631746e763146100ae5780631f6d4942146100cc5780632ec2c246146100ff5780633ffbd47f1461011b578063715018a614610137575b600080fd5b6100b6610203565b6040516100c39190611bdb565b60405180910390f35b6100e660048036038101906100e191906115dd565b610214565b6040516100f69493929190611a68565b60405180910390f35b610119600480360381019061011491906115dd565b61036e565b005b61013560048036038101906101309190611606565b610574565b005b61013f61094e565b005b6101496109d6565b6040516101569190611bf6565b60405180910390f35b6101676109e9565b6040516101749190611994565b60405180910390f35b610185610a12565b6040516101929190611a2b565b60405180910390f35b6101b560048036038101906101b091906115dd565b610a23565b6040516101c29190611a4d565b60405180910390f35b6101e560048036038101906101e091906115dd565b610aee565b005b61020160048036038101906101fc91906115dd565b610f9d565b005b600061020f6004611095565b905090565b60016020528060005260406000206000915090508060000160009054906101000a900460ff16908060000160019054906101000a900460ff169080600201805461025d90611dcc565b80601f016020809104026020016040519081016040528092919081815260200182805461028990611dcc565b80156102d65780601f106102ab576101008083540402835291602001916102d6565b820191906000526020600020905b8154815290600101906020018083116102b957829003601f168201915b5050505050908060030180546102eb90611dcc565b80601f016020809104026020016040519081016040528092919081815260200182805461031790611dcc565b80156103645780601f1061033957610100808354040283529160200191610364565b820191906000526020600020905b81548152906001019060200180831161034757829003601f168201915b5050505050905084565b6103766109e9565b73ffffffffffffffffffffffffffffffffffffffff163373ffffffffffffffffffffffffffffffffffffffff16146103e3576040517f08c379a00000000000000000000000000000000000000000000000000000000081526004016103da90611b1b565b60405180910390fd5b6000600160008373ffffffffffffffffffffffffffffffffffffffff1673ffffffffffffffffffffffffffffffffffffffff1681526020019081526020016000209050600060028260020160405161043b919061197d565b908152602001604051809103902060006101000a81548160ff0219169083151502179055506000600382600301604051610475919061197d565b908152602001604051809103902060006101000a81548160ff021916908315150217905550600160008373ffffffffffffffffffffffffffffffffffffffff1673ffffffffffffffffffffffffffffffffffffffff168152602001908152602001600020600080820160006101000a81549060ff02191690556000820160016101000a81549060ff0219169055600282016000610512919061147d565b600382016000610522919061147d565b50506105388260046110aa90919063ffffffff16565b507f4803dcd528253b802a22997f7a3b15bcc6be53c1f2ba8f110aa26c25d652a68f826040516105689190611994565b60405180910390a15050565b600060028111156105ae577f4e487b7100000000000000000000000000000000000000000000000000000000600052602160045260246000fd5b600160003373ffffffffffffffffffffffffffffffffffffffff1673ffffffffffffffffffffffffffffffffffffffff16815260200190815260200160002060000160009054906101000a900460ff166002811115610636577f4e487b7100000000000000000000000000000000000000000000000000000000600052602160045260246000fd5b14610676576040517f08c379a000000000000000000000000000000000000000000000000000000000815260040161066d90611b9b565b60405180910390fd5b6002826040516106869190611966565b908152602001604051809103902060009054906101000a900460ff16156106e2576040517f08c379a00000000000000000000000000000000000000000000000000000000081526004016106d990611afb565b60405180910390fd5b6003816040516106f29190611966565b908152602001604051809103902060009054906101000a900460ff161561074e576040517f08c379a000000000000000000000000000000000000000000000000000000000815260040161074590611b7b565b60405180910390fd5b6107623360046110da90919063ffffffff16565b5060016002836040516107759190611966565b908152602001604051809103902060006101000a81548160ff02191690831515021790555081600160003373ffffffffffffffffffffffffffffffffffffffff1673ffffffffffffffffffffffffffffffffffffffff16815260200190815260200160002060020190805190602001906107f09291906114bd565b5060016003826040516108039190611966565b908152602001604051809103902060006101000a81548160ff02191690831515021790555080600160003373ffffffffffffffffffffffffffffffffffffffff1673ffffffffffffffffffffffffffffffffffffffff168152602001908152602001600020600301908051906020019061087e9291906114bd565b5060018060003373ffffffffffffffffffffffffffffffffffffffff1673ffffffffffffffffffffffffffffffffffffffff16815260200190815260200160002060000160006101000a81548160ff0219169083600281111561090a577f4e487b7100000000000000000000000000000000000000000000000000000000600052602160045260246000fd5b02179055507f80788e6e1951532975ceb5ca698dfbf35d3a99bc9c440d8e1bb7301534ab72a2338383604051610942939291906119e6565b60405180910390a15050565b61095661110a565b73ffffffffffffffffffffffffffffffffffffffff166109746109e9565b73ffffffffffffffffffffffffffffffffffffffff16146109ca576040517f08c379a00000000000000000000000000000000000000000000000000000000081526004016109c190611b5b565b60405180910390fd5b6109d46000611112565b565b600060149054906101000a900460ff1681565b60008060009054906101000a900473ffffffffffffffffffffffffffffffffffffffff16905090565b6060610a1e60046111d6565b905090565b6000600280811115610a5e577f4e487b7100000000000000000000000000000000000000000000000000000000600052602160045260246000fd5b600160008473ffffffffffffffffffffffffffffffffffffffff1673ffffffffffffffffffffffffffffffffffffffff16815260200190815260200160002060000160009054906101000a900460ff166002811115610ae6577f4e487b7100000000000000000000000000000000000000000000000000000000600052602160045260246000fd5b149050919050565b600280811115610b27577f4e487b7100000000000000000000000000000000000000000000000000000000600052602160045260246000fd5b600160003373ffffffffffffffffffffffffffffffffffffffff1673ffffffffffffffffffffffffffffffffffffffff16815260200190815260200160002060000160009054906101000a900460ff166002811115610baf577f4e487b7100000000000000000000000000000000000000000000000000000000600052602160045260246000fd5b1480610bed5750610bbe6109e9565b73ffffffffffffffffffffffffffffffffffffffff163373ffffffffffffffffffffffffffffffffffffffff16145b610c2c576040517f08c379a0000000000000000000000000000000000000000000000000000000008152600401610c2390611abb565b60405180910390fd5b6000600160008373ffffffffffffffffffffffffffffffffffffffff1673ffffffffffffffffffffffffffffffffffffffff168152602001908152602001600020905060016002811115610ca9577f4e487b7100000000000000000000000000000000000000000000000000000000600052602160045260246000fd5b8160000160009054906101000a900460ff166002811115610cf3577f4e487b7100000000000000000000000000000000000000000000000000000000600052602160045260246000fd5b14610d33576040517f08c379a0000000000000000000000000000000000000000000000000000000008152600401610d2a90611b3b565b60405180910390fd5b8060010160003373ffffffffffffffffffffffffffffffffffffffff1673ffffffffffffffffffffffffffffffffffffffff16815260200190815260200160002060009054906101000a900460ff1615610dc2576040517f08c379a0000000000000000000000000000000000000000000000000000000008152600401610db990611bbb565b60405180910390fd5b60018160010160003373ffffffffffffffffffffffffffffffffffffffff1673ffffffffffffffffffffffffffffffffffffffff16815260200190815260200160002060006101000a81548160ff02191690831515021790555080600001600181819054906101000a900460ff1680929190610e3d90611e2f565b91906101000a81548160ff021916908360ff160217905550507fb56c0bae1f9656ed06cdfdd64813839cd5a6e652cce3338329f3c05e2ca953a182338360000160019054906101000a900460ff16604051610e9a939291906119af565b60405180910390a1600060149054906101000a900460ff1660ff168160000160019054906101000a900460ff1660ff16101580610f095750610eda6109e9565b73ffffffffffffffffffffffffffffffffffffffff163373ffffffffffffffffffffffffffffffffffffffff16145b15610f995760028160000160006101000a81548160ff02191690836002811115610f5c577f4e487b7100000000000000000000000000000000000000000000000000000000600052602160045260246000fd5b02179055507fd283121480f58b0265dcca9e40475738da2f7774691845bb2b65bb88778de69d82604051610f909190611994565b60405180910390a15b5050565b610fa561110a565b73ffffffffffffffffffffffffffffffffffffffff16610fc36109e9565b73ffffffffffffffffffffffffffffffffffffffff1614611019576040517f08c379a000000000000000000000000000000000000000000000000000000000815260040161101090611b5b565b60405180910390fd5b600073ffffffffffffffffffffffffffffffffffffffff168173ffffffffffffffffffffffffffffffffffffffff161415611089576040517f08c379a000000000000000000000000000000000000000000000000000000000815260040161108090611adb565b60405180910390fd5b61109281611112565b50565b60006110a3826000016111f7565b9050919050565b60006110d2836000018373ffffffffffffffffffffffffffffffffffffffff1660001b611208565b905092915050565b6000611102836000018373ffffffffffffffffffffffffffffffffffffffff1660001b61138e565b905092915050565b600033905090565b60008060009054906101000a900473ffffffffffffffffffffffffffffffffffffffff169050816000806101000a81548173ffffffffffffffffffffffffffffffffffffffff021916908373ffffffffffffffffffffffffffffffffffffffff1602179055508173ffffffffffffffffffffffffffffffffffffffff168173ffffffffffffffffffffffffffffffffffffffff167f8be0079c531659141344cd1fd0a4f28419497f9722a3daafe3b4186f6b6457e060405160405180910390a35050565b606060006111e6836000016113fe565b905060608190508092505050919050565b600081600001805490509050919050565b6000808360010160008481526020019081526020016000205490506000811461138257600060018261123a9190611cdc565b90506000600186600001805490506112529190611cdc565b905081811461130d576000866000018281548110611299577f4e487b7100000000000000000000000000000000000000000000000000000000600052603260045260246000fd5b90600052602060002001549050808760000184815481106112e3577f4e487b7100000000000000000000000000000000000000000000000000000000600052603260045260246000fd5b90600052602060002001819055508387600101600083815260200190815260200160002081905550505b85600001805480611347577f4e487b7100000000000000000000000000000000000000000000000000000000600052603160045260246000fd5b600190038181906000526020600020016000905590558560010160008681526020019081526020016000206000905560019350505050611388565b60009150505b92915050565b600061139a838361145a565b6113f35782600001829080600181540180825580915050600190039060005260206000200160009091909190915055826000018054905083600101600084815260200190815260200160002081905550600190506113f8565b600090505b92915050565b60608160000180548060200260200160405190810160405280929190818152602001828054801561144e57602002820191906000526020600020905b81548152602001906001019080831161143a575b50505050509050919050565b600080836001016000848152602001908152602001600020541415905092915050565b50805461148990611dcc565b6000825580601f1061149b57506114ba565b601f0160209004906000526020600020908101906114b99190611543565b5b50565b8280546114c990611dcc565b90600052602060002090601f0160209004810192826114eb5760008555611532565b82601f1061150457805160ff1916838001178555611532565b82800160010185558215611532579182015b82811115611531578251825591602001919060010190611516565b5b50905061153f9190611543565b5090565b5b8082111561155c576000816000905550600101611544565b5090565b600061157361156e84611c36565b611c11565b90508281526020810184848401111561158b57600080fd5b611596848285611d8a565b509392505050565b6000813590506115ad816121b5565b92915050565b600082601f8301126115c457600080fd5b81356115d4848260208601611560565b91505092915050565b6000602082840312156115ef57600080fd5b60006115fd8482850161159e565b91505092915050565b6000806040838503121561161957600080fd5b600083013567ffffffffffffffff81111561163357600080fd5b61163f858286016115b3565b925050602083013567ffffffffffffffff81111561165c57600080fd5b611668858286016115b3565b9150509250929050565b600061167e838361168a565b60208301905092915050565b61169381611d10565b82525050565b6116a281611d10565b82525050565b60006116b382611c8c565b6116bd8185611caf565b93506116c883611c67565b8060005b838110156116f95781516116e08882611672565b97506116eb83611ca2565b9250506001810190506116cc565b5085935050505092915050565b61170f81611d22565b82525050565b61171e81611d78565b82525050565b600061172f82611c97565b6117398185611cc0565b9350611749818560208601611d99565b61175281611f15565b840191505092915050565b600061176882611c97565b6117728185611cd1565b9350611782818560208601611d99565b80840191505092915050565b6000815461179b81611dcc565b6117a58186611cd1565b945060018216600081146117c057600181146117d157611804565b60ff19831686528186019350611804565b6117da85611c77565b60005b838110156117fc578154818901526001820191506020810190506117dd565b838801955050505b50505092915050565b600061181a603983611cc0565b915061182582611f26565b604082019050919050565b600061183d602683611cc0565b915061184882611f75565b604082019050919050565b6000611860602483611cc0565b915061186b82611fc4565b604082019050919050565b6000611883602283611cc0565b915061188e82612013565b604082019050919050565b60006118a6602a83611cc0565b91506118b182612062565b604082019050919050565b60006118c9602083611cc0565b91506118d4826120b1565b602082019050919050565b60006118ec602583611cc0565b91506118f7826120da565b604082019050919050565b600061190f601e83611cc0565b915061191a82612129565b602082019050919050565b6000611932602883611cc0565b915061193d82612152565b604082019050919050565b61195181611d61565b82525050565b61196081611d6b565b82525050565b6000611972828461175d565b915081905092915050565b6000611989828461178e565b915081905092915050565b60006020820190506119a96000830184611699565b92915050565b60006060820190506119c46000830186611699565b6119d16020830185611699565b6119de6040830184611957565b949350505050565b60006060820190506119fb6000830186611699565b8181036020830152611a0d8185611724565b90508181036040830152611a218184611724565b9050949350505050565b60006020820190508181036000830152611a4581846116a8565b905092915050565b6000602082019050611a626000830184611706565b92915050565b6000608082019050611a7d6000830187611715565b611a8a6020830186611957565b8181036040830152611a9c8185611724565b90508181036060830152611ab08184611724565b905095945050505050565b60006020820190508181036000830152611ad48161180d565b9050919050565b60006020820190508181036000830152611af481611830565b9050919050565b60006020820190508181036000830152611b1481611853565b9050919050565b60006020820190508181036000830152611b3481611876565b9050919050565b60006020820190508181036000830152611b5481611899565b9050919050565b60006020820190508181036000830152611b74816118bc565b9050919050565b60006020820190508181036000830152611b94816118df565b9050919050565b60006020820190508181036000830152611bb481611902565b9050919050565b60006020820190508181036000830152611bd481611925565b9050919050565b6000602082019050611bf06000830184611948565b92915050565b6000602082019050611c0b6000830184611957565b92915050565b6000611c1b611c2c565b9050611c278282611dfe565b919050565b6000604051905090565b600067ffffffffffffffff821115611c5157611c50611ee6565b5b611c5a82611f15565b9050602081019050919050565b6000819050602082019050919050565b60008190508160005260206000209050919050565b600081519050919050565b600081519050919050565b6000602082019050919050565b600082825260208201905092915050565b600082825260208201905092915050565b600081905092915050565b6000611ce782611d61565b9150611cf283611d61565b925082821015611d0557611d04611e59565b5b828203905092915050565b6000611d1b82611d41565b9050919050565b60008115159050919050565b6000819050611d3c826121a1565b919050565b600073ffffffffffffffffffffffffffffffffffffffff82169050919050565b6000819050919050565b600060ff82169050919050565b6000611d8382611d2e565b9050919050565b82818337600083830152505050565b60005b83811015611db7578082015181840152602081019050611d9c565b83811115611dc6576000848401525b50505050565b60006002820490506001821680611de457607f821691505b60208210811415611df857611df7611eb7565b5b50919050565b611e0782611f15565b810181811067ffffffffffffffff82111715611e2657611e25611ee6565b5b80604052505050565b6000611e3a82611d6b565b915060ff821415611e4e57611e4d611e59565b5b600182019050919050565b7f4e487b7100000000000000000000000000000000000000000000000000000000600052601160045260246000fd5b7f4e487b7100000000000000000000000000000000000000000000000000000000600052602160045260246000fd5b7f4e487b7100000000000000000000000000000000000000000000000000000000600052602260045260246000fd5b7f4e487b7100000000000000000000000000000000000000000000000000000000600052604160045260246000fd5b6000601f19601f8301169050919050565b7f566f7465722068617320746f206265206120636f6e6669726d656420636f6e7460008201527f72696275746f72206f7220636f6e7472616374206f776e657200000000000000602082015250565b7f4f776e61626c653a206e6577206f776e657220697320746865207a65726f206160008201527f6464726573730000000000000000000000000000000000000000000000000000602082015250565b7f446973636f72642068616e646c6520697320616c72656164792072656769737460008201527f6572656400000000000000000000000000000000000000000000000000000000602082015250565b7f4f6e6c79206f776e65722063616e2064656c65746520636f6e7472696275746f60008201527f7273000000000000000000000000000000000000000000000000000000000000602082015250565b7f436f6e7472696275746f72206973206e6f7420696e20636f6e6669726d61746960008201527f6f6e2070726f6365737300000000000000000000000000000000000000000000602082015250565b7f4f776e61626c653a2063616c6c6572206973206e6f7420746865206f776e6572600082015250565b7f47697468756220757365726e616d6520697320616c726561647920726567697360008201527f7465726564000000000000000000000000000000000000000000000000000000602082015250565b7f4163636f756e7420686173207265676973746572656420616c72656164790000600082015250565b7f566f74657220616c726561647920766f74656420666f72207468697320636f6e60008201527f7472696275746f72000000000000000000000000000000000000000000000000602082015250565b600381106121b2576121b1611e88565b5b50565b6121be81611d10565b81146121c957600080fd5b5056fea264697066735822122022fdd9fe5c3070d910ac50e0516cada32cf4462e996018eb54b9d1986fbf210a64736f6c63430008040033",
  "linkReferences": {},
  "deployedLinkReferences": {}
}