{
  "address": "0x00f8eEfd1Db82D323584a6172EA8F4e715920f7f",
  "abi": [
    {
      "inputs": [
        {
          "internalType": "contract IConstantFlowAgreementV1",
          "name": "cfa",
          "type": "address"
        },
        {
          "internalType": "contract ISuperfluid",
          "name": "superfluid",
          "type": "address"
        }
      ],
      "stateMutability": "nonpayable",
      "type": "constructor"
    },
    {
      "anonymous": false,
      "inputs": [
        {
          "indexed": false,
          "internalType": "string",
          "name": "name",
          "type": "string"
        },
        {
          "indexed": false,
          "internalType": "uint256",
          "name": "daoId",
          "type": "uint256"
        },
        {
          "indexed": false,
          "internalType": "address",
          "name": "parent",
          "type": "address"
        }
      ],
      "name": "DaoRegistered",
      "type": "event"
    },
    {
      "anonymous": false,
      "inputs": [
        {
          "indexed": true,
          "internalType": "address",
          "name": "previousOwner",
          "type": "address"
        },
        {
          "indexed": true,
          "internalType": "address",
          "name": "newOwner",
          "type": "address"
        }
      ],
      "name": "OwnershipTransferred",
      "type": "event"
    },
    {
      "inputs": [
        {
          "internalType": "address",
          "name": "",
          "type": "address"
        }
      ],
      "name": "addressToDAO",
      "outputs": [
        {
          "internalType": "uint256",
          "name": "",
          "type": "uint256"
        }
      ],
      "stateMutability": "view",
      "type": "function"
    },
    {
      "inputs": [
        {
          "internalType": "uint256",
          "name": "",
          "type": "uint256"
        }
      ],
      "name": "daoList",
      "outputs": [
        {
          "internalType": "string",
          "name": "name",
          "type": "string"
        },
        {
          "internalType": "contract ContributorRegistry",
          "name": "contributorRegistry",
          "type": "address"
        },
        {
          "internalType": "contract RoundManager",
          "name": "roundManager",
          "type": "address"
        },
        {
          "internalType": "contract PaymentStream",
          "name": "paymentStream",
          "type": "address"
        },
        {
          "internalType": "uint256",
          "name": "salaryPerRound",
          "type": "uint256"
        },
        {
          "internalType": "uint256",
          "name": "salaryPeriod",
          "type": "uint256"
        }
      ],
      "stateMutability": "view",
      "type": "function"
    },
    {
      "inputs": [
        {
          "internalType": "uint256",
          "name": "",
          "type": "uint256"
        }
      ],
      "name": "daoToAddress",
      "outputs": [
        {
          "internalType": "address",
          "name": "",
          "type": "address"
        }
      ],
      "stateMutability": "view",
      "type": "function"
    },
    {
      "inputs": [
        {
          "internalType": "uint256",
          "name": "daoID",
          "type": "uint256"
        }
      ],
      "name": "distributeSalaries",
      "outputs": [],
      "stateMutability": "nonpayable",
      "type": "function"
    },
    {
      "inputs": [
        {
          "internalType": "address",
          "name": "",
          "type": "address"
        }
      ],
      "name": "hasSalary",
      "outputs": [
        {
          "internalType": "bool",
          "name": "",
          "type": "bool"
        }
      ],
      "stateMutability": "view",
      "type": "function"
    },
    {
      "inputs": [],
      "name": "owner",
      "outputs": [
        {
          "internalType": "address",
          "name": "",
          "type": "address"
        }
      ],
      "stateMutability": "view",
      "type": "function"
    },
    {
      "inputs": [
        {
          "internalType": "string",
          "name": "name",
          "type": "string"
        },
        {
          "internalType": "uint8",
          "name": "_requiredConfirmations",
          "type": "uint8"
        },
        {
          "internalType": "uint256",
          "name": "_timePerRound",
          "type": "uint256"
        },
        {
          "internalType": "bool",
          "name": "_timed",
          "type": "bool"
        },
        {
          "internalType": "uint256",
          "name": "_salaryPerRound",
          "type": "uint256"
        },
        {
          "internalType": "uint256",
          "name": "_salaryPeriod",
          "type": "uint256"
        }
      ],
      "name": "register",
      "outputs": [],
      "stateMutability": "nonpayable",
      "type": "function"
    },
    {
      "inputs": [],
      "name": "renounceOwnership",
      "outputs": [],
      "stateMutability": "nonpayable",
      "type": "function"
    },
    {
      "inputs": [
        {
          "internalType": "address",
          "name": "newOwner",
          "type": "address"
        }
      ],
      "name": "transferOwnership",
      "outputs": [],
      "stateMutability": "nonpayable",
      "type": "function"
    },
    {
      "inputs": [
        {
          "internalType": "uint256",
          "name": "",
          "type": "uint256"
        },
        {
          "internalType": "address",
          "name": "",
          "type": "address"
        }
      ],
      "name": "userPaidForRound",
      "outputs": [
        {
          "internalType": "bool",
          "name": "",
          "type": "bool"
        }
      ],
      "stateMutability": "view",
      "type": "function"
    }
  ],
  "transactionHash": "0xeeaf405bc23fa33074863bf91f7c0a5e3b504440ff6d3f866f005830338c677a",
  "args": [
    "0x49e565Ed1bdc17F3d220f72DF0857C26FA83F873",
    "0xEB796bdb90fFA0f28255275e16936D25d3418603"
  ],
  "solcInputHash": "f2ceaee95f3996a172426fe4fa90376e",
  "bytecode": "0x60806040523480156200001157600080fd5b5060405162005513380380620055138339810160408190526200003491620000ce565b62000048620000426200007a565b6200007e565b600680546001600160a01b039384166001600160a01b0319918216179091556007805492909316911617905562000125565b3390565b600080546001600160a01b038381166001600160a01b0319831681178455604051919092169283917f8be0079c531659141344cd1fd0a4f28419497f9722a3daafe3b4186f6b6457e09190a35050565b60008060408385031215620000e1578182fd5b8251620000ee816200010c565b602084015190925062000101816200010c565b809150509250929050565b6001600160a01b03811681146200012257600080fd5b50565b6153de80620001356000396000f3fe60806040523480156200001157600080fd5b50600436106200009a5760003560e01c80631f0193e8146200009f5780632bb5e41214620000ce5780633593e5d214620000f457806337dd27f8146200010d578063715018a6146200013857806374f20cfd1462000142578063821f119714620001595780638da5cb5b146200017f578063b71ddef41462000189578063f2fde38b14620001a0575b600080fd5b620000b6620000b036600462000e22565b620001b7565b604051620000c5919062000ed4565b60405180910390f35b620000e5620000df36600462000c64565b620001d2565b604051620000c59190620010be565b6200010b6200010536600462000d49565b620001e4565b005b620001246200011e36600462000e22565b6200044f565b604051620000c59695949392919062000fc6565b6200010b6200053b565b6200010b6200015336600462000e22565b62000598565b620001706200016a36600462000c64565b62000a57565b604051620000c5919062000f98565b620000b662000a6c565b620001706200019a36600462000e54565b62000a7b565b6200010b620001b136600462000c64565b62000a9b565b6003602052600090815260409020546001600160a01b031681565b60026020526000908152604090205481565b600085604051620001f59062000b6c565b620002019190620010de565b604051809103906000f0801580156200021e573d6000803e3d6000fd5b5060405163f2fde38b60e01b81529091506001600160a01b0382169063f2fde38b906200025090339060040162000ed4565b600060405180830381600087803b1580156200026b57600080fd5b505af115801562000280573d6000803e3d6000fd5b5050600654600754604051600094506001600160a01b0392831693509116903390620002ac9062000b7a565b620002ba9392919062000fa3565b604051809103906000f080158015620002d7573d6000803e3d6000fd5b50905060016040518060c001604052808a8152602001846001600160a01b0316815260200184848a8a6040516200030e9062000b88565b6200031d949392919062000ee8565b604051809103906000f0801580156200033a573d6000803e3d6000fd5b506001600160a01b03908116825284166020808301919091526040820188905260609091018690528254600181018455600093845292819020825180519394600602909101926200038f928492019062000b96565b506020820151600180830180546001600160a01b039384166001600160a01b03199182161790915560408501516002850180549185169183169190911790556060850151600385018054919094169116179091556080830151600483015560a09092015160059091015580547f6545aa34e08fc1d6563fcf2d5246a3ab0ed7ea91685afffdb41c18dc50da0a6f918a916200042b91906200115b565b336040516200043d939291906200100e565b60405180910390a15050505050505050565b600181815481106200046057600080fd5b9060005260206000209060060201600091509050806000018054620004859062001175565b80601f0160208091040260200160405190810160405280929190818152602001828054620004b39062001175565b8015620005045780601f10620004d85761010080835404028352916020019162000504565b820191906000526020600020905b815481529060010190602001808311620004e657829003601f168201915b505050600184015460028501546003860154600487015460059097015495966001600160a01b039384169692841695509216925086565b6200054562000b18565b6001600160a01b03166200055862000a6c565b6001600160a01b0316146200058a5760405162461bcd60e51b8152600401620005819062001089565b60405180910390fd5b62000596600062000b1c565b565b600060018281548110620005bc57634e487b7160e01b600052603260045260246000fd5b6000918252602091829020600260069092020101546040805163066f022b60e11b815290516001600160a01b0390921692630cde045692600480840193829003018186803b1580156200060e57600080fd5b505afa15801562000623573d6000803e3d6000fd5b505050506040513d601f19601f8201168201806040525081019062000649919062000e3b565b90506000600183815481106200066f57634e487b7160e01b600052603260045260246000fd5b6000918252602090912060026006909202010154604051639669cdbb60e01b81526001600160a01b0390911690639669cdbb90620006b2908590600401620010be565b60206040518083038186803b158015620006cb57600080fd5b505afa158015620006e0573d6000803e3d6000fd5b505050506040513d601f19601f8201168201806040525081019062000706919062000e3b565b90506000600184815481106200072c57634e487b7160e01b600052603260045260246000fd5b600091825260209091206002600690920201015460405163130a010560e21b81526001600160a01b0390911690634c280414906200076f908690600401620010be565b60006040518083038186803b1580156200078857600080fd5b505afa1580156200079d573d6000803e3d6000fd5b505050506040513d6000823e601f3d908101601f19168201604052620007c7919081019062000c8a565b9050606060005b825181101562000928576000838281518110620007fb57634e487b7160e01b600052603260045260246000fd5b602002602001015190506000600188815481106200082957634e487b7160e01b600052603260045260246000fd5b6000918252602090912060026006909202010154604051639a23648f60e01b81526001600160a01b0390911690639a23648f906200086e908a908690600401620010c7565b60206040518083038186803b1580156200088757600080fd5b505afa1580156200089c573d6000803e3d6000fd5b505050506040513d601f19601f82011682018060405250810190620008c2919062000e3b565b90506000620008d2878362001118565b620008df90606462001139565b9050808585815181106200090357634e487b7160e01b600052603260045260246000fd5b60200260200101818152505050505080806200091f90620011b2565b915050620007ce565b50600185815481106200094b57634e487b7160e01b600052603260045260246000fd5b600091825260209091206003600690920201015460405163cf2ca55d60e01b81526001600160a01b039091169063cf2ca55d9062000990908590859060040162000f11565b600060405180830381600087803b158015620009ab57600080fd5b505af1158015620009c0573d6000803e3d6000fd5b5050505060018581548110620009e657634e487b7160e01b600052603260045260246000fd5b600091825260208220600360069092020101546040805163084b828960e01b815290516001600160a01b039092169263084b82899260048084019382900301818387803b15801562000a3757600080fd5b505af115801562000a4c573d6000803e3d6000fd5b505050505050505050565b60046020526000908152604090205460ff1681565b6000546001600160a01b031690565b600560209081526000928352604080842090915290825290205460ff1681565b62000aa562000b18565b6001600160a01b031662000ab862000a6c565b6001600160a01b03161462000ae15760405162461bcd60e51b8152600401620005819062001089565b6001600160a01b03811662000b0a5760405162461bcd60e51b8152600401620005819062001043565b62000b158162000b1c565b50565b3390565b600080546001600160a01b038381166001600160a01b0319831681178455604051919092169283917f8be0079c531659141344cd1fd0a4f28419497f9722a3daafe3b4186f6b6457e09190a35050565b61142e806200121383390190565b6118d6806200264183390190565b6114928062003f1783390190565b82805462000ba49062001175565b90600052602060002090601f01602090048101928262000bc8576000855562000c13565b82601f1062000be357805160ff191683800117855562000c13565b8280016001018555821562000c13579182015b8281111562000c1357825182559160200191906001019062000bf6565b5062000c2192915062000c25565b5090565b5b8082111562000c21576000815560010162000c26565b8035801515811462000c4d57600080fd5b919050565b803560ff8116811462000c4d57600080fd5b60006020828403121562000c76578081fd5b813562000c8381620011fc565b9392505050565b6000602080838503121562000c9d578182fd5b82516001600160401b038082111562000cb4578384fd5b818501915085601f83011262000cc8578384fd5b81518181111562000cdd5762000cdd620011e6565b838102915062000cef848301620010ec565b8181528481019084860184860187018a101562000d0a578788fd5b8795505b8386101562000d3c578051945062000d2685620011fc565b8483526001959095019491860191860162000d0e565b5098975050505050505050565b60008060008060008060c0878903121562000d62578182fd5b86356001600160401b038082111562000d79578384fd5b818901915089601f83011262000d8d578384fd5b813560208282111562000da45762000da4620011e6565b62000db8601f8301601f19168201620010ec565b92508183528b8183860101111562000dce578586fd5b81818501828501378581838501015282995062000ded818c0162000c52565b9850505050506040870135935062000e086060880162000c3c565b92506080870135915060a087013590509295509295509295565b60006020828403121562000e34578081fd5b5035919050565b60006020828403121562000e4d578081fd5b5051919050565b6000806040838503121562000e67578182fd5b82359150602083013562000e7b81620011fc565b809150509250929050565b60008151808452815b8181101562000ead5760208185018101518683018201520162000e8f565b8181111562000ebf5782602083870101525b50601f01601f19169290920160200192915050565b6001600160a01b0391909116815260200190565b6001600160a01b0394851681529290931660208301526040820152901515606082015260800190565b604080825283519082018190526000906020906060840190828701845b8281101562000f555781516001600160a01b03168452928401929084019060010162000f2e565b50505083810382850152845180825285830191830190845b8181101562000f8b5783518352928401929184019160010162000f6d565b5090979650505050505050565b901515815260200190565b6001600160a01b0393841681529183166020830152909116604082015260600190565b600060c0825262000fdb60c083018962000e86565b6001600160a01b039788166020840152958716604083015250929094166060830152608082015260a00191909152919050565b60006060825262001023606083018662000e86565b6020830194909452506001600160a01b0391909116604090910152919050565b60208082526026908201527f4f776e61626c653a206e6577206f776e657220697320746865207a65726f206160408201526564647265737360d01b606082015260800190565b6020808252818101527f4f776e61626c653a2063616c6c6572206973206e6f7420746865206f776e6572604082015260600190565b90815260200190565b9182526001600160a01b0316602082015260400190565b60ff91909116815260200190565b6040518181016001600160401b0381118282101715620011105762001110620011e6565b604052919050565b6000826200113457634e487b7160e01b81526012600452602481fd5b500490565b6000816000190483118215151615620011565762001156620011d0565b500290565b600082821015620011705762001170620011d0565b500390565b6002810460018216806200118a57607f821691505b60208210811415620011ac57634e487b7160e01b600052602260045260246000fd5b50919050565b6000600019821415620011c957620011c9620011d0565b5060010190565b634e487b7160e01b600052601160045260246000fd5b634e487b7160e01b600052604160045260246000fd5b6001600160a01b038116811462000b1557600080fdfe608060405234801561001057600080fd5b5060405161142e38038061142e83398101604081905261002f916100b6565b61003f61003a610062565b610066565b6000805460ff909216600160a01b0260ff60a01b199092169190911790556100de565b3390565b600080546001600160a01b038381166001600160a01b0319831681178455604051919092169283917f8be0079c531659141344cd1fd0a4f28419497f9722a3daafe3b4186f6b6457e09190a35050565b6000602082840312156100c7578081fd5b815160ff811681146100d7578182fd5b9392505050565b611341806100ed6000396000f3fe608060405234801561001057600080fd5b50600436106100995760003560e01c80631746e7631461009e5780631f6d4942146100bc5780632ec2c246146100df5780633ffbd47f146100f4578063715018a61461010757806382e717f71461010f5780638da5cb5b14610124578063be75e4d414610139578063d25b11e01461014e578063eb4dd8f21461016e578063f2fde38b14610181575b600080fd5b6100a6610194565b6040516100b3919061121a565b60405180910390f35b6100cf6100ca366004610d1b565b6101a5565b6040516100b39493929190610f57565b6100f26100ed366004610d1b565b6102e5565b005b6100f2610102366004610d42565b61042f565b6100f2610604565b61011761064f565b6040516100b39190611223565b61012c61065f565b6040516100b39190610e85565b61014161066e565b6040516100b39190610eff565b61016161015c366004610d1b565b61067a565b6040516100b39190610f4c565b6100f261017c366004610d1b565b6106c0565b6100f261018f366004610d1b565b6108d3565b60006101a06004610944565b905090565b6001602052600090815260409020805460028201805460ff80841694610100909404169291906101d490611284565b80601f016020809104026020016040519081016040528092919081815260200182805461020090611284565b801561024d5780601f106102225761010080835404028352916020019161024d565b820191906000526020600020905b81548152906001019060200180831161023057829003601f168201915b50505050509080600301805461026290611284565b80601f016020809104026020016040519081016040528092919081815260200182805461028e90611284565b80156102db5780601f106102b0576101008083540402835291602001916102db565b820191906000526020600020905b8154815290600101906020018083116102be57829003601f168201915b5050505050905084565b6102ed61065f565b6001600160a01b0316336001600160a01b0316146103265760405162461bcd60e51b815260040161031d90611095565b60405180910390fd5b6001600160a01b03811660009081526001602052604080822090519091906002906103549082850190610dea565b908152604051908190036020018120805492151560ff19909316929092179091556000906003906103889084830190610dea565b9081526040805160209281900383019020805460ff1916931515939093179092556001600160a01b03841660009081526001909152908120805461ffff19168155906103d76002830182610bc6565b6103e5600383016000610bc6565b506103f39050600483610955565b507f4803dcd528253b802a22997f7a3b15bcc6be53c1f2ba8f110aa26c25d652a68f826040516104239190610e85565b60405180910390a15050565b3360009081526001602052604081205460ff16600281111561046157634e487b7160e01b600052602160045260246000fd5b1461047e5760405162461bcd60e51b815260040161031d9061119b565b60028260405161048e9190610dce565b9081526040519081900360200190205460ff16156104be5760405162461bcd60e51b815260040161031d90611051565b6003816040516104ce9190610dce565b9081526040519081900360200190205460ff16156104fe5760405162461bcd60e51b815260040161031d90611156565b610509600433610971565b50600160028360405161051c9190610dce565b9081526040805160209281900383019020805460ff1916931515939093179092553360009081526001825291909120835161055f92600290920191850190610c02565b5060016003826040516105729190610dce565b9081526040805160209281900383019020805460ff191693151593909317909255336000908152600182529190912082516105b592600390920191840190610c02565b5033600081815260016020819052604091829020805460ff19169091179055517f80788e6e1951532975ceb5ca698dfbf35d3a99bc9c440d8e1bb7301534ab72a2916104239185908590610ebf565b61060c610986565b6001600160a01b031661061d61065f565b6001600160a01b0316146106435760405162461bcd60e51b815260040161031d90611121565b61064d600061098a565b565b600054600160a01b900460ff1681565b6000546001600160a01b031690565b60606101a060046109da565b600060026001600160a01b03831660009081526001602052604090205460ff1660028111156106b957634e487b7160e01b600052602160045260246000fd5b1492915050565b60023360009081526001602052604090205460ff1660028111156106f457634e487b7160e01b600052602160045260246000fd5b1480610718575061070361065f565b6001600160a01b0316336001600160a01b0316145b6107345760405162461bcd60e51b815260040161031d90610fb2565b6001600160a01b038116600090815260016020819052604090912090815460ff16600281111561077457634e487b7160e01b600052602160045260246000fd5b146107915760405162461bcd60e51b815260040161031d906110d7565b33600090815260018201602052604090205460ff16156107c35760405162461bcd60e51b815260040161031d906111d2565b33600090815260018281016020526040909120805460ff1916821790558154610100900460ff169082906107f6836112bf565b825460ff91821661010093840a908102908302199091161790925583546040517fb56c0bae1f9656ed06cdfdd64813839cd5a6e652cce3338329f3c05e2ca953a194506108499387933393041690610e99565b60405180910390a16000548154600160a01b90910460ff9081166101009092041610158061088f575061087a61065f565b6001600160a01b0316336001600160a01b0316145b156108cf57805460ff191660021781556040517fd283121480f58b0265dcca9e40475738da2f7774691845bb2b65bb88778de69d90610423908490610e85565b5050565b6108db610986565b6001600160a01b03166108ec61065f565b6001600160a01b0316146109125760405162461bcd60e51b815260040161031d90611121565b6001600160a01b0381166109385760405162461bcd60e51b815260040161031d9061100b565b6109418161098a565b50565b600061094f826109e7565b92915050565b600061096a836001600160a01b0384166109eb565b9392505050565b600061096a836001600160a01b038416610b08565b3390565b600080546001600160a01b038381166001600160a01b0319831681178455604051919092169283917f8be0079c531659141344cd1fd0a4f28419497f9722a3daafe3b4186f6b6457e09190a35050565b6060600061096a83610b52565b5490565b60008181526001830160205260408120548015610afe576000610a0f60018361123d565b8554909150600090610a239060019061123d565b9050818114610aa4576000866000018281548110610a5157634e487b7160e01b600052603260045260246000fd5b9060005260206000200154905080876000018481548110610a8257634e487b7160e01b600052603260045260246000fd5b6000918252602080832090910192909255918252600188019052604090208390555b8554869080610ac357634e487b7160e01b600052603160045260246000fd5b60019003818190600052602060002001600090559055856001016000868152602001908152602001600020600090556001935050505061094f565b600091505061094f565b6000610b148383610bae565b610b4a5750815460018181018455600084815260208082209093018490558454848252828601909352604090209190915561094f565b50600061094f565b606081600001805480602002602001604051908101604052809291908181526020018280548015610ba257602002820191906000526020600020905b815481526020019060010190808311610b8e575b50505050509050919050565b60009081526001919091016020526040902054151590565b508054610bd290611284565b6000825580601f10610be45750610941565b601f0160209004906000526020600020908101906109419190610c86565b828054610c0e90611284565b90600052602060002090601f016020900481019282610c305760008555610c76565b82601f10610c4957805160ff1916838001178555610c76565b82800160010185558215610c76579182015b82811115610c76578251825591602001919060010190610c5b565b50610c82929150610c86565b5090565b5b80821115610c825760008155600101610c87565b600082601f830112610cab578081fd5b81356001600160401b0380821115610cc557610cc56112f5565b604051601f8301601f191681016020018281118282101715610ce957610ce96112f5565b604052828152848301602001861015610d00578384fd5b82602086016020830137918201602001929092529392505050565b600060208284031215610d2c578081fd5b81356001600160a01b038116811461096a578182fd5b60008060408385031215610d54578081fd5b82356001600160401b0380821115610d6a578283fd5b610d7686838701610c9b565b93506020850135915080821115610d8b578283fd5b50610d9885828601610c9b565b9150509250929050565b60008151808452610dba816020860160208601611254565b601f01601f19169290920160200192915050565b60008251610de0818460208701611254565b9190910192915050565b8154600090819060028104600180831680610e0657607f831692505b6020808410821415610e2657634e487b7160e01b87526022600452602487fd5b818015610e3a5760018114610e4b57610e77565b60ff19861689528489019650610e77565b610e548a611231565b885b86811015610e6f5781548b820152908501908301610e56565b505084890196505b509498975050505050505050565b6001600160a01b0391909116815260200190565b6001600160a01b03938416815291909216602082015260ff909116604082015260600190565b6001600160a01b0384168152606060208201819052600090610ee390830185610da2565b8281036040840152610ef58185610da2565b9695505050505050565b6020808252825182820181905260009190848201906040850190845b81811015610f405783516001600160a01b031683529284019291840191600101610f1b565b50909695505050505050565b901515815260200190565b600060038610610f7557634e487b7160e01b81526021600452602481fd5b85825260ff8516602083015260806040830152610f956080830185610da2565b8281036060840152610fa78185610da2565b979650505050505050565b60208082526039908201527f566f7465722068617320746f206265206120636f6e6669726d656420636f6e746040820152783934b13aba37b91037b91031b7b73a3930b1ba1037bbb732b960391b606082015260800190565b60208082526026908201527f4f776e61626c653a206e6577206f776e657220697320746865207a65726f206160408201526564647265737360d01b606082015260800190565b60208082526024908201527f446973636f72642068616e646c6520697320616c726561647920726567697374604082015263195c995960e21b606082015260800190565b60208082526022908201527f4f6e6c79206f776e65722063616e2064656c65746520636f6e7472696275746f604082015261727360f01b606082015260800190565b6020808252602a908201527f436f6e7472696275746f72206973206e6f7420696e20636f6e6669726d6174696040820152696f6e2070726f6365737360b01b606082015260800190565b6020808252818101527f4f776e61626c653a2063616c6c6572206973206e6f7420746865206f776e6572604082015260600190565b60208082526025908201527f47697468756220757365726e616d6520697320616c72656164792072656769736040820152641d195c995960da1b606082015260800190565b6020808252601e908201527f4163636f756e7420686173207265676973746572656420616c72656164790000604082015260600190565b60208082526028908201527f566f74657220616c726561647920766f74656420666f72207468697320636f6e6040820152673a3934b13aba37b960c11b606082015260800190565b90815260200190565b60ff91909116815260200190565b60009081526020902090565b60008282101561124f5761124f6112df565b500390565b60005b8381101561126f578181015183820152602001611257565b8381111561127e576000848401525b50505050565b60028104600182168061129857607f821691505b602082108114156112b957634e487b7160e01b600052602260045260246000fd5b50919050565b600060ff821660ff8114156112d6576112d66112df565b60010192915050565b634e487b7160e01b600052601160045260246000fd5b634e487b7160e01b600052604160045260246000fdfea2646970667358221220dfe7c2938dc612679f606a1582c95ba443880dc748cacdb983ec7e2be6e25b2264736f6c6343000800003360806040526000805460ff191660641790553480156200001e57600080fd5b50604051620018d6380380620018d6833981016040819052620000419162000175565b6001600160a01b0383166200006657634e487b7160e01b600052600160045260246000fd5b6001600160a01b0382166200008b57634e487b7160e01b600052600160045260246000fd5b600480546001600160a01b038086166001600160a01b031992831617835560058054868316908416178155600380548416331790556002805460018181019092557f405787fa12a823e0f2b7631cc41b3ba8828b3321ca811111fa75cd3aa3bb5ace01805487851695168517905560009384526020819052604093849020555491516315a722b960e31b815264150000000193929091169163ad3915c8916200013791859101620001c8565b600060405180830381600087803b1580156200015257600080fd5b505af115801562000167573d6000803e3d6000fd5b5050505050505050620001ea565b6000806000606084860312156200018a578283fd5b83516200019781620001d1565b6020850151909350620001aa81620001d1565b6040850151909250620001bd81620001d1565b809150509250925092565b90815260200190565b6001600160a01b0381168114620001e757600080fd5b50565b6116dc80620001fa6000396000f3fe608060405234801561001057600080fd5b50600436106100785760003560e01c8063084b82891461007d578063230dbd291461008757806330d9c915146100b057806353c11f99146100c35780635f9e7d77146100d6578063884d1f40146100e9578063cf2ca55d146100fc578063d86ed3e514610087575b600080fd5b61008561010f565b005b61009a6100953660046110db565b6101de565b6040516100a79190611241565b60405180910390f35b61009a6100be366004611040565b610357565b61009a6100d13660046110db565b61037a565b61009a6100e4366004611040565b610444565b61009a6100f7366004611040565b61045e565b61008561010a366004610ef9565b61056e565b60075461011b57600080fd5b60048054600654600754604051631557a4cd60e31b815260009485946001600160a01b039081169463aabd26689461015894919092169201611353565b60806040518083038186803b15801561017057600080fd5b505afa158015610184573d6000803e3d6000fd5b505050506040513d601f19601f820116820180604052508101906101a891906111da565b506006546040805160008152602081019091529295509093506101d992506001600160a01b03169084908490610620565b505050565b6005546060906001600160a01b0316331461020957634e487b7160e01b600052600160045260246000fd5b6004546001600160a01b038a811691161461023457634e487b7160e01b600052600160045260246000fd5b6000808b600660006101000a8154816001600160a01b0302191690836001600160a01b0316021790555089600781905550600460009054906101000a90046001600160a01b03166001600160a01b031663aabd26688d8c6040518363ffffffff1660e01b81526004016102a8929190611353565b60806040518083038186803b1580156102c057600080fd5b505afa1580156102d4573d6000803e3d6000fd5b505050506040513d601f19601f820116820180604052508101906102f891906111da565b909192505080925081935050506103478c838388888080601f01602080910402602001604051908101604052809392919081815260200183838082843760009201919091525061062092505050565b9c9b505050505050505050505050565b606060405162461bcd60e51b8152600401610371906113e4565b60405180910390fd5b6005546060906001600160a01b031633146103a557634e487b7160e01b600052600160045260246000fd5b6004546001600160a01b038a81169116146103d057634e487b7160e01b600052600160045260246000fd5b89600660006101000a8154816001600160a01b0302191690836001600160a01b0316021790555087600781905550600080600460009054906101000a90046001600160a01b03166001600160a01b031663aabd26688d8c6040518363ffffffff1660e01b81526004016102a8929190611353565b606060405162461bcd60e51b815260040161037190611391565b6005546060906001600160a01b0316331461048957634e487b7160e01b600052600160045260246000fd5b6004546001600160a01b038881169116146104b457634e487b7160e01b600052600160045260246000fd5b60048054604051631557a4cd60e31b81526000926001600160a01b039092169163aabd2668916104e8918d918c9101611353565b60806040518083038186803b15801561050057600080fd5b505afa158015610514573d6000803e3d6000fd5b505050506040513d601f19601f8201168201806040525081019061053891906111da565b5050600b0b915050806040516020016105519190611388565b604051602081830303815290604052915050979650505050505050565b805182511461057c57600080fd5b815161058f906002906020850190610d5e565b5060005b82518110156101d9578181815181106105bc57634e487b7160e01b600052603260045260246000fd5b602002602001015160016000600284815481106105e957634e487b7160e01b600052603260045260246000fd5b60009182526020808320909101546001600160a01b031683528201929092526040019020558061061881611631565b915050610593565b6060600061062c610911565b6004548493509091506000906001600160a01b0316630602f7db886106526001896115ea565b6040518363ffffffff1660e01b815260040161066f929190611353565b60206040518083038186803b15801561068757600080fd5b505afa15801561069b573d6000803e3d6000fd5b505050506040513d601f19601f820116820180604052508101906106bf91906111a1565b600480546040516346ccbfb760e11b81529293506001600160a01b031691638d997f6e916106f1918b9186910161136c565b60206040518083038186803b15801561070957600080fd5b505afa15801561071d573d6000803e3d6000fd5b505050506040513d601f19601f8201168201806040525081019061074191906111c2565b6000549095506064906107579060ff168761157b565b61076191906114d5565b6000549095506064906107779060ff16886114e9565b6107819190611497565b955060005b6002548110156108e4576000600282815481106107b357634e487b7160e01b600052603260045260246000fd5b60009182526020808320909101546001600160a01b03168083526001909152604082205490925085906107e6908a61157b565b6107f091906114d5565b60048054604051630602f7db60e01b81529293506000926001600160a01b0390911691630602f7db91610827918f91879101611353565b60206040518083038186803b15801561083f57600080fd5b505afa158015610853573d6000803e3d6000fd5b505050506040513d601f19601f8201168201806040525081019061087791906111a1565b9050610883818b61159a565b60408051600080825260208201909252919b505096508680519060200120888051906020012014156108bf576108ba8b848361098b565b6108ce565b6108cb8b84838b610b57565b96505b50505080806108dc90611631565b915050610786565b50600086600b0b121561090757634e487b7160e01b600052600160045260246000fd5b5050949350505050565b6000805b60025481101561098757600160006002838154811061094457634e487b7160e01b600052603260045260246000fd5b60009182526020808320909101546001600160a01b03168352820192909252604001902054610973908361147f565b91508061097f81611631565b915050610915565b5090565b60048054604051631cd43d1160e31b81526000926001600160a01b039092169163e6a1e888916109c191889130918991016112f0565b60806040518083038186803b1580156109d957600080fd5b505afa1580156109ed573d6000803e3d6000fd5b505050506040513d601f19601f82011682018060405250810190610a1191906111da565b505091505060008082600b0b1315610a3157506328104d3160e11b610a3b565b5063317e182f60e11b5b82600b0b60001415610a6857600082600b0b1315610a615750635a5999e360e11b610a68565b50506101d9565b604080516000808252602082019092528290610a8d9088908890889060448101611313565b60408051601f198184030181529181526020820180516001600160e01b03166001600160e01b0319909416939093179092526005546004805493516339255d5b60e01b81529294506001600160a01b03918216936339255d5b93610af89391909116918691016112a9565b600060405180830381600087803b158015610b1257600080fd5b505af1158015610b26573d6000803e3d6000fd5b505050506040513d6000823e601f3d908101601f19168201604052610b4e9190810190610fb8565b50505050505050565b60048054604051631cd43d1160e31b81526060926000926001600160a01b03169163e6a1e88891610b8e918a9130918b91016112f0565b60806040518083038186803b158015610ba657600080fd5b505afa158015610bba573d6000803e3d6000fd5b505050506040513d601f19601f82011682018060405250810190610bde91906111da565b505091505060008082600b0b1315610bfe57506328104d3160e11b610c08565b5063317e182f60e11b5b84600b0b60001415610c3857600082600b0b1315610c2e5750635a5999e360e11b610c38565b8392505050610d56565b604080516000808252602082019092528290610c5d908a908a908a9060448101611313565b60408051601f198184030181529190526020810180516001600160e01b03166001600160e01b0319909316929092179091526005546004549192506001600160a01b0390811691634329d29391168360006040519080825280601f01601f191660200182016040528015610cd8576020820181803683370190505b50896040518563ffffffff1660e01b8152600401610cf99493929190611254565b600060405180830381600087803b158015610d1357600080fd5b505af1158015610d27573d6000803e3d6000fd5b505050506040513d6000823e601f3d908101601f19168201604052610d4f9190810190610fea565b5093505050505b949350505050565b828054828255906000526020600020908101928215610db3579160200282015b82811115610db357825182546001600160a01b0319166001600160a01b03909116178255602090920191600190910190610d7e565b506109879291505b808211156109875760008155600101610dbb565b600082601f830112610ddf578081fd5b81356020610df4610def8361145c565b611433565b8281528181019085830183850287018401881015610e10578586fd5b855b85811015610e2e57813584529284019290840190600101610e12565b5090979650505050505050565b60008083601f840112610e4c578182fd5b5081356001600160401b03811115610e62578182fd5b602083019150836020828501011115610e7a57600080fd5b9250929050565b600082601f830112610e91578081fd5b81516001600160401b03811115610eaa57610eaa611678565b610ebd601f8201601f1916602001611433565b818152846020838601011115610ed1578283fd5b610d56826020830160208701611601565b8051600b81900b8114610ef457600080fd5b919050565b60008060408385031215610f0b578182fd5b82356001600160401b0380821115610f21578384fd5b818501915085601f830112610f34578384fd5b81356020610f44610def8361145c565b82815281810190858301838502870184018b1015610f60578889fd5b8896505b84871015610f8b578035610f778161168e565b835260019690960195918301918301610f64565b5096505086013592505080821115610fa1578283fd5b50610fae85828601610dcf565b9150509250929050565b600060208284031215610fc9578081fd5b81516001600160401b03811115610fde578182fd5b610d5684828501610e81565b60008060408385031215610ffc578182fd5b82516001600160401b0380821115611012578384fd5b61101e86838701610e81565b93506020850151915080821115611033578283fd5b50610fae85828601610e81565b600080600080600080600060a0888a03121561105a578283fd5b87356110658161168e565b965060208801356110758161168e565b95506040880135945060608801356001600160401b0380821115611097578485fd5b6110a38b838c01610e3b565b909650945060808a01359150808211156110bb578384fd5b506110c88a828b01610e3b565b989b979a50959850939692959293505050565b600080600080600080600080600060c08a8c0312156110f8578182fd5b89356111038161168e565b985060208a01356111138161168e565b975060408a0135965060608a01356001600160401b0380821115611135578384fd5b6111418d838e01610e3b565b909850965060808c0135915080821115611159578384fd5b6111658d838e01610e3b565b909650945060a08c013591508082111561117d578384fd5b5061118a8c828d01610e3b565b915080935050809150509295985092959850929598565b6000602082840312156111b2578081fd5b6111bb82610ee2565b9392505050565b6000602082840312156111d3578081fd5b5051919050565b600080600080608085870312156111ef578384fd5b845193506111ff60208601610ee2565b6040860151606090960151949790965092505050565b6000815180845261122d816020860160208601611601565b601f01601f19169290920160200192915050565b6000602082526111bb6020830184611215565b6001600160a01b038516815260806020820181905260009061127890830186611215565b828103604084015261128a8186611215565b9050828103606084015261129e8185611215565b979650505050505050565b6001600160a01b03831681526060602082018190526000906112cd90830184611215565b8281036040938401526002815261060f60f31b6020820152919091019392505050565b6001600160a01b0393841681529183166020830152909116604082015260600190565b6001600160a01b03858116825284166020820152600b83900b604082015260806060820181905260009061134990830184611215565b9695505050505050565b6001600160a01b03929092168252602082015260400190565b6001600160a01b03929092168252600b0b602082015260400190565b90815260200190565b60208082526033908201527f556e737570706f727465642063616c6c6261636b202d20204265666f7265204160408201527219dc99595b595b9d0815195c9b5a5b985d1959606a1b606082015260800190565b6020808252602f908201527f556e737570706f727465642063616c6c6261636b202d204265666f726520416760408201526e1c99595b595b9d0810dc99585d1959608a1b606082015260800190565b6040518181016001600160401b038111828210171561145457611454611678565b604052919050565b60006001600160401b0382111561147557611475611678565b5060209081020190565b600082198211156114925761149261164c565b500190565b600081600b0b83600b0b806114ae576114ae611662565b60016001605f1b03198214600019821416156114cc576114cc61164c565b90059392505050565b6000826114e4576114e4611662565b500490565b6000600b82810b9084900b60016001605f1b03838213848413808216848404861116156115185761151861164c565b60016001605f1b03198685128281168783058712161561153a5761153a61164c565b8787129250858205871284841616156115555761155561164c565b8585058712818416161561156b5761156b61164c565b5050509290910295945050505050565b60008160001904831182151516156115955761159561164c565b500290565b6000600b82810b9084900b828112801560016001605f1b03198301841216156115c5576115c561164c565b60016001605f1b03820183138116156115e0576115e061164c565b5090039392505050565b6000828210156115fc576115fc61164c565b500390565b60005b8381101561161c578181015183820152602001611604565b8381111561162b576000848401525b50505050565b60006000198214156116455761164561164c565b5060010190565b634e487b7160e01b600052601160045260246000fd5b634e487b7160e01b600052601260045260246000fd5b634e487b7160e01b600052604160045260246000fd5b6001600160a01b03811681146116a357600080fd5b5056fea2646970667358221220b6355fcdaef20bd573075eb62ee4d8ea1458d67624a9e3044215fdf17d02914164736f6c63430008000033608060405234801561001057600080fd5b5060405161149238038061149283398101604081905261002f916100cf565b600180546001600160a01b03199081166001600160a01b0396871617825560028054821695909616949094179094556003805494850181556000527fc2575a0e9e593c00f959f8c92f12db2869c3395a3b0502d05e2516446f71f85b9093018054339316929092179091556008556009805460ff1916911515919091179055610121565b80516001600160a01b03811681146100ca57600080fd5b919050565b600080600080608085870312156100e4578384fd5b6100ed856100b3565b93506100fb602086016100b3565b92506040850151915060608501518015158114610116578182fd5b939692955090935050565b611362806101306000396000f3fe608060405234801561001057600080fd5b50600436106100db5760003560e01c80630c3643dc146100e05780630cde04561461010957806310a93d951461011157806314bfd6d01461012657806320b698b31461014657806343859632146101595780634c280414146101795780636984d0701461019957806375e75f85146101ae5780637b103999146101b65780638c65c81f146101be5780639669cdbb146101e05780639a23648f146101f3578063a0b412a614610206578063c89c1a8914610219578063dab890081461022c578063e3af3b7714610234575b600080fd5b6100f36100ee366004610e6b565b610247565b6040516101009190611257565b60405180910390f35b6100f3610273565b61012461011f366004610f52565b610288565b005b610139610134366004610f0f565b61044c565b604051610100919061104e565b610124610154366004610eb5565b610476565b61016c610167366004610f27565b610803565b604051610100919061112b565b61018c610187366004610f0f565b610823565b6040516101009190611062565b6101a161088f565b60405161010091906110cb565b61013961094b565b61013961095a565b6101d16101cc366004610f0f565b610969565b60405161010093929190611136565b6100f36101ee366004610f0f565b6109a0565b6100f3610201366004610f27565b6109db565b610139610214366004610fc8565b6109f8565b610124610227366004610f96565b610a30565b610124610bf2565b6100f3610242366004610e8c565b610d8f565b6001600160a01b03811660009081526007602052604081205461026b906001611277565b90505b919050565b60008054610283906001906112ce565b905090565b6000828152600660209081526040808320338452909152902054829060ff161580156102bc575060006102ba33610247565b115b6102c557600080fd5b82600080600083815481106102ea57634e487b7160e01b600052603260045260246000fd5b600091825260209091206003909102015460ff16600281111561031d57634e487b7160e01b600052602160045260246000fd5b146103435760405162461bcd60e51b815260040161033a906111c1565b60405180910390fd5b60008581526006602090815260408083203384529091528120805460ff191660011790555b845181101561040b5761037a33610247565b6000878152600560209081526040808320338452909152812080549091906103a3908490611277565b909155506103b2905033610247565b600087815481106103d357634e487b7160e01b600052603260045260246000fd5b906000526020600020906003020160020160008282546103f39190611277565b90915550819050610403816112e5565b915050610368565b507ff1003b73c437642c0460aee9cd9628b0b8c447b66e6c7c905531b9c644214a11853360405161043d929190611260565b60405180910390a15050505050565b6003818154811061045c57600080fd5b6000918252602090912001546001600160a01b0316905081565b6000805b81158015610489575060035481105b156104eb57336001600160a01b0316600382815481106104b957634e487b7160e01b600052603260045260246000fd5b6000918252602090912001546001600160a01b031614156104d957600191505b806104e3816112e5565b91505061047a565b50806104f657600080fd5b600054158061056557506000808054610511906001906112ce565b8154811061052f57634e487b7160e01b600052603260045260246000fd5b600091825260209091206003909102015460ff16600281111561056257634e487b7160e01b600052602160045260246000fd5b14155b6105815760405162461bcd60e51b815260040161033a906111ec565b60005b82518110156106d35760008382815181106105af57634e487b7160e01b600052603260045260246000fd5b6020908102919091010151600154604051630692d88f60e51b81529192506001600160a01b03169063d25b11e0906105eb90849060040161104e565b602060405180830381600087803b15801561060557600080fd5b505af1158015610619573d6000803e3d6000fd5b505050506040513d601f19601f8201168201806040525081019061063d9190610eef565b156106c0576000805460049190610656906001906112ce565b815260200190815260200160002084838151811061068457634e487b7160e01b600052603260045260246000fd5b60209081029190910181015182546001810184556000938452919092200180546001600160a01b0319166001600160a01b039092169190911790555b50806106cb816112e5565b915050610584565b506000805460049082906106e9906001906112ce565b8152602081019190915260400160002054116107175760405162461bcd60e51b815260040161033a90611223565b604080516060810182526000808252426020830152918101829052815460018082018455928052815160039091027f290decd9548b62a8d60345a988386fc84ba6bc95484008f6362f93160ef3e56301805492939092839160ff199091169083600281111561079657634e487b7160e01b600052602160045260246000fd5b021790555060208201518160010155604082015181600201555050600060016000805490506107c591906112ce565b90507ff5d5acf597a5f9d06a24389ebea67f576c74da4d4a73b97a5dfac2452acad647816040516107f69190611257565b60405180910390a1505050565b600660209081526000928352604080842090915290825290205460ff1681565b60008181526004602090815260409182902080548351818402810184019094528084526060939283018282801561088357602002820191906000526020600020905b81546001600160a01b03168152600190910190602001808311610865575b50505050509050919050565b60606000805480602002602001604051908101604052809291908181526020016000905b82821015610942576000848152602090206040805160608101909152600384029091018054829060ff1660028111156108fc57634e487b7160e01b600052602160045260246000fd5b600281111561091b57634e487b7160e01b600052602160045260246000fd5b815260200160018201548152602001600282015481525050815260200190600101906108b3565b50505050905090565b6002546001600160a01b031681565b6001546001600160a01b031681565b6000818154811061097957600080fd5b600091825260209091206003909102018054600182015460029092015460ff909116925083565b60008082815481106109c257634e487b7160e01b600052603260045260246000fd5b9060005260206000209060030201600201549050919050565b600560209081526000928352604080842090915290825290205481565b60046020528160005260406000208181548110610a1457600080fd5b6000918252602090912001546001600160a01b03169150829050565b6000805b81158015610a43575060035481105b15610aa557336001600160a01b031660038281548110610a7357634e487b7160e01b600052603260045260246000fd5b6000918252602090912001546001600160a01b03161415610a9357600191505b80610a9d816112e5565b915050610a34565b5080610ab057600080fd5b6000808481548110610ad257634e487b7160e01b600052603260045260246000fd5b600091825260209091206003909102015460ff166002811115610b0557634e487b7160e01b600052602160045260246000fd5b14610b225760405162461bcd60e51b815260040161033a9061118a565b6000826002811115610b4457634e487b7160e01b600052602160045260246000fd5b1415610b625760405162461bcd60e51b815260040161033a90611155565b8160008481548110610b8457634e487b7160e01b600052603260045260246000fd5b60009182526020909120600390910201805460ff19166001836002811115610bbc57634e487b7160e01b600052602160045260246000fd5b02179055507f2a0641ef71e80039cddc7522d6459d2caef71d8dd8651c053a2700f2ac17690083336040516107f6929190611260565b6000610bfc610273565b90506000610c09826109a0565b90506000610c1683610823565b9050606060005b8251811015610cbc576000838281518110610c4857634e487b7160e01b600052603260045260246000fd5b602002602001015190506000610c5e8288610d8f565b90506000610c6c878361128f565b610c779060646112af565b905080858581518110610c9a57634e487b7160e01b600052603260045260246000fd5b6020026020010181815250505050508080610cb4906112e5565b915050610c1d565b5060025460405163cf2ca55d60e01b81526001600160a01b039091169063cf2ca55d90610cef9085908590600401611075565b600060405180830381600087803b158015610d0957600080fd5b505af1158015610d1d573d6000803e3d6000fd5b50505050600260009054906101000a90046001600160a01b03166001600160a01b031663084b82896040518163ffffffff1660e01b8152600401600060405180830381600087803b158015610d7157600080fd5b505af1158015610d85573d6000803e3d6000fd5b5050505050505050565b60009081526005602090815260408083206001600160a01b03949094168352929052205490565b80356001600160a01b038116811461026e57600080fd5b600082601f830112610ddd578081fd5b813560206001600160401b0380831115610df957610df9611316565b81830260405183828201018181108482111715610e1857610e18611316565b60405284815283810192508684018288018501891015610e36578687fd5b8692505b85831015610e5f57610e4b81610db6565b845292840192600192909201918401610e3a565b50979650505050505050565b600060208284031215610e7c578081fd5b610e8582610db6565b9392505050565b60008060408385031215610e9e578081fd5b610ea783610db6565b946020939093013593505050565b600060208284031215610ec6578081fd5b81356001600160401b03811115610edb578182fd5b610ee784828501610dcd565b949350505050565b600060208284031215610f00578081fd5b81518015158114610e85578182fd5b600060208284031215610f20578081fd5b5035919050565b60008060408385031215610f39578182fd5b82359150610f4960208401610db6565b90509250929050565b60008060408385031215610f64578182fd5b8235915060208301356001600160401b03811115610f80578182fd5b610f8c85828601610dcd565b9150509250929050565b60008060408385031215610fa8578182fd5b82359150602083013560038110610fbd578182fd5b809150509250929050565b60008060408385031215610fda578182fd5b50508035926020909101359150565b6000815180845260208085019450808401835b838110156110215781516001600160a01b031687529582019590820190600101610ffc565b509495945050505050565b6003811061104a57634e487b7160e01b600052602160045260246000fd5b9052565b6001600160a01b0391909116815260200190565b600060208252610e856020830184610fe9565b6000604082526110886040830185610fe9565b828103602084810191909152845180835285820192820190845b818110156110be578451835293830193918301916001016110a2565b5090979650505050505050565b602080825282518282018190526000919060409081850190868401855b8281101561111e5781516110fd85825161102c565b808701518588015285015185850152606090930192908501906001016110e8565b5091979650505050505050565b901515815260200190565b60608101611144828661102c565b602082019390935260400152919050565b6020808252818101527f43616e206f6e6c7920636c6f7365206f722063616e63656c206120726f756e64604082015260600190565b6020808252601e908201527f54686520766f74696e6720626c6f636b206973206e6f7420636c6f7365640000604082015260600190565b6020808252601190820152702937bab7321034b9903737ba1037b832b760791b604082015260600190565b6020808252601f908201527f416c6c207072696f7220726f756e6473206d75737420626520636c6f73656400604082015260600190565b6020808252601a90820152792a3432b9329036bab9ba1031329030903b30b634b2103ab9b2b960311b604082015260600190565b90815260200190565b9182526001600160a01b0316602082015260400190565b6000821982111561128a5761128a611300565b500190565b6000826112aa57634e487b7160e01b81526012600452602481fd5b500490565b60008160001904831182151516156112c9576112c9611300565b500290565b6000828210156112e0576112e0611300565b500390565b60006000198214156112f9576112f9611300565b5060010190565b634e487b7160e01b600052601160045260246000fd5b634e487b7160e01b600052604160045260246000fdfea264697066735822122010b98e09b3f20d832e41c38af1291dbb6b9df43c91812738cf5c3c527da708c164736f6c63430008000033a26469706673582212203dfba40388c37370a59b3a1daaa57b2c8be32a68ef12852e6e739d3fcfc316b264736f6c63430008000033",
  "devdoc": {
    "kind": "dev",
    "methods": {
      "owner()": {
        "details": "Returns the address of the current owner."
      },
      "renounceOwnership()": {
        "details": "Leaves the contract without owner. It will not be possible to call `onlyOwner` functions anymore. Can only be called by the current owner. NOTE: Renouncing ownership will leave the contract without an owner, thereby removing any functionality that is only available to the owner."
      },
      "transferOwnership(address)": {
        "details": "Transfers ownership of the contract to a new account (`newOwner`). Can only be called by the current owner."
      }
    },
    "version": 1
  },
  "userdoc": {
    "kind": "user",
    "methods": {},
    "version": 1
  },
  "storageLayout": {
    "storage": [
      {
        "astId": 7,
        "contract": "contracts/DAORegistry.sol:DAORegistry",
        "label": "_owner",
        "offset": 0,
        "slot": "0",
        "type": "t_address"
      },
      {
        "astId": 3367,
        "contract": "contracts/DAORegistry.sol:DAORegistry",
        "label": "daoList",
        "offset": 0,
        "slot": "1",
        "type": "t_array(t_struct(DAO)3363_storage)dyn_storage"
      },
      {
        "astId": 3371,
        "contract": "contracts/DAORegistry.sol:DAORegistry",
        "label": "addressToDAO",
        "offset": 0,
        "slot": "2",
        "type": "t_mapping(t_address,t_uint256)"
      },
      {
        "astId": 3375,
        "contract": "contracts/DAORegistry.sol:DAORegistry",
        "label": "daoToAddress",
        "offset": 0,
        "slot": "3",
        "type": "t_mapping(t_uint256,t_address)"
      },
      {
        "astId": 3379,
        "contract": "contracts/DAORegistry.sol:DAORegistry",
        "label": "hasSalary",
        "offset": 0,
        "slot": "4",
        "type": "t_mapping(t_address,t_bool)"
      },
      {
        "astId": 3385,
        "contract": "contracts/DAORegistry.sol:DAORegistry",
        "label": "userPaidForRound",
        "offset": 0,
        "slot": "5",
        "type": "t_mapping(t_uint256,t_mapping(t_address,t_bool))"
      },
      {
        "astId": 3396,
        "contract": "contracts/DAORegistry.sol:DAORegistry",
        "label": "_cfa",
        "offset": 0,
        "slot": "6",
        "type": "t_contract(IConstantFlowAgreementV1)1280"
      },
      {
        "astId": 3399,
        "contract": "contracts/DAORegistry.sol:DAORegistry",
        "label": "_host",
        "offset": 0,
        "slot": "7",
        "type": "t_contract(ISuperfluid)2610"
      }
    ],
    "types": {
      "t_address": {
        "encoding": "inplace",
        "label": "address",
        "numberOfBytes": "20"
      },
      "t_array(t_struct(DAO)3363_storage)dyn_storage": {
        "base": "t_struct(DAO)3363_storage",
        "encoding": "dynamic_array",
        "label": "struct DAORegistry.DAO[]",
        "numberOfBytes": "32"
      },
      "t_bool": {
        "encoding": "inplace",
        "label": "bool",
        "numberOfBytes": "1"
      },
      "t_contract(ContributorRegistry)3339": {
        "encoding": "inplace",
        "label": "contract ContributorRegistry",
        "numberOfBytes": "20"
      },
      "t_contract(IConstantFlowAgreementV1)1280": {
        "encoding": "inplace",
        "label": "contract IConstantFlowAgreementV1",
        "numberOfBytes": "20"
      },
      "t_contract(ISuperfluid)2610": {
        "encoding": "inplace",
        "label": "contract ISuperfluid",
        "numberOfBytes": "20"
      },
      "t_contract(PaymentStream)4410": {
        "encoding": "inplace",
        "label": "contract PaymentStream",
        "numberOfBytes": "20"
      },
      "t_contract(RoundManager)4976": {
        "encoding": "inplace",
        "label": "contract RoundManager",
        "numberOfBytes": "20"
      },
      "t_mapping(t_address,t_bool)": {
        "encoding": "mapping",
        "key": "t_address",
        "label": "mapping(address => bool)",
        "numberOfBytes": "32",
        "value": "t_bool"
      },
      "t_mapping(t_address,t_uint256)": {
        "encoding": "mapping",
        "key": "t_address",
        "label": "mapping(address => uint256)",
        "numberOfBytes": "32",
        "value": "t_uint256"
      },
      "t_mapping(t_uint256,t_address)": {
        "encoding": "mapping",
        "key": "t_uint256",
        "label": "mapping(uint256 => address)",
        "numberOfBytes": "32",
        "value": "t_address"
      },
      "t_mapping(t_uint256,t_mapping(t_address,t_bool))": {
        "encoding": "mapping",
        "key": "t_uint256",
        "label": "mapping(uint256 => mapping(address => bool))",
        "numberOfBytes": "32",
        "value": "t_mapping(t_address,t_bool)"
      },
      "t_string_storage": {
        "encoding": "bytes",
        "label": "string",
        "numberOfBytes": "32"
      },
      "t_struct(DAO)3363_storage": {
        "encoding": "inplace",
        "label": "struct DAORegistry.DAO",
        "members": [
          {
            "astId": 3349,
            "contract": "contracts/DAORegistry.sol:DAORegistry",
            "label": "name",
            "offset": 0,
            "slot": "0",
            "type": "t_string_storage"
          },
          {
            "astId": 3352,
            "contract": "contracts/DAORegistry.sol:DAORegistry",
            "label": "contributorRegistry",
            "offset": 0,
            "slot": "1",
            "type": "t_contract(ContributorRegistry)3339"
          },
          {
            "astId": 3355,
            "contract": "contracts/DAORegistry.sol:DAORegistry",
            "label": "roundManager",
            "offset": 0,
            "slot": "2",
            "type": "t_contract(RoundManager)4976"
          },
          {
            "astId": 3358,
            "contract": "contracts/DAORegistry.sol:DAORegistry",
            "label": "paymentStream",
            "offset": 0,
            "slot": "3",
            "type": "t_contract(PaymentStream)4410"
          },
          {
            "astId": 3360,
            "contract": "contracts/DAORegistry.sol:DAORegistry",
            "label": "salaryPerRound",
            "offset": 0,
            "slot": "4",
            "type": "t_uint256"
          },
          {
            "astId": 3362,
            "contract": "contracts/DAORegistry.sol:DAORegistry",
            "label": "salaryPeriod",
            "offset": 0,
            "slot": "5",
            "type": "t_uint256"
          }
        ],
        "numberOfBytes": "192"
      },
      "t_uint256": {
        "encoding": "inplace",
        "label": "uint256",
        "numberOfBytes": "32"
      }
    }
  }
}