{
  "address": "0x568ac22Cd92210BA94744A09f6191EAF08f96659",
  "abi": [
    {
      "inputs": [
        {
          "internalType": "contract IConstantFlowAgreementV1",
          "name": "cfa",
          "type": "address"
        },
        {
          "internalType": "contract ISuperfluid",
          "name": "superfluid",
          "type": "address"
        }
      ],
      "stateMutability": "nonpayable",
      "type": "constructor"
    },
    {
      "anonymous": false,
      "inputs": [
        {
          "indexed": false,
          "internalType": "string",
          "name": "name",
          "type": "string"
        },
        {
          "indexed": false,
          "internalType": "uint256",
          "name": "daoId",
          "type": "uint256"
        },
        {
          "indexed": false,
          "internalType": "address",
          "name": "parent",
          "type": "address"
        }
      ],
      "name": "DaoRegistered",
      "type": "event"
    },
    {
      "anonymous": false,
      "inputs": [
        {
          "indexed": true,
          "internalType": "address",
          "name": "previousOwner",
          "type": "address"
        },
        {
          "indexed": true,
          "internalType": "address",
          "name": "newOwner",
          "type": "address"
        }
      ],
      "name": "OwnershipTransferred",
      "type": "event"
    },
    {
      "inputs": [
        {
          "internalType": "address",
          "name": "",
          "type": "address"
        }
      ],
      "name": "addressToDAO",
      "outputs": [
        {
          "internalType": "uint256",
          "name": "",
          "type": "uint256"
        }
      ],
      "stateMutability": "view",
      "type": "function"
    },
    {
      "inputs": [
        {
          "internalType": "uint256",
          "name": "",
          "type": "uint256"
        }
      ],
      "name": "daoList",
      "outputs": [
        {
          "internalType": "string",
          "name": "name",
          "type": "string"
        },
        {
          "internalType": "contract ContributorRegistry",
          "name": "contributorRegistry",
          "type": "address"
        },
        {
          "internalType": "contract RoundManager",
          "name": "roundManager",
          "type": "address"
        },
        {
          "internalType": "contract PaymentStream",
          "name": "paymentStream",
          "type": "address"
        },
        {
          "internalType": "uint256",
          "name": "salaryPerRound",
          "type": "uint256"
        },
        {
          "internalType": "uint256",
          "name": "salaryPeriod",
          "type": "uint256"
        }
      ],
      "stateMutability": "view",
      "type": "function"
    },
    {
      "inputs": [
        {
          "internalType": "uint256",
          "name": "",
          "type": "uint256"
        }
      ],
      "name": "daoToAddress",
      "outputs": [
        {
          "internalType": "address",
          "name": "",
          "type": "address"
        }
      ],
      "stateMutability": "view",
      "type": "function"
    },
    {
      "inputs": [
        {
          "internalType": "uint256",
          "name": "daoID",
          "type": "uint256"
        }
      ],
      "name": "distributeSalaries",
      "outputs": [],
      "stateMutability": "nonpayable",
      "type": "function"
    },
    {
      "inputs": [
        {
          "internalType": "address",
          "name": "",
          "type": "address"
        }
      ],
      "name": "hasSalary",
      "outputs": [
        {
          "internalType": "bool",
          "name": "",
          "type": "bool"
        }
      ],
      "stateMutability": "view",
      "type": "function"
    },
    {
      "inputs": [],
      "name": "owner",
      "outputs": [
        {
          "internalType": "address",
          "name": "",
          "type": "address"
        }
      ],
      "stateMutability": "view",
      "type": "function"
    },
    {
      "inputs": [
        {
          "internalType": "string",
          "name": "name",
          "type": "string"
        },
        {
          "internalType": "uint8",
          "name": "_requiredConfirmations",
          "type": "uint8"
        },
        {
          "internalType": "uint256",
          "name": "_timePerRound",
          "type": "uint256"
        },
        {
          "internalType": "bool",
          "name": "_timed",
          "type": "bool"
        },
        {
          "internalType": "uint256",
          "name": "_salaryPerRound",
          "type": "uint256"
        },
        {
          "internalType": "uint256",
          "name": "_salaryPeriod",
          "type": "uint256"
        }
      ],
      "name": "register",
      "outputs": [],
      "stateMutability": "nonpayable",
      "type": "function"
    },
    {
      "inputs": [],
      "name": "renounceOwnership",
      "outputs": [],
      "stateMutability": "nonpayable",
      "type": "function"
    },
    {
      "inputs": [
        {
          "internalType": "address",
          "name": "newOwner",
          "type": "address"
        }
      ],
      "name": "transferOwnership",
      "outputs": [],
      "stateMutability": "nonpayable",
      "type": "function"
    },
    {
      "inputs": [
        {
          "internalType": "uint256",
          "name": "",
          "type": "uint256"
        },
        {
          "internalType": "address",
          "name": "",
          "type": "address"
        }
      ],
      "name": "userPaidForRound",
      "outputs": [
        {
          "internalType": "bool",
          "name": "",
          "type": "bool"
        }
      ],
      "stateMutability": "view",
      "type": "function"
    }
  ],
  "transactionHash": "0x5ad9e6f60a42c44ecc6bb89b69def5f92d81b18aba65bf89e1fc2f52692f8b03",
  "args": [
    "0x49e565Ed1bdc17F3d220f72DF0857C26FA83F873",
    "0xEB796bdb90fFA0f28255275e16936D25d3418603"
  ],
  "solcInputHash": "1d628a13001d958412bdacb031abca60",
  "bytecode": "0x60806040523480156200001157600080fd5b50604051620051e8380380620051e88339810160408190526200003491620000ce565b62000048620000426200007a565b6200007e565b600680546001600160a01b039384166001600160a01b0319918216179091556007805492909316911617905562000125565b3390565b600080546001600160a01b038381166001600160a01b0319831681178455604051919092169283917f8be0079c531659141344cd1fd0a4f28419497f9722a3daafe3b4186f6b6457e09190a35050565b60008060408385031215620000e1578182fd5b8251620000ee816200010c565b602084015190925062000101816200010c565b809150509250929050565b6001600160a01b03811681146200012257600080fd5b50565b6150b380620001356000396000f3fe60806040523480156200001157600080fd5b50600436106200009a5760003560e01c80631f0193e8146200009f5780632bb5e41214620000ce5780633593e5d214620000f457806337dd27f8146200010d578063715018a6146200013857806374f20cfd1462000142578063821f119714620001595780638da5cb5b146200017f578063b71ddef41462000189578063f2fde38b14620001a0575b600080fd5b620000b6620000b036600462000da5565b620001b7565b604051620000c5919062000e57565b60405180910390f35b620000e5620000df36600462000be7565b620001d2565b604051620000c591906200103b565b6200010b6200010536600462000ccc565b620001e4565b005b620001246200011e36600462000da5565b620003d2565b604051620000c59695949392919062000f43565b6200010b620004be565b6200010b6200015336600462000da5565b6200051b565b620001706200016a36600462000be7565b620009da565b604051620000c5919062000f15565b620000b6620009ef565b620001706200019a36600462000dd7565b620009fe565b6200010b620001b136600462000be7565b62000a1e565b6003602052600090815260409020546001600160a01b031681565b60026020526000908152604090205481565b60016040518060c0016040528088815260200187604051620002069062000aef565b6200021291906200105b565b604051809103906000f0801580156200022f573d6000803e3d6000fd5b506001600160a01b031681526020013387876040516200024f9062000afd565b6200025d9392919062000e6b565b604051809103906000f0801580156200027a573d6000803e3d6000fd5b506001600160a01b0390811682526006546007546040516020909401939183169216903390620002aa9062000b0b565b620002b89392919062000f20565b604051809103906000f080158015620002d5573d6000803e3d6000fd5b506001600160a01b03168152602080820186905260409091018490528254600181018455600093845292819020825180519394600602909101926200031e928492019062000b19565b506020820151600182810180546001600160a01b03199081166001600160a01b03948516179091556040808601516002860180548416918616919091179055606086015160038601805490931694169390931790556080840151600484015560a090930151600590920191909155905490517f6545aa34e08fc1d6563fcf2d5246a3ab0ed7ea91685afffdb41c18dc50da0a6f91620003c291899190339062000f8b565b60405180910390a1505050505050565b60018181548110620003e357600080fd5b90600052602060002090600602016000915090508060000180546200040890620010d8565b80601f01602080910402602001604051908101604052809291908181526020018280546200043690620010d8565b8015620004875780601f106200045b5761010080835404028352916020019162000487565b820191906000526020600020905b8154815290600101906020018083116200046957829003601f168201915b505050600184015460028501546003860154600487015460059097015495966001600160a01b039384169692841695509216925086565b620004c862000a9b565b6001600160a01b0316620004db620009ef565b6001600160a01b0316146200050d5760405162461bcd60e51b8152600401620005049062001006565b60405180910390fd5b62000519600062000a9f565b565b6000600182815481106200053f57634e487b7160e01b600052603260045260246000fd5b6000918252602091829020600260069092020101546040805163066f022b60e11b815290516001600160a01b0390921692630cde045692600480840193829003018186803b1580156200059157600080fd5b505afa158015620005a6573d6000803e3d6000fd5b505050506040513d601f19601f82011682018060405250810190620005cc919062000dbe565b9050600060018381548110620005f257634e487b7160e01b600052603260045260246000fd5b6000918252602090912060026006909202010154604051639669cdbb60e01b81526001600160a01b0390911690639669cdbb90620006359085906004016200103b565b60206040518083038186803b1580156200064e57600080fd5b505afa15801562000663573d6000803e3d6000fd5b505050506040513d601f19601f8201168201806040525081019062000689919062000dbe565b9050600060018481548110620006af57634e487b7160e01b600052603260045260246000fd5b600091825260209091206002600690920201015460405163130a010560e21b81526001600160a01b0390911690634c28041490620006f29086906004016200103b565b60006040518083038186803b1580156200070b57600080fd5b505afa15801562000720573d6000803e3d6000fd5b505050506040513d6000823e601f3d908101601f191682016040526200074a919081019062000c0d565b9050606060005b8251811015620008ab5760008382815181106200077e57634e487b7160e01b600052603260045260246000fd5b60200260200101519050600060018881548110620007ac57634e487b7160e01b600052603260045260246000fd5b6000918252602090912060026006909202010154604051639a23648f60e01b81526001600160a01b0390911690639a23648f90620007f1908a90869060040162001044565b60206040518083038186803b1580156200080a57600080fd5b505afa1580156200081f573d6000803e3d6000fd5b505050506040513d601f19601f8201168201806040525081019062000845919062000dbe565b9050600062000855878362001095565b62000862906064620010b6565b9050808585815181106200088657634e487b7160e01b600052603260045260246000fd5b6020026020010181815250505050508080620008a29062001115565b91505062000751565b5060018581548110620008ce57634e487b7160e01b600052603260045260246000fd5b600091825260209091206003600690920201015460405163cf2ca55d60e01b81526001600160a01b039091169063cf2ca55d9062000913908590859060040162000e8e565b600060405180830381600087803b1580156200092e57600080fd5b505af115801562000943573d6000803e3d6000fd5b50505050600185815481106200096957634e487b7160e01b600052603260045260246000fd5b600091825260208220600360069092020101546040805163084b828960e01b815290516001600160a01b039092169263084b82899260048084019382900301818387803b158015620009ba57600080fd5b505af1158015620009cf573d6000803e3d6000fd5b505050505050505050565b60046020526000908152604090205460ff1681565b6000546001600160a01b031690565b600560209081526000928352604080842090915290825290205460ff1681565b62000a2862000a9b565b6001600160a01b031662000a3b620009ef565b6001600160a01b03161462000a645760405162461bcd60e51b8152600401620005049062001006565b6001600160a01b03811662000a8d5760405162461bcd60e51b8152600401620005049062000fc0565b62000a988162000a9f565b50565b3390565b600080546001600160a01b038381166001600160a01b0319831681178455604051919092169283917f8be0079c531659141344cd1fd0a4f28419497f9722a3daafe3b4186f6b6457e09190a35050565b61144a806200117683390190565b61119f80620025c083390190565b61191f806200375f83390190565b82805462000b2790620010d8565b90600052602060002090601f01602090048101928262000b4b576000855562000b96565b82601f1062000b6657805160ff191683800117855562000b96565b8280016001018555821562000b96579182015b8281111562000b9657825182559160200191906001019062000b79565b5062000ba492915062000ba8565b5090565b5b8082111562000ba4576000815560010162000ba9565b8035801515811462000bd057600080fd5b919050565b803560ff8116811462000bd057600080fd5b60006020828403121562000bf9578081fd5b813562000c06816200115f565b9392505050565b6000602080838503121562000c20578182fd5b82516001600160401b038082111562000c37578384fd5b818501915085601f83011262000c4b578384fd5b81518181111562000c605762000c6062001149565b838102915062000c7284830162001069565b8181528481019084860184860187018a101562000c8d578788fd5b8795505b8386101562000cbf578051945062000ca9856200115f565b8483526001959095019491860191860162000c91565b5098975050505050505050565b60008060008060008060c0878903121562000ce5578182fd5b86356001600160401b038082111562000cfc578384fd5b818901915089601f83011262000d10578384fd5b813560208282111562000d275762000d2762001149565b62000d3b601f8301601f1916820162001069565b92508183528b8183860101111562000d51578586fd5b81818501828501378581838501015282995062000d70818c0162000bd5565b9850505050506040870135935062000d8b6060880162000bbf565b92506080870135915060a087013590509295509295509295565b60006020828403121562000db7578081fd5b5035919050565b60006020828403121562000dd0578081fd5b5051919050565b6000806040838503121562000dea578182fd5b82359150602083013562000dfe816200115f565b809150509250929050565b60008151808452815b8181101562000e305760208185018101518683018201520162000e12565b8181111562000e425782602083870101525b50601f01601f19169290920160200192915050565b6001600160a01b0391909116815260200190565b6001600160a01b0393909316835260208301919091521515604082015260600190565b604080825283519082018190526000906020906060840190828701845b8281101562000ed25781516001600160a01b03168452928401929084019060010162000eab565b50505083810382850152845180825285830191830190845b8181101562000f085783518352928401929184019160010162000eea565b5090979650505050505050565b901515815260200190565b6001600160a01b0393841681529183166020830152909116604082015260600190565b600060c0825262000f5860c083018962000e09565b6001600160a01b039788166020840152958716604083015250929094166060830152608082015260a00191909152919050565b60006060825262000fa0606083018662000e09565b6020830194909452506001600160a01b0391909116604090910152919050565b60208082526026908201527f4f776e61626c653a206e6577206f776e657220697320746865207a65726f206160408201526564647265737360d01b606082015260800190565b6020808252818101527f4f776e61626c653a2063616c6c6572206973206e6f7420746865206f776e6572604082015260600190565b90815260200190565b9182526001600160a01b0316602082015260400190565b60ff91909116815260200190565b6040518181016001600160401b03811182821017156200108d576200108d62001149565b604052919050565b600082620010b157634e487b7160e01b81526012600452602481fd5b500490565b6000816000190483118215151615620010d357620010d362001133565b500290565b600281046001821680620010ed57607f821691505b602082108114156200110f57634e487b7160e01b600052602260045260246000fd5b50919050565b60006000198214156200112c576200112c62001133565b5060010190565b634e487b7160e01b600052601160045260246000fd5b634e487b7160e01b600052604160045260246000fd5b6001600160a01b038116811462000a9857600080fdfe608060405234801561001057600080fd5b5060405161144a38038061144a83398101604081905261002f916100b6565b61003f61003a610062565b610066565b6000805460ff909216600160a01b0260ff60a01b199092169190911790556100de565b3390565b600080546001600160a01b038381166001600160a01b0319831681178455604051919092169283917f8be0079c531659141344cd1fd0a4f28419497f9722a3daafe3b4186f6b6457e09190a35050565b6000602082840312156100c7578081fd5b815160ff811681146100d7578182fd5b9392505050565b61135d806100ed6000396000f3fe608060405234801561001057600080fd5b50600436106100995760003560e01c80631746e7631461009e5780631f6d4942146100bc5780632ec2c246146100df5780633ffbd47f146100f4578063715018a61461010757806382e717f71461010f5780638da5cb5b14610124578063be75e4d414610139578063d25b11e01461014e578063eb4dd8f21461016e578063f2fde38b14610181575b600080fd5b6100a6610194565b6040516100b39190611236565b60405180910390f35b6100cf6100ca366004610d37565b6101a5565b6040516100b39493929190610f73565b6100f26100ed366004610d37565b6102e5565b005b6100f2610102366004610d5e565b61042f565b6100f2610604565b61011761064f565b6040516100b3919061123f565b61012c61065f565b6040516100b39190610ea1565b61014161066e565b6040516100b39190610f1b565b61016161015c366004610d37565b61067a565b6040516100b39190610f68565b6100f261017c366004610d37565b6106c0565b6100f261018f366004610d37565b6108ef565b60006101a06004610960565b905090565b6001602052600090815260409020805460028201805460ff80841694610100909404169291906101d4906112a0565b80601f0160208091040260200160405190810160405280929190818152602001828054610200906112a0565b801561024d5780601f106102225761010080835404028352916020019161024d565b820191906000526020600020905b81548152906001019060200180831161023057829003601f168201915b505050505090806003018054610262906112a0565b80601f016020809104026020016040519081016040528092919081815260200182805461028e906112a0565b80156102db5780601f106102b0576101008083540402835291602001916102db565b820191906000526020600020905b8154815290600101906020018083116102be57829003601f168201915b5050505050905084565b6102ed61065f565b6001600160a01b0316336001600160a01b0316146103265760405162461bcd60e51b815260040161031d906110b1565b60405180910390fd5b6001600160a01b03811660009081526001602052604080822090519091906002906103549082850190610e06565b908152604051908190036020018120805492151560ff19909316929092179091556000906003906103889084830190610e06565b9081526040805160209281900383019020805460ff1916931515939093179092556001600160a01b03841660009081526001909152908120805461ffff19168155906103d76002830182610be2565b6103e5600383016000610be2565b506103f39050600483610971565b507f4803dcd528253b802a22997f7a3b15bcc6be53c1f2ba8f110aa26c25d652a68f826040516104239190610ea1565b60405180910390a15050565b3360009081526001602052604081205460ff16600281111561046157634e487b7160e01b600052602160045260246000fd5b1461047e5760405162461bcd60e51b815260040161031d906111b7565b60028260405161048e9190610dea565b9081526040519081900360200190205460ff16156104be5760405162461bcd60e51b815260040161031d9061106d565b6003816040516104ce9190610dea565b9081526040519081900360200190205460ff16156104fe5760405162461bcd60e51b815260040161031d90611172565b61050960043361098d565b50600160028360405161051c9190610dea565b9081526040805160209281900383019020805460ff1916931515939093179092553360009081526001825291909120835161055f92600290920191850190610c1e565b5060016003826040516105729190610dea565b9081526040805160209281900383019020805460ff191693151593909317909255336000908152600182529190912082516105b592600390920191840190610c1e565b5033600081815260016020819052604091829020805460ff19169091179055517f80788e6e1951532975ceb5ca698dfbf35d3a99bc9c440d8e1bb7301534ab72a2916104239185908590610edb565b61060c6109a2565b6001600160a01b031661061d61065f565b6001600160a01b0316146106435760405162461bcd60e51b815260040161031d9061113d565b61064d60006109a6565b565b600054600160a01b900460ff1681565b6000546001600160a01b031690565b60606101a060046109f6565b600060026001600160a01b03831660009081526001602052604090205460ff1660028111156106b957634e487b7160e01b600052602160045260246000fd5b1492915050565b60023360009081526001602052604090205460ff1660028111156106f457634e487b7160e01b600052602160045260246000fd5b1480610718575061070361065f565b6001600160a01b0316336001600160a01b0316145b6107345760405162461bcd60e51b815260040161031d90610fce565b6001600160a01b038116600090815260016020819052604090912090815460ff16600281111561077457634e487b7160e01b600052602160045260246000fd5b146107915760405162461bcd60e51b815260040161031d906110f3565b33600090815260018201602052604090205460ff16156107c35760405162461bcd60e51b815260040161031d906111ee565b33600090815260018281016020526040909120805460ff1916821790558154610100900460ff169082906107f6836112db565b825460ff91821661010093840a908102908302199091161790925583546040517fb56c0bae1f9656ed06cdfdd64813839cd5a6e652cce3338329f3c05e2ca953a194506108499387933393041690610eb5565b60405180910390a16000548154600160a01b90910460ff9081166101009092041610158061088f575061087a61065f565b6001600160a01b0316336001600160a01b0316145b156108eb576002815460ff1660028111156108ba57634e487b7160e01b600052602160045260246000fd5b50507fd283121480f58b0265dcca9e40475738da2f7774691845bb2b65bb88778de69d826040516104239190610ea1565b5050565b6108f76109a2565b6001600160a01b031661090861065f565b6001600160a01b03161461092e5760405162461bcd60e51b815260040161031d9061113d565b6001600160a01b0381166109545760405162461bcd60e51b815260040161031d90611027565b61095d816109a6565b50565b600061096b82610a03565b92915050565b6000610986836001600160a01b038416610a07565b9392505050565b6000610986836001600160a01b038416610b24565b3390565b600080546001600160a01b038381166001600160a01b0319831681178455604051919092169283917f8be0079c531659141344cd1fd0a4f28419497f9722a3daafe3b4186f6b6457e09190a35050565b6060600061098683610b6e565b5490565b60008181526001830160205260408120548015610b1a576000610a2b600183611259565b8554909150600090610a3f90600190611259565b9050818114610ac0576000866000018281548110610a6d57634e487b7160e01b600052603260045260246000fd5b9060005260206000200154905080876000018481548110610a9e57634e487b7160e01b600052603260045260246000fd5b6000918252602080832090910192909255918252600188019052604090208390555b8554869080610adf57634e487b7160e01b600052603160045260246000fd5b60019003818190600052602060002001600090559055856001016000868152602001908152602001600020600090556001935050505061096b565b600091505061096b565b6000610b308383610bca565b610b665750815460018181018455600084815260208082209093018490558454848252828601909352604090209190915561096b565b50600061096b565b606081600001805480602002602001604051908101604052809291908181526020018280548015610bbe57602002820191906000526020600020905b815481526020019060010190808311610baa575b50505050509050919050565b60009081526001919091016020526040902054151590565b508054610bee906112a0565b6000825580601f10610c00575061095d565b601f01602090049060005260206000209081019061095d9190610ca2565b828054610c2a906112a0565b90600052602060002090601f016020900481019282610c4c5760008555610c92565b82601f10610c6557805160ff1916838001178555610c92565b82800160010185558215610c92579182015b82811115610c92578251825591602001919060010190610c77565b50610c9e929150610ca2565b5090565b5b80821115610c9e5760008155600101610ca3565b600082601f830112610cc7578081fd5b81356001600160401b0380821115610ce157610ce1611311565b604051601f8301601f191681016020018281118282101715610d0557610d05611311565b604052828152848301602001861015610d1c578384fd5b82602086016020830137918201602001929092529392505050565b600060208284031215610d48578081fd5b81356001600160a01b0381168114610986578182fd5b60008060408385031215610d70578081fd5b82356001600160401b0380821115610d86578283fd5b610d9286838701610cb7565b93506020850135915080821115610da7578283fd5b50610db485828601610cb7565b9150509250929050565b60008151808452610dd6816020860160208601611270565b601f01601f19169290920160200192915050565b60008251610dfc818460208701611270565b9190910192915050565b8154600090819060028104600180831680610e2257607f831692505b6020808410821415610e4257634e487b7160e01b87526022600452602487fd5b818015610e565760018114610e6757610e93565b60ff19861689528489019650610e93565b610e708a61124d565b885b86811015610e8b5781548b820152908501908301610e72565b505084890196505b509498975050505050505050565b6001600160a01b0391909116815260200190565b6001600160a01b03938416815291909216602082015260ff909116604082015260600190565b6001600160a01b0384168152606060208201819052600090610eff90830185610dbe565b8281036040840152610f118185610dbe565b9695505050505050565b6020808252825182820181905260009190848201906040850190845b81811015610f5c5783516001600160a01b031683529284019291840191600101610f37565b50909695505050505050565b901515815260200190565b600060038610610f9157634e487b7160e01b81526021600452602481fd5b85825260ff8516602083015260806040830152610fb16080830185610dbe565b8281036060840152610fc38185610dbe565b979650505050505050565b60208082526039908201527f566f7465722068617320746f206265206120636f6e6669726d656420636f6e746040820152783934b13aba37b91037b91031b7b73a3930b1ba1037bbb732b960391b606082015260800190565b60208082526026908201527f4f776e61626c653a206e6577206f776e657220697320746865207a65726f206160408201526564647265737360d01b606082015260800190565b60208082526024908201527f446973636f72642068616e646c6520697320616c726561647920726567697374604082015263195c995960e21b606082015260800190565b60208082526022908201527f4f6e6c79206f776e65722063616e2064656c65746520636f6e7472696275746f604082015261727360f01b606082015260800190565b6020808252602a908201527f436f6e7472696275746f72206973206e6f7420696e20636f6e6669726d6174696040820152696f6e2070726f6365737360b01b606082015260800190565b6020808252818101527f4f776e61626c653a2063616c6c6572206973206e6f7420746865206f776e6572604082015260600190565b60208082526025908201527f47697468756220757365726e616d6520697320616c72656164792072656769736040820152641d195c995960da1b606082015260800190565b6020808252601e908201527f4163636f756e7420686173207265676973746572656420616c72656164790000604082015260600190565b60208082526028908201527f566f74657220616c726561647920766f74656420666f72207468697320636f6e6040820152673a3934b13aba37b960c11b606082015260800190565b90815260200190565b60ff91909116815260200190565b60009081526020902090565b60008282101561126b5761126b6112fb565b500390565b60005b8381101561128b578181015183820152602001611273565b8381111561129a576000848401525b50505050565b6002810460018216806112b457607f821691505b602082108114156112d557634e487b7160e01b600052602260045260246000fd5b50919050565b600060ff821660ff8114156112f2576112f26112fb565b60010192915050565b634e487b7160e01b600052601160045260246000fd5b634e487b7160e01b600052604160045260246000fdfea2646970667358221220455b6cd0d48b284100acdae13ffedd586772ed9772b679f1eb5dcafd2437d79e64736f6c63430008000033608060405234801561001057600080fd5b5060405161119f38038061119f83398101604081905261002f916100a0565b600180546001600160a01b039094166001600160a01b03199485161781556002805491820181556000527f405787fa12a823e0f2b7631cc41b3ba8828b3321ca811111fa75cd3aa3bb5ace01805490931633179092556007556008805491151560ff199092169190911790556100f1565b6000806000606084860312156100b4578283fd5b83516001600160a01b03811681146100ca578384fd5b60208501516040860151919450925080151581146100e6578182fd5b809150509250925092565b61109f806101006000396000f3fe608060405234801561001057600080fd5b50600436106100ba5760003560e01c80630cde0456146100bf57806310a93d95146100dd57806314bfd6d0146100f257806320b698b31461011257806343859632146101255780634c280414146101455780636984d070146101655780637b1039991461017a5780638c65c81f146101825780639669cdbb146101a45780639a23648f146101b7578063a0b412a6146101ca578063c89c1a89146101dd578063e3af3b77146101f0575b600080fd5b6100c7610203565b6040516100d49190610fd3565b60405180910390f35b6100f06100eb366004610d2d565b610218565b005b610105610100366004610cea565b6103ee565b6040516100d49190610de6565b6100f0610120366004610c89565b610418565b610138610133366004610d02565b6107a3565b6040516100d49190610ea7565b610158610153366004610cea565b6107c3565b6040516100d49190610dfa565b61016d610830565b6040516100d49190610e47565b6101056108ec565b610195610190366004610cea565b6108fb565b6040516100d493929190610eb2565b6100c76101b2366004610cea565b610932565b6100c76101c5366004610d02565b61096d565b6101056101d8366004610da3565b61098a565b6100f06101eb366004610d71565b6109c2565b6100c76101fe366004610c60565b610b84565b600080546102139060019061100b565b905090565b6000828152600560209081526040808320338452909152902054829060ff1615801561025257503360009081526006602052604090205415155b61025b57600080fd5b826000806000838154811061028057634e487b7160e01b600052603260045260246000fd5b600091825260209091206003909102015460ff1660028111156102b357634e487b7160e01b600052602160045260246000fd5b146102d95760405162461bcd60e51b81526004016102d090610f3d565b60405180910390fd5b60008581526005602090815260408083203384529091528120805460ff191660011790555b84518110156103ad57336000818152600660209081526040808320548a845260048352818420948452939091528120805490919061033d908490610ff3565b90915550503360009081526006602052604081205481549091908890811061037557634e487b7160e01b600052603260045260246000fd5b906000526020600020906003020160020160008282546103959190610ff3565b909155508190506103a581611022565b9150506102fe565b507ff1003b73c437642c0460aee9cd9628b0b8c447b66e6c7c905531b9c644214a1185336040516103df929190610fdc565b60405180910390a15050505050565b600281815481106103fe57600080fd5b6000918252602090912001546001600160a01b0316905081565b6000805b8115801561042b575060025481105b1561048d57336001600160a01b03166002828154811061045b57634e487b7160e01b600052603260045260246000fd5b6000918252602090912001546001600160a01b0316141561047b57600191505b8061048581611022565b91505061041c565b508061049857600080fd5b6000541580610507575060008080546104b39060019061100b565b815481106104d157634e487b7160e01b600052603260045260246000fd5b600091825260209091206003909102015460ff16600281111561050457634e487b7160e01b600052602160045260246000fd5b14155b6105235760405162461bcd60e51b81526004016102d090610f68565b60005b825181101561067357600083828151811061055157634e487b7160e01b600052603260045260246000fd5b6020908102919091010151600154604051630692d88f60e51b81529192506001600160a01b03169063d25b11e09061058d908490600401610de6565b60206040518083038186803b1580156105a557600080fd5b505afa1580156105b9573d6000803e3d6000fd5b505050506040513d601f19601f820116820180604052508101906105dd9190610cc3565b156106605760008054600391906105f69060019061100b565b815260200190815260200160002084838151811061062457634e487b7160e01b600052603260045260246000fd5b60209081029190910181015182546001810184556000938452919092200180546001600160a01b0319166001600160a01b039092169190911790555b508061066b81611022565b915050610526565b506000805460039082906106899060019061100b565b8152602081019190915260400160002054116106b75760405162461bcd60e51b81526004016102d090610f9f565b604080516060810182526000808252426020830152918101829052815460018082018455928052815160039091027f290decd9548b62a8d60345a988386fc84ba6bc95484008f6362f93160ef3e56301805492939092839160ff199091169083600281111561073657634e487b7160e01b600052602160045260246000fd5b02179055506020820151816001015560408201518160020155505060006001600080549050610765919061100b565b90507ff5d5acf597a5f9d06a24389ebea67f576c74da4d4a73b97a5dfac2452acad647816040516107969190610fd3565b60405180910390a1505050565b600560209081526000928352604080842090915290825290205460ff1681565b60008181526003602090815260409182902080548351818402810184019094528084526060939283018282801561082357602002820191906000526020600020905b81546001600160a01b03168152600190910190602001808311610805575b505050505090505b919050565b60606000805480602002602001604051908101604052809291908181526020016000905b828210156108e3576000848152602090206040805160608101909152600384029091018054829060ff16600281111561089d57634e487b7160e01b600052602160045260246000fd5b60028111156108bc57634e487b7160e01b600052602160045260246000fd5b81526020016001820154815260200160028201548152505081526020019060010190610854565b50505050905090565b6001546001600160a01b031681565b6000818154811061090b57600080fd5b600091825260209091206003909102018054600182015460029092015460ff909116925083565b600080828154811061095457634e487b7160e01b600052603260045260246000fd5b9060005260206000209060030201600201549050919050565b600460209081526000928352604080842090915290825290205481565b600360205281600052604060002081815481106109a657600080fd5b6000918252602090912001546001600160a01b03169150829050565b6000805b811580156109d5575060025481105b15610a3757336001600160a01b031660028281548110610a0557634e487b7160e01b600052603260045260246000fd5b6000918252602090912001546001600160a01b03161415610a2557600191505b80610a2f81611022565b9150506109c6565b5080610a4257600080fd5b6000808481548110610a6457634e487b7160e01b600052603260045260246000fd5b600091825260209091206003909102015460ff166002811115610a9757634e487b7160e01b600052602160045260246000fd5b14610ab45760405162461bcd60e51b81526004016102d090610f06565b6000826002811115610ad657634e487b7160e01b600052602160045260246000fd5b1415610af45760405162461bcd60e51b81526004016102d090610ed1565b8160008481548110610b1657634e487b7160e01b600052603260045260246000fd5b60009182526020909120600390910201805460ff19166001836002811115610b4e57634e487b7160e01b600052602160045260246000fd5b02179055507f2a0641ef71e80039cddc7522d6459d2caef71d8dd8651c053a2700f2ac1769008333604051610796929190610fdc565b60009081526004602090815260408083206001600160a01b03949094168352929052205490565b80356001600160a01b038116811461082b57600080fd5b600082601f830112610bd2578081fd5b813560206001600160401b0380831115610bee57610bee611053565b81830260405183828201018181108482111715610c0d57610c0d611053565b60405284815283810192508684018288018501891015610c2b578687fd5b8692505b85831015610c5457610c4081610bab565b845292840192600192909201918401610c2f565b50979650505050505050565b60008060408385031215610c72578182fd5b610c7b83610bab565b946020939093013593505050565b600060208284031215610c9a578081fd5b81356001600160401b03811115610caf578182fd5b610cbb84828501610bc2565b949350505050565b600060208284031215610cd4578081fd5b81518015158114610ce3578182fd5b9392505050565b600060208284031215610cfb578081fd5b5035919050565b60008060408385031215610d14578182fd5b82359150610d2460208401610bab565b90509250929050565b60008060408385031215610d3f578182fd5b8235915060208301356001600160401b03811115610d5b578182fd5b610d6785828601610bc2565b9150509250929050565b60008060408385031215610d83578182fd5b82359150602083013560038110610d98578182fd5b809150509250929050565b60008060408385031215610db5578182fd5b50508035926020909101359150565b60038110610de257634e487b7160e01b600052602160045260246000fd5b9052565b6001600160a01b0391909116815260200190565b6020808252825182820181905260009190848201906040850190845b81811015610e3b5783516001600160a01b031683529284019291840191600101610e16565b50909695505050505050565b602080825282518282018190526000919060409081850190868401855b82811015610e9a578151610e79858251610dc4565b80870151858801528501518585015260609093019290850190600101610e64565b5091979650505050505050565b901515815260200190565b60608101610ec08286610dc4565b602082019390935260400152919050565b6020808252818101527f43616e206f6e6c7920636c6f7365206f722063616e63656c206120726f756e64604082015260600190565b6020808252601e908201527f54686520766f74696e6720626c6f636b206973206e6f7420636c6f7365640000604082015260600190565b6020808252601190820152702937bab7321034b9903737ba1037b832b760791b604082015260600190565b6020808252601f908201527f416c6c207072696f7220726f756e6473206d75737420626520636c6f73656400604082015260600190565b6020808252601a90820152792a3432b9329036bab9ba1031329030903b30b634b2103ab9b2b960311b604082015260600190565b90815260200190565b9182526001600160a01b0316602082015260400190565b600082198211156110065761100661103d565b500190565b60008282101561101d5761101d61103d565b500390565b60006000198214156110365761103661103d565b5060010190565b634e487b7160e01b600052601160045260246000fd5b634e487b7160e01b600052604160045260246000fdfea264697066735822122018e269ba42e7462feab9ae4f98d1517cb5fd7ff74b90c4131402c0fba179efd464736f6c6343000800003360806040526000805460ff191660641790553480156200001e57600080fd5b506040516200191f3803806200191f833981016040819052620000419162000175565b6001600160a01b0383166200006657634e487b7160e01b600052600160045260246000fd5b6001600160a01b0382166200008b57634e487b7160e01b600052600160045260246000fd5b600480546001600160a01b038086166001600160a01b031992831617835560058054868316908416178155600380548416331790556002805460018181019092557f405787fa12a823e0f2b7631cc41b3ba8828b3321ca811111fa75cd3aa3bb5ace01805487851695168517905560009384526020819052604093849020555491516315a722b960e31b815264150000000193929091169163ad3915c8916200013791859101620001c8565b600060405180830381600087803b1580156200015257600080fd5b505af115801562000167573d6000803e3d6000fd5b5050505050505050620001ea565b6000806000606084860312156200018a578283fd5b83516200019781620001d1565b6020850151909350620001aa81620001d1565b6040850151909250620001bd81620001d1565b809150509250925092565b90815260200190565b6001600160a01b0381168114620001e757600080fd5b50565b61172580620001fa6000396000f3fe608060405234801561001057600080fd5b50600436106100785760003560e01c8063084b82891461007d578063230dbd291461008757806330d9c915146100b057806353c11f99146100c35780635f9e7d77146100d6578063884d1f40146100e9578063cf2ca55d146100fc578063d86ed3e514610087575b600080fd5b61008561010f565b005b61009a610095366004611105565b6101de565b6040516100a7919061126b565b60405180910390f35b61009a6100be36600461106a565b610357565b61009a6100d1366004611105565b61037a565b61009a6100e436600461106a565b610444565b61009a6100f736600461106a565b61045e565b61008561010a366004610f23565b61056e565b60075461011b57600080fd5b60048054600654600754604051631557a4cd60e31b815260009485946001600160a01b039081169463aabd2668946101589491909216920161137d565b60806040518083038186803b15801561017057600080fd5b505afa158015610184573d6000803e3d6000fd5b505050506040513d601f19601f820116820180604052508101906101a89190611204565b506006546040805160008152602081019091529295509093506101d992506001600160a01b0316908490849061064a565b505050565b6005546060906001600160a01b0316331461020957634e487b7160e01b600052600160045260246000fd5b6004546001600160a01b038a811691161461023457634e487b7160e01b600052600160045260246000fd5b6000808b600660006101000a8154816001600160a01b0302191690836001600160a01b0316021790555089600781905550600460009054906101000a90046001600160a01b03166001600160a01b031663aabd26688d8c6040518363ffffffff1660e01b81526004016102a892919061137d565b60806040518083038186803b1580156102c057600080fd5b505afa1580156102d4573d6000803e3d6000fd5b505050506040513d601f19601f820116820180604052508101906102f89190611204565b909192505080925081935050506103478c838388888080601f01602080910402602001604051908101604052809392919081815260200183838082843760009201919091525061064a92505050565b9c9b505050505050505050505050565b606060405162461bcd60e51b81526004016103719061140e565b60405180910390fd5b6005546060906001600160a01b031633146103a557634e487b7160e01b600052600160045260246000fd5b6004546001600160a01b038a81169116146103d057634e487b7160e01b600052600160045260246000fd5b89600660006101000a8154816001600160a01b0302191690836001600160a01b0316021790555087600781905550600080600460009054906101000a90046001600160a01b03166001600160a01b031663aabd26688d8c6040518363ffffffff1660e01b81526004016102a892919061137d565b606060405162461bcd60e51b8152600401610371906113bb565b6005546060906001600160a01b0316331461048957634e487b7160e01b600052600160045260246000fd5b6004546001600160a01b038881169116146104b457634e487b7160e01b600052600160045260246000fd5b60048054604051631557a4cd60e31b81526000926001600160a01b039092169163aabd2668916104e8918d918c910161137d565b60806040518083038186803b15801561050057600080fd5b505afa158015610514573d6000803e3d6000fd5b505050506040513d601f19601f820116820180604052508101906105389190611204565b5050600b0b9150508060405160200161055191906113b2565b604051602081830303815290604052915050979650505050505050565b6003546001600160a01b031633146105985760405162461bcd60e51b81526004016103719061145d565b80518251146105a657600080fd5b81516105b9906002906020850190610d88565b5060005b82518110156101d9578181815181106105e657634e487b7160e01b600052603260045260246000fd5b6020026020010151600160006002848154811061061357634e487b7160e01b600052603260045260246000fd5b60009182526020808320909101546001600160a01b03168352820192909252604001902055806106428161167a565b9150506105bd565b6060600061065661093b565b6004548493509091506000906001600160a01b0316630602f7db8861067c600189611633565b6040518363ffffffff1660e01b815260040161069992919061137d565b60206040518083038186803b1580156106b157600080fd5b505afa1580156106c5573d6000803e3d6000fd5b505050506040513d601f19601f820116820180604052508101906106e991906111cb565b600480546040516346ccbfb760e11b81529293506001600160a01b031691638d997f6e9161071b918b91869101611396565b60206040518083038186803b15801561073357600080fd5b505afa158015610747573d6000803e3d6000fd5b505050506040513d601f19601f8201168201806040525081019061076b91906111ec565b6000549095506064906107819060ff16876115c4565b61078b919061151e565b6000549095506064906107a19060ff1688611532565b6107ab91906114e0565b955060005b60025481101561090e576000600282815481106107dd57634e487b7160e01b600052603260045260246000fd5b60009182526020808320909101546001600160a01b0316808352600190915260408220549092508590610810908a6115c4565b61081a919061151e565b60048054604051630602f7db60e01b81529293506000926001600160a01b0390911691630602f7db91610851918f9187910161137d565b60206040518083038186803b15801561086957600080fd5b505afa15801561087d573d6000803e3d6000fd5b505050506040513d601f19601f820116820180604052508101906108a191906111cb565b90506108ad818b6115e3565b60408051600080825260208201909252919b505096508680519060200120888051906020012014156108e9576108e48b84836109b5565b6108f8565b6108f58b84838b610b81565b96505b50505080806109069061167a565b9150506107b0565b50600086600b0b121561093157634e487b7160e01b600052600160045260246000fd5b5050949350505050565b6000805b6002548110156109b157600160006002838154811061096e57634e487b7160e01b600052603260045260246000fd5b60009182526020808320909101546001600160a01b0316835282019290925260400190205461099d90836114c8565b9150806109a98161167a565b91505061093f565b5090565b60048054604051631cd43d1160e31b81526000926001600160a01b039092169163e6a1e888916109eb918891309189910161131a565b60806040518083038186803b158015610a0357600080fd5b505afa158015610a17573d6000803e3d6000fd5b505050506040513d601f19601f82011682018060405250810190610a3b9190611204565b505091505060008082600b0b1315610a5b57506328104d3160e11b610a65565b5063317e182f60e11b5b82600b0b60001415610a9257600082600b0b1315610a8b5750635a5999e360e11b610a92565b50506101d9565b604080516000808252602082019092528290610ab7908890889088906044810161133d565b60408051601f198184030181529181526020820180516001600160e01b03166001600160e01b0319909416939093179092526005546004805493516339255d5b60e01b81529294506001600160a01b03918216936339255d5b93610b229391909116918691016112d3565b600060405180830381600087803b158015610b3c57600080fd5b505af1158015610b50573d6000803e3d6000fd5b505050506040513d6000823e601f3d908101601f19168201604052610b789190810190610fe2565b50505050505050565b60048054604051631cd43d1160e31b81526060926000926001600160a01b03169163e6a1e88891610bb8918a9130918b910161131a565b60806040518083038186803b158015610bd057600080fd5b505afa158015610be4573d6000803e3d6000fd5b505050506040513d601f19601f82011682018060405250810190610c089190611204565b505091505060008082600b0b1315610c2857506328104d3160e11b610c32565b5063317e182f60e11b5b84600b0b60001415610c6257600082600b0b1315610c585750635a5999e360e11b610c62565b8392505050610d80565b604080516000808252602082019092528290610c87908a908a908a906044810161133d565b60408051601f198184030181529190526020810180516001600160e01b03166001600160e01b0319909316929092179091526005546004549192506001600160a01b0390811691634329d29391168360006040519080825280601f01601f191660200182016040528015610d02576020820181803683370190505b50896040518563ffffffff1660e01b8152600401610d23949392919061127e565b600060405180830381600087803b158015610d3d57600080fd5b505af1158015610d51573d6000803e3d6000fd5b505050506040513d6000823e601f3d908101601f19168201604052610d799190810190611014565b5093505050505b949350505050565b828054828255906000526020600020908101928215610ddd579160200282015b82811115610ddd57825182546001600160a01b0319166001600160a01b03909116178255602090920191600190910190610da8565b506109b19291505b808211156109b15760008155600101610de5565b600082601f830112610e09578081fd5b81356020610e1e610e19836114a5565b61147c565b8281528181019085830183850287018401881015610e3a578586fd5b855b85811015610e5857813584529284019290840190600101610e3c565b5090979650505050505050565b60008083601f840112610e76578182fd5b5081356001600160401b03811115610e8c578182fd5b602083019150836020828501011115610ea457600080fd5b9250929050565b600082601f830112610ebb578081fd5b81516001600160401b03811115610ed457610ed46116c1565b610ee7601f8201601f191660200161147c565b818152846020838601011115610efb578283fd5b610d8082602083016020870161164a565b8051600b81900b8114610f1e57600080fd5b919050565b60008060408385031215610f35578182fd5b82356001600160401b0380821115610f4b578384fd5b818501915085601f830112610f5e578384fd5b81356020610f6e610e19836114a5565b82815281810190858301838502870184018b1015610f8a578889fd5b8896505b84871015610fb5578035610fa1816116d7565b835260019690960195918301918301610f8e565b5096505086013592505080821115610fcb578283fd5b50610fd885828601610df9565b9150509250929050565b600060208284031215610ff3578081fd5b81516001600160401b03811115611008578182fd5b610d8084828501610eab565b60008060408385031215611026578182fd5b82516001600160401b038082111561103c578384fd5b61104886838701610eab565b9350602085015191508082111561105d578283fd5b50610fd885828601610eab565b600080600080600080600060a0888a031215611084578283fd5b873561108f816116d7565b9650602088013561109f816116d7565b95506040880135945060608801356001600160401b03808211156110c1578485fd5b6110cd8b838c01610e65565b909650945060808a01359150808211156110e5578384fd5b506110f28a828b01610e65565b989b979a50959850939692959293505050565b600080600080600080600080600060c08a8c031215611122578182fd5b893561112d816116d7565b985060208a013561113d816116d7565b975060408a0135965060608a01356001600160401b038082111561115f578384fd5b61116b8d838e01610e65565b909850965060808c0135915080821115611183578384fd5b61118f8d838e01610e65565b909650945060a08c01359150808211156111a7578384fd5b506111b48c828d01610e65565b915080935050809150509295985092959850929598565b6000602082840312156111dc578081fd5b6111e582610f0c565b9392505050565b6000602082840312156111fd578081fd5b5051919050565b60008060008060808587031215611219578384fd5b8451935061122960208601610f0c565b6040860151606090960151949790965092505050565b6000815180845261125781602086016020860161164a565b601f01601f19169290920160200192915050565b6000602082526111e5602083018461123f565b6001600160a01b03851681526080602082018190526000906112a29083018661123f565b82810360408401526112b4818661123f565b905082810360608401526112c8818561123f565b979650505050505050565b6001600160a01b03831681526060602082018190526000906112f79083018461123f565b8281036040938401526002815261060f60f31b6020820152919091019392505050565b6001600160a01b0393841681529183166020830152909116604082015260600190565b6001600160a01b03858116825284166020820152600b83900b60408201526080606082018190526000906113739083018461123f565b9695505050505050565b6001600160a01b03929092168252602082015260400190565b6001600160a01b03929092168252600b0b602082015260400190565b90815260200190565b60208082526033908201527f556e737570706f727465642063616c6c6261636b202d20204265666f7265204160408201527219dc99595b595b9d0815195c9b5a5b985d1959606a1b606082015260800190565b6020808252602f908201527f556e737570706f727465642063616c6c6261636b202d204265666f726520416760408201526e1c99595b595b9d0810dc99585d1959608a1b606082015260800190565b602080825260059082015264042c2eae8d60db1b604082015260600190565b6040518181016001600160401b038111828210171561149d5761149d6116c1565b604052919050565b60006001600160401b038211156114be576114be6116c1565b5060209081020190565b600082198211156114db576114db611695565b500190565b600081600b0b83600b0b806114f7576114f76116ab565b60016001605f1b031982146000198214161561151557611515611695565b90059392505050565b60008261152d5761152d6116ab565b500490565b6000600b82810b9084900b60016001605f1b038382138484138082168484048611161561156157611561611695565b60016001605f1b03198685128281168783058712161561158357611583611695565b87871292508582058712848416161561159e5761159e611695565b858505871281841616156115b4576115b4611695565b5050509290910295945050505050565b60008160001904831182151516156115de576115de611695565b500290565b6000600b82810b9084900b828112801560016001605f1b031983018412161561160e5761160e611695565b60016001605f1b038201831381161561162957611629611695565b5090039392505050565b60008282101561164557611645611695565b500390565b60005b8381101561166557818101518382015260200161164d565b83811115611674576000848401525b50505050565b600060001982141561168e5761168e611695565b5060010190565b634e487b7160e01b600052601160045260246000fd5b634e487b7160e01b600052601260045260246000fd5b634e487b7160e01b600052604160045260246000fd5b6001600160a01b03811681146116ec57600080fd5b5056fea264697066735822122019d7b3d60665ac7005792044ecdf0e182dbaaad47dfaecaf1fe7edad49cbfe8d64736f6c63430008000033a26469706673582212205becac62314cedaabee25efe58da9c0d49646f4d596419ace448747768bdd3ee64736f6c63430008000033",
  "devdoc": {
    "kind": "dev",
    "methods": {
      "owner()": {
        "details": "Returns the address of the current owner."
      },
      "renounceOwnership()": {
        "details": "Leaves the contract without owner. It will not be possible to call `onlyOwner` functions anymore. Can only be called by the current owner. NOTE: Renouncing ownership will leave the contract without an owner, thereby removing any functionality that is only available to the owner."
      },
      "transferOwnership(address)": {
        "details": "Transfers ownership of the contract to a new account (`newOwner`). Can only be called by the current owner."
      }
    },
    "version": 1
  },
  "userdoc": {
    "kind": "user",
    "methods": {},
    "version": 1
  },
  "storageLayout": {
    "storage": [
      {
        "astId": 7,
        "contract": "contracts/DAORegistry.sol:DAORegistry",
        "label": "_owner",
        "offset": 0,
        "slot": "0",
        "type": "t_address"
      },
      {
        "astId": 3367,
        "contract": "contracts/DAORegistry.sol:DAORegistry",
        "label": "daoList",
        "offset": 0,
        "slot": "1",
        "type": "t_array(t_struct(DAO)3363_storage)dyn_storage"
      },
      {
        "astId": 3371,
        "contract": "contracts/DAORegistry.sol:DAORegistry",
        "label": "addressToDAO",
        "offset": 0,
        "slot": "2",
        "type": "t_mapping(t_address,t_uint256)"
      },
      {
        "astId": 3375,
        "contract": "contracts/DAORegistry.sol:DAORegistry",
        "label": "daoToAddress",
        "offset": 0,
        "slot": "3",
        "type": "t_mapping(t_uint256,t_address)"
      },
      {
        "astId": 3379,
        "contract": "contracts/DAORegistry.sol:DAORegistry",
        "label": "hasSalary",
        "offset": 0,
        "slot": "4",
        "type": "t_mapping(t_address,t_bool)"
      },
      {
        "astId": 3385,
        "contract": "contracts/DAORegistry.sol:DAORegistry",
        "label": "userPaidForRound",
        "offset": 0,
        "slot": "5",
        "type": "t_mapping(t_uint256,t_mapping(t_address,t_bool))"
      },
      {
        "astId": 3396,
        "contract": "contracts/DAORegistry.sol:DAORegistry",
        "label": "_cfa",
        "offset": 0,
        "slot": "6",
        "type": "t_contract(IConstantFlowAgreementV1)1280"
      },
      {
        "astId": 3399,
        "contract": "contracts/DAORegistry.sol:DAORegistry",
        "label": "_host",
        "offset": 0,
        "slot": "7",
        "type": "t_contract(ISuperfluid)2610"
      }
    ],
    "types": {
      "t_address": {
        "encoding": "inplace",
        "label": "address",
        "numberOfBytes": "20"
      },
      "t_array(t_struct(DAO)3363_storage)dyn_storage": {
        "base": "t_struct(DAO)3363_storage",
        "encoding": "dynamic_array",
        "label": "struct DAORegistry.DAO[]",
        "numberOfBytes": "32"
      },
      "t_bool": {
        "encoding": "inplace",
        "label": "bool",
        "numberOfBytes": "1"
      },
      "t_contract(ContributorRegistry)3339": {
        "encoding": "inplace",
        "label": "contract ContributorRegistry",
        "numberOfBytes": "20"
      },
      "t_contract(IConstantFlowAgreementV1)1280": {
        "encoding": "inplace",
        "label": "contract IConstantFlowAgreementV1",
        "numberOfBytes": "20"
      },
      "t_contract(ISuperfluid)2610": {
        "encoding": "inplace",
        "label": "contract ISuperfluid",
        "numberOfBytes": "20"
      },
      "t_contract(PaymentStream)4390": {
        "encoding": "inplace",
        "label": "contract PaymentStream",
        "numberOfBytes": "20"
      },
      "t_contract(RoundManager)4848": {
        "encoding": "inplace",
        "label": "contract RoundManager",
        "numberOfBytes": "20"
      },
      "t_mapping(t_address,t_bool)": {
        "encoding": "mapping",
        "key": "t_address",
        "label": "mapping(address => bool)",
        "numberOfBytes": "32",
        "value": "t_bool"
      },
      "t_mapping(t_address,t_uint256)": {
        "encoding": "mapping",
        "key": "t_address",
        "label": "mapping(address => uint256)",
        "numberOfBytes": "32",
        "value": "t_uint256"
      },
      "t_mapping(t_uint256,t_address)": {
        "encoding": "mapping",
        "key": "t_uint256",
        "label": "mapping(uint256 => address)",
        "numberOfBytes": "32",
        "value": "t_address"
      },
      "t_mapping(t_uint256,t_mapping(t_address,t_bool))": {
        "encoding": "mapping",
        "key": "t_uint256",
        "label": "mapping(uint256 => mapping(address => bool))",
        "numberOfBytes": "32",
        "value": "t_mapping(t_address,t_bool)"
      },
      "t_string_storage": {
        "encoding": "bytes",
        "label": "string",
        "numberOfBytes": "32"
      },
      "t_struct(DAO)3363_storage": {
        "encoding": "inplace",
        "label": "struct DAORegistry.DAO",
        "members": [
          {
            "astId": 3349,
            "contract": "contracts/DAORegistry.sol:DAORegistry",
            "label": "name",
            "offset": 0,
            "slot": "0",
            "type": "t_string_storage"
          },
          {
            "astId": 3352,
            "contract": "contracts/DAORegistry.sol:DAORegistry",
            "label": "contributorRegistry",
            "offset": 0,
            "slot": "1",
            "type": "t_contract(ContributorRegistry)3339"
          },
          {
            "astId": 3355,
            "contract": "contracts/DAORegistry.sol:DAORegistry",
            "label": "roundManager",
            "offset": 0,
            "slot": "2",
            "type": "t_contract(RoundManager)4848"
          },
          {
            "astId": 3358,
            "contract": "contracts/DAORegistry.sol:DAORegistry",
            "label": "paymentStream",
            "offset": 0,
            "slot": "3",
            "type": "t_contract(PaymentStream)4390"
          },
          {
            "astId": 3360,
            "contract": "contracts/DAORegistry.sol:DAORegistry",
            "label": "salaryPerRound",
            "offset": 0,
            "slot": "4",
            "type": "t_uint256"
          },
          {
            "astId": 3362,
            "contract": "contracts/DAORegistry.sol:DAORegistry",
            "label": "salaryPeriod",
            "offset": 0,
            "slot": "5",
            "type": "t_uint256"
          }
        ],
        "numberOfBytes": "192"
      },
      "t_uint256": {
        "encoding": "inplace",
        "label": "uint256",
        "numberOfBytes": "32"
      }
    }
  }
}